:1000000000000110E500000075010000590100002A
:100010007501000075010000750100007501000008
:100020007501000075010000750100000104000069
:1000300075010000750100000504000009040000BE
:10004000B92C0000B92C0000B92C0000B92C00001C
:10005000B92C0000B92C0000B92C0000B92C00000C
:10006000B92C0000B92C0000B92C0000B92C0000FC
:10007000B92C0000B92C0000B92C0000B92C0000EC
:10008000B92C0000B92C0000B92C0000B92C0000DC
:10009000B92C0000B92C0000B92C0000B92C0000CC
:1000A000B92C0000B92C0000B92C0000B92C0000BC
:1000B000B92C0000B92C0000B92C0000B92C0000AC
:1000C000B92C0000B92C0000B92C0000B92C00009C
:1000D000B92C0000B92C0000B92C0000B92C00008C
:1000E000B92C000008B500F057F900F073F900F0E2
:1000F0007BF900F09BF800F095F805F0DBFB05F0CC
:1001000013FB00F0BFF840B141F28734002505F041
:10011000FDFB8D4208BF8442F9D205F0DCFA18B924
:100120000849094807F098F90649084807F094F982
:1001300005F064FD064B07481B68D96806F010F906
:10014000FEE700BFB0C10000BCC10000E9C1000073
:100150009001001001C200001EF0040F0CBFEFF36D
:100160000880EFF309808169004A1047D10100003F
:100170007047FFFF38B50F4C0F4B10481D782368B0
:10018000D96806F0EDF823680D49D8682A4606F0CC
:100190006FF80F2D236807D80A4A0B4952F825201B
:1001A000D86806F065F8FEE7D968084806F0D8F880
:1001B000F9E700BF9001001004ED00E03CC2000030
:1001C00056C2000048C3000090C20000AEC200004A
:1001D00010B5044600F04AF8236883606368C36082
:1001E000A3680361E3684361236943626369013B78
:1001F000C361A3698361E3690362BFF34F8F05495C
:10020000054BCA6802F4E0621343CB60BFF34F8F23
:1002100000BFFDE700ED00E00400FA05004870476C
:1002200000D8B8050048704700D8B8050E4B072223
:10023000C3F88420AA210122C3F88020C3F88C10BF
:100240005521C3F88C10C3F8A821D3F88820520593
:10025000FBD51A6822F4704242F480421A6040F2E0
:100260000112C3F80421704700C00F400248034A3E
:10027000034BC0E90023704700000020EFBEADDE55
:100280001041522138B5224C224B22689A423DD16E
:100290006268214B9A4239D1204D21482B68D96898
:1002A00006F05EF82B68A2691E49D86805F0E0FFE9
:1002B0002B68E2691C49D86805F0DAFF2B68226ACE
:1002C0001A49D86805F0D4FF2B68A2681849D86885
:1002D00005F0CEFF2B68E2681649D86805F0C8FF24
:1002E0002B6822691449D86805F0C2FF2B6862693F
:1002F0001249D86805F0BCFF2B681148D96806F090
:100300002FF801200023C4E9003338BD0020F9E7AD
:1003100000000020EFBEADDE104152219001001020
:1003200088C30000DBC30000EAC30000F9C300007B
:1003300008C4000017C4000026C4000035C4000033
:1003400044C400000E4A136810B50E4C1918A1429F
:10035000116002D30C4CA1420BD313600B4A0C4921
:1003600013681844884208D30A49884205D21060AD
:1003700001E0002BF2D0184610BD0023FBE700BFC0
:100380000000001028000020008000200400001061
:100390003C14001000000110094A0A4B0A498B4224
:1003A00005D30A4B0A4A0021934205D3704712F83D
:1003B000010B03F8010BF2E703F8011BF4E700BFA0
:1003C000CCDB000000000010640300106803001084
:1003D0003C140010034AD2F8883043F47003C2F88A
:1003E0008830704700ED00E0044800232021C21847
:1003F0000133292B82F80013F9D1704700E100E0A6
:1004000000F056B800F09CB800F0CCB8084800687E
:10041000006880F308884FF0000080F3148862B60B
:1004200061B6BFF34F8FBFF36F8F00DF00BF0000D7
:1004300008ED00E0DFF80C00016841F47001016094
:100440007047000088ED00E007B5002301930B4BD7
:100450001B68013304D00A49EF2005F043FDFEE795
:100460004FF0180383F31188BFF36F8FBFF34F8FE3
:10047000019B002BFCD003B05DF804FB700300105F
:1004800018C500004FF0807340F8043C074B40F85B
:100490000C3C21F001016FF0020340F8081C40F809
:1004A000202C40F8243C4438704700BF4904000029
:1004B000074B19680868B0E8F04F80F30988BFF36C
:1004C0006F8F4FF0000080F311887047AFF300800A
:1004D0007403001008B54FF0180383F31188BFF3BD
:1004E0006F8FBFF34F8F094A13680133012B1360DD
:1004F0000AD1074B1B6813F0FF0F05D0054940F2E6
:10050000AB1005F0EFFCFEE708BD00BF7003001064
:1005100004ED00E032C50000074A08B513682BB9A6
:1005200006494FF4D97005F0DDFCFEE7013B13608E
:100530000BB983F3118808BD7003001067C5000074
:10054000EFF30980BFF36F8F154B1A681EF0100F81
:1005500008BF20ED108A20E9F04F10602DE9090056
:100560004FF0180080F31188BFF34F8FBFF36F8FE8
:1005700001F0E6F94FF0000080F3118809BC19681A
:100580000868B0E8F04F1EF0100F08BFB0EC108AFA
:1005900080F30988BFF36F8F704700BFAFF300800F
:1005A0007403001008B54FF0180383F31188BFF3EC
:1005B0006F8FBFF34F8F01F059F818B1034B4FF015
:1005C00080521A60002383F3118808BD04ED00E017
:1005D00010B5084A084C002323601360FFF71EFE85
:1005E0004FF47A73B0FBF3F0044B01381860072323
:1005F000236010BD18E000E010E000E014E000E02F
:10060000334B344A13B51968914205D132494FF43E
:100610009A7005F067FCFEE71A68304B9A4205D1E4
:100620002F4940F2351005F05DFCFEE72D4B1A789E
:10063000D2B20192FF221A701B782B4ADBB28DF8DE
:1006400003309DF8033003F018031370274A072383
:10065000136000219DF80300000603F1FF3409D464
:1006600011B1022B13600ED0214940F25D1005F04C
:1006700039FCFEE79DF803305B00DBB28DF80330F8
:1006800001212346E6E74FF400731360019B154AEE
:10069000DBB21370174B1A6842F478021A601A68BA
:1006A00042F078421A60FFF793FF134B00241C605E
:1006B000FFF7C0FE114A136843F040431360FFF791
:1006C000A5FE01F03DF9FFF7BFFE204602B010BDC8
:1006D00000ED00E071C20F41E5C5000070C20F419E
:1006E00008C6000000E400E0680300106C0300107E
:1006F0002BC6000020ED00E07003001034EF00E096
:1007000008B5EFF305830F2B0BD90D4A9B5C0D4AFF
:1007100012789A4205D90C4940F2FE2005F0E2FB1E
:10072000FEE70A4B0A4A1B68126803F4E06393422F
:1007300005D9084940F20E3005F0D4FBFEE708BDAC
:10074000F0E300E06803001079C500000CED00E064
:100750006C030010A3C5000010B5044600F07EFF36
:10076000204605F01BFE044601F012F80CB905F016
:10077000A9FB204610BD10B5044640B100F06EFF45
:10078000204605F013FEBDE8104001F001B810BD91
:1007900000F108034FF0FF324360C0E90223036118
:1007A00000230360704700230361704743684B6078
:1007B0009A688A609A685160996003680861013399
:1007C000036070470A68531C30B50AD103695A6840
:1007D0004A6091608B60596003680861013303606F
:1007E00030BD00F108035C6825689542EFD82346C8
:1007F000F9E7D0E9011203698A60516059688142C2
:1008000008BF5A60002202611A68013A1A6018682B
:10081000704710B50446FFF75DFEA46BFFF77CFE42
:10082000B4FA84F0400910BDF8B51546026C866B29
:10083000044652B9076847BB806801F007FBA76010
:1008400005460136A6632846F8BD65B9406805F03F
:10085000B5FD6368226C1344A26863609342F0D3D1
:1008600023686360EDE7C06805F0A8FD236CE268CB
:1008700021685B421A448A42E2603EBFA2689B182C
:10088000E360022D01D116B1013E0025D9E73546BE
:10089000D7E7034610B41A6C084662B1D9689C6861
:1008A0001144A142D96024BF1968D960D9685DF8A4
:1008B000044B05F083BD5DF8044B704770B50446EA
:1008C000FFF708FE94F8455004F124066DB2002DA0
:1008D00014DCFF2384F84530FFF71EFEFFF7FAFD16
:1008E00094F8445004F110066DB2002D12DCFF2381
:1008F00084F84430BDE87040FFF70EBE636A002BF9
:10090000E7D0304601F0FCF808B101F07FF9013D75
:100910006DB2DCE72369002BE9D0304601F0F0F836
:1009200008B101F073F9013D6DB2DEE738B50D464F
:10093000044628B91A4940F2031005F0D3FAFEE73D
:10094000FFF7C8FDD4E90F30226862604343D11835
:100950001B1A1344A160E3600021FF23A16384F804
:10096000443084F8453095B9236963B104F110002F
:1009700001F0C6F838B10B4B4FF080521A60BFF34C
:100980004F8FBFF36F8FFFF7C7FD012038BD04F114
:100990001000FFF7FDFE04F12400FFF7F9FEF2E777
:1009A00031C7000004ED00E013B51C4628B91E490C
:1009B0004FF49D7005F096FAFEE72BB91B494FF4F2
:1009C0009F7005F08FFAFEE732B161B918494FF414
:1009D000A17005F087FAFEE729B1164940F24310ED
:1009E00005F080FAFEE750230193019B502B05D0C0
:1009F000114940F24B1005F075FAFEE7002908BFD7
:100A00002246019B22600123C4E90F0184F846308D
:100A100019462046FFF78AFF9DF8103084F84C30C5
:100A2000204602B010BD00BF6EC6000090C6000098
:100A3000A6C60000DEC6000016C70000F8B50D46C9
:100A40001746064628B90F494FF4BB7005F04AFA1D
:100A5000FEE748435030FFF77FFE044670B10023A5
:100A600080F8463065B100F150032360C4E90F659A
:100A700001212046FFF75AFF84F84C702046F8BD4C
:100A80000346F2E76EC600002DE9FF478846019253
:100A90001F46044628B94E4940F2F12005F022FADB
:100AA000FEE739B9036C2BB14A4940F2F22005F058
:100AB00019FAFEE7022F08D1E36B012B05D0464956
:100AC00040F2F32005F00EFAFEE701F05DF906466C
:100AD00038B9019B33B1414940F2F62005F002FAE2
:100AE000FEE700264FF00009DFF8F4A037E0019D93
:100AF0001DB9FFF711FD002050E016B902A801F062
:100B00003FF8FFF709FD00F0A9FDFFF7E3FC94F8BB
:100B10004430FF2B08BF84F8449094F84530FF2BF5
:100B200008BF84F84590FFF7F7FC01A902A801F07F
:100B300033F8002846D1FFF7CDFCA26BE36B9A4255
:100B40002FD1FFF7E9FC019904F1100000F0C0FF7C
:100B50002046FFF7B3FE00F01BFE50B30126FFF75F
:100B6000B9FCA26BE36B9A4201D3022FBFD13A4684
:100B700041462046FFF758FE636A1BB104F124008A
:100B800000F0BEFF38B1164B4FF080521A60BFF331
:100B90004F8FBFF36F8FFFF7BFFC012004B0BDE89C
:100BA000F087FFF7B9FC2046FFF788FE00F0F0FD64
:100BB000D4E74FF08053CAF80030BFF34F8FBFF334
:100BC0006F8FCBE72046FFF779FE00F0E1FD92E75B
:100BD00031C7000039C7000089C70000D0C7000036
:100BE00004ED00E013B5002200900B4601201146F1
:100BF000FFF7DAFE044638B1002383600360C36068
:100C00001A461946FFF740FF204602B010BD10B546
:100C1000024600210120FFF711FF044638B10023EE
:100C200083600360C3601A461946FFF72DFF204614
:100C300010BDFFFF2DE9F843894690461F46044644
:100C400028B9284940F2C33005F04CF9FEE739B91C
:100C5000036C2BB124494FF4717005F043F9FEE7A2
:100C6000022F08D1E36B012B05D0204940F2C5309B
:100C700005F038F9FEE7FFF743FDEFF311864FF07B
:100C8000180383F31188BFF36F8FBFF34F8FA26BED
:100C9000E36B9A4201D3022F22D194F845503A4691
:100CA0006DB249462046FFF7BFFD6B1C13D1636A46
:100CB0000BB901200BE004F1240000F021FF002813
:100CC000F7D0B8F1000FF4D00120C8F8000086F387
:100CD0001188BDE8F88301356DB284F84550E8E726
:100CE0000020F4E731C7000039C7000089C70000C1
:100CF00070B50D46044628B923494FF48C6005F0C1
:100D0000F1F8FEE7036C2BB1204940F2644005F096
:100D1000E9F8FEE703683BB983682BB11C4940F250
:100D2000694005F0DFF8FEE7FFF7EAFCEFF3118614
:100D30004FF0180383F31188BFF36F8FBFF34F8F0A
:100D4000A26BE36B93421CD994F8453001325BB23D
:100D5000A2635A1C10D1636A0BB9012009E004F1A7
:100D6000240000F0CDFE0028F7D0002DF5D00120A2
:100D7000286086F3118870BD01335BB284F845307A
:100D8000EBE70020F5E700BF31C7000026C80000F0
:100D90003FC800002DE9F04385B00F46019204469C
:100DA00028B947494FF4A06005F09CF8FEE739B92F
:100DB000036C2BB1434940F2045005F093F8FEE771
:100DC00000F0E2FF064638B9019B33B13E4940F2DC
:100DD000095005F087F8FEE700264FF00008DFF81D
:100DE000EC903BE0019D1DB9FFF796FB002052E01F
:100DF00016B902A800F0C4FEFFF78EFB00F02EFC2F
:100E0000FFF768FB94F84430FF2B08BF84F8448058
:100E100094F84530FF2B08BF84F84580FFF77CFB32
:100E200001A902A800F0B8FE00283DD12046FFF736
:100E3000F0FC98B3019904F1240000F049FE20462B
:100E4000FFF73CFD00F0A4FC38B94FF08053C9F81F
:100E50000030BFF34F8FBFF36F8F0126FFF73AFBD0
:100E6000A56B002DBED039462046013DFFF711FD90
:100E7000A563236963B104F1100000F041FE38B1AD
:100E8000124B4FF080521A60BFF34F8FBFF36F8F3A
:100E9000FFF742FB012005B0BDE8F0832046FFF7D5
:100EA0000DFD00F075FCD8E72046FFF707FD00F0C8
:100EB0006FFC2046FFF7ADFC0028CED096E700BFC0
:100EC000A6C80000B2C80000D0C7000004ED00E0D2
:100ED0002DE9FF410446019128B9584940F291504B
:100EE00005F000F8FEE7056C2DB1554940F295502C
:100EF00004F0F8FFFEE700F047FF064638B9019B13
:100F000053B1504940F29A5004F0ECFFFEE72E46F0
:100F10000027DFF838814EE00546F9E7019B4BB921
:100F20002DB1494940F2E15004F0DCFFFEE7FFF744
:100F3000F3FA5EE016B902A800F022FEFFF7ECFA21
:100F400000F08CFBFFF7C6FA94F84430FF2B08BF83
:100F500084F8447094F84530FF2B08BF84F845703E
:100F6000FFF7DAFA01A902A800F016FE00284AD11C
:100F70002046FFF74EFC00283FD023683BB9FFF71F
:100F8000A9FAA06800F010FF0546FFF7C5FA01991D
:100F900004F1240000F09CFD2046FFF78FFC00F0D8
:100FA000F7FB38B94FF08053C8F80030BFF34F8FCC
:100FB000BFF36F8F0126FFF78DFAA36B002BADD027
:100FC000013BA363236813B900F0E6FFA060236927
:100FD00063B104F1100000F093FD38B11B4B4FF0EA
:100FE00080521A60BFF34F8FBFF36F8FFFF794FAF1
:100FF0000125284604B0BDE8F0812046FFF75EFCDD
:1010000000F0C6FBD6E72046FFF758FC00F0C0FB17
:101010002046FFF7FEFB0028CCD0002DE9D0FFF7DB
:1010200059FA616A19B1236B1968C1F10A01A06804
:1010300000F05AFF0025FFF76FFADAE7A6C80000B4
:1010400026C80000D0C7000050C9000004ED00E031
:101050002DE9F84389469046054628B9214940F2D2
:10106000FB6004F03FFFFEE739B9036C2BB11E496A
:1010700040F2FC6004F036FFFEE7FFF741FBEFF3C0
:1010800011874FF0180383F31188BFF36F8FBFF3FD
:101090004F8FAC6B1CB395F84460494676B2284636
:1010A000FFF7F7FB013C731CAC6313D12B690BB941
:1010B00001200BE005F1100000F022FD0028F7D020
:1010C000B8F1000FF4D00120C8F8000087F31188B0
:1010D000BDE8F883013676B285F84460E8E720463B
:1010E000F4E700BF31C7000005C9000008B528B902
:1010F000064940F2B77004F0F5FEFEE790F846307E
:101100001BB9BDE80840FFF736BB08BD31C700007A
:101110000268F0B503461AB342685068586003F19C
:101120000802904204BFD86858605868C768586879
:1011300040685860824204BF506858605868C06870
:101140004D1E00F1340400F1400C14F801EB15F8C9
:10115000016F764502D126B16445F6D18742E6D1CA
:101160000020F0BD43685B68436000F108029342D1
:1011700004BFC3684360436830B5DC6800255B6822
:101180009A4208BF5368D9688C420D65F7D1436015
:1011900030BDFFFF2DE9F0410446FFF79BF92D4BD1
:1011A0002D4D1A682D4F01321A602E68002E46D13F
:1011B0002C601B68012B1CD1B84640460136FFF756
:1011C000E7FA0A2E08F11408F7D1DFF8B880244EA8
:1011D0004046FFF7DDFA3046FFF7DAFA2148FFF71D
:1011E000D7FA2148FFF7D4FA204BC3F80080204BF0
:1011F0001E60204A20491368086801331360E26AC0
:10120000236401239340034314200B6000FB02700E
:10121000211DFFF7CBFAFFF77FF9184B1B6863B16D
:101220002B68DA6AE36A9A4207D2154B4FF0805274
:101230001A60BFF34F8FBFF36F8FBDE8F0810F4B84
:101240001B68002BD5D12B68DA6AE36A9A4298BFF3
:101250002C60CEE74C0400107403001080030010D3
:101260007404001094040010AC0400107803001003
:101270007C030010580400105C040010A804001047
:1012800004ED00E06004001008B5074C074D4FF076
:1012900080562368012B04D92E60BFF34F8FBFF314
:1012A0006F8F04F017FEF4E78003001004ED00E0F8
:1012B000064A13681968064B19B94FF0FF321A60D5
:1012C00070471268D268D2685268F8E77803001055
:1012D0008C04001008B528B9094940F20E7004F0DA
:1012E00001FEFEE74269074B9A4207D1806A064B2E
:1012F000984203D0B0FA80F0400908BD0020FCE716
:1013000076C90000AC040010940400102DE9F047E9
:10131000DDE909644FEA82094A4607460D46206B1B
:10132000A521984605F072F8236BA9F104099944A8
:1013300029F007099DB36B1E04F134020B3513F835
:10134000011F02F8011B09B1AB42F8D1002384F858
:101350003F30089D092D28BF09254FF0000AE5629E
:10136000A564201DC4F84CA0FFF71DFAC5F10A05BD
:1013700004F11800FFF717FAC4F854A02461A5611E
:101380006462C4F850A084F858A0424639464846E2
:10139000FFF778F8206006B13460BDE8F08784F884
:1013A0003450D6E7F8B51B4B1B4E1C680546306819
:1013B00004300F46FFF71DFA334640B93168174E27
:1013C000C96A32680120884022EA000232606A1C41
:1013D00007D137B1196812480431BDE8F840FFF76A
:1013E000E5B91A686419546007D30E4A1068196881
:1013F000BDE8F8400431FFF7E5B90B4A10681968F9
:101400000431FFF7DFF9094B1A68A24288BF1C605C
:10141000F8BD00BFC0040010740300105C0400108D
:10142000AC0400107C030010780300108C04001042
:1014300070B586B0DDE90B542DB9154940F24D2049
:1014400004F050FDFEE72CB9124940F24E2004F0A2
:1014500049FDFEE75C260596059E5C2E05D00E49EB
:1014600040F2562004F03EFDFEE72563022584F895
:10147000595004AD01950A9D02940095059EFFF711
:1014800045FF2046FFF786FE049806B070BD00BFFA
:1014900055CA00006CCA000081CA00002DE9F04363
:1014A000074685B09000884616469946FFF754F9DE
:1014B0000546E8B15C20FFF74FF90446A8B10023C8
:1014C00080F859300D9B056301930C9B02900093AB
:1014D00032464B4641463846FFF718FF2046FFF795
:1014E00059FE012005B0BDE8F0832846FFF743F917
:1014F0004FF0FF30F6E7FFFFF8B5044628B914496E
:101500004FF4AD6004F0EEFCFEE7124B1B68834223
:1015100018D0FEF7DFFF104B65691F680F4B1E6880
:10152000FEF7FAFFBD4211D0B5420FD00C4B9D42E1
:101530000AD1A36A53B994F85830012B0CBF02208A
:101540000320F8BD0020FCE70120FAE70220F8E7BD
:1015500070C9000074030010780300107C030010B1
:10156000AC04001070B5044628B91A494FF4E7607E
:1015700004F0B8FCFEE7184D2B68834228D0FEF734
:10158000A9FF2046FFF7A6FEF0B1261D3046FFF763
:1015900030F91249E26A08680123934003430B6063
:1015A0000F4B142000FB02303146FFF7FFF82B6889
:1015B000E26ADB6A9A4207D30A4B4FF080521A6004
:1015C000BFF34F8FBFF36F8FBDE87040FEF7A4BF2E
:1015D00070BD00BFE3C90000740300105C0400107C
:1015E0008003001004ED00E010B588B0002407AAC5
:1015F00006A905A8CDE9054404F094FC059B0293D7
:10160000069B079A0F491048CDE900432346FFF790
:101610000FFF0E4B186090B14FF0180383F3118841
:10162000BFF36F8FBFF34F8F094B4FF0FF321A603C
:10163000084B01221A60084B1C60FEF7E1FF08B05E
:1016400010BD00BFFBC90000891200008804001013
:101650008C040010A8040010C0040010024A136893
:1016600001331360704700BF540400102DE9F84F98
:101670003B4B1B68002B6BD13A4B1C6801341C6040
:10168000A4B9394B1A6812682AB1384940F67F204C
:1016900004F028FCFEE7364A1968106818601160EB
:1016A000344A136801331360FFF702FE324D334FA3
:1016B0002B68A3424FF0000B11D93A68304BD16A26
:1016C00014224A439A58022A28BF4FF0010B2D4A90
:1016D0001268002A0CBF58460120BDE8F88FDFF8D9
:1016E00088A0DFF8A890DAF8002012681AB94FF045
:1016F000FF322A60E1E7DAF80020D268D668716824
:101700008C4201D22960D8E706F104084046FFF771
:1017100070F8B16A19B106F11800FFF76AF8F06ABB
:10172000D9F80030012202FA00F11943144BC9F82C
:1017300000104FF0140C41460CFB0030FFF736F858
:101740003868F16AC26A914228BF4FF0010BCAE7BC
:101750000D4A1368013313604FF0000BB7E700BF69
:1017600054040010C004001078030010CCCA00001C
:101770007C030010900400108C040010740300100F
:1017800080030010C4040010500400105C0400101A
:101790002DE9F8432F4C23682BB92F4940F68500DB
:1017A00004F0A0FBFEE7FEF795FE2368013B2360F3
:1017B00024682CB10024FEF7AFFE2046BDE8F88374
:1017C000264B1B68002BF5D0254D264EDFF8A88050
:1017D0001FE0EB68DC6804F1040904F11800FFF76E
:1017E00008F84846FFF705F8E26A3168012707FA6A
:1017F00002F314200B4300FB028049463360FEF7DE
:10180000D5FF194BE26A1B68DB6A9A4201D3174B7A
:101810001F602B68002BDCD10CB1FFF749FD144D84
:101820002C6844B1114E0127FFF720FF00B137604B
:10183000013CF9D12C600D4B1B68002BBAD00D4B2D
:101840004FF080521A60BFF34F8FBFF36F8F0124A8
:10185000B1E700BF5404001031CB00004C0400106D
:10186000940400105C04001074030010C404001001
:101870005004001004ED00E08003001008B540B9EA
:101880000D4B4FF080521A60BFF34F8FBFF36F8F35
:1018900008BD0A4B196829B1094940F23C5004F0CF
:1018A00021FBFEE7FFF7DAFEFFF77CFDFFF770FF95
:1018B0000028E5D0ECE700BF04ED00E05404001080
:1018C000A7C900002DE9F041054605F088FF0B2867
:1018D00005D9164940F67A1004F004FBFEE7FFF73D
:1018E000BDFEDFF858800A261427013E294607FB73
:1018F0000680FFF70DFC044690B9002EF5D10C4B85
:101900001868FFF705FC044650B90A4B29461868C9
:10191000FFF7FEFB044618B90748FFF7F9FB04463A
:10192000FFF736FF2046BDE8F08100BF9ACA0000ED
:10193000780300107C030010AC040010800300103A
:1019400038B5274B1A68274B12B101221A6038BDEF
:101950001A6004F0F3FA244A244C1568A84204D90A
:1019600021680B6D5B1B03440B65236810601B6BC8
:101970001A68B2F1A53F0BD15A68B2F1A53F07D161
:101980009A68B2F1A53F03D1DB68B3F1A53F04D05B
:1019900020682168343104F087FA154B1B68B3FACC
:1019A00083F3DBB2C3F11F03142212495A43881890
:1019B0008D582DB9104940F6B73004F093FAFEE780
:1019C000456808326D6845600A44954204BF6A68FC
:1019D0004260142202FB03135B68DB682360B6E7F6
:1019E00054040010C40400104804001074030010D4
:1019F0005C0400108003001000CA000070B50446AB
:101A00002A4EFEF767FD04B93468251D2846FEF707
:101A1000F0FE60B9E06A264B142141435B5833B9AC
:101A2000244901220B68824023EA02030B60A36A67
:101A30001BB104F11800FEF7DCFE29461E481F4DBD
:101A4000FEF7B4FE94F85830012B04BF002384F84D
:101A50005830FEF761FD2A682AB1FEF73BFDFFF71B
:101A600027FCFEF759FD3368A34212D12B688BB1D6
:101A7000134B1B682BB1134940F2E46004F032FAB7
:101A8000FEE7114B4FF080521A60BFF34F8FBFF348
:101A90006F8F70BD084A11680C4A1268914201D1DB
:101AA0003360F6E7BDE87040FFF74ABF74030010EB
:101AB000800300105C040010AC040010A8040010A7
:101AC00054040010A7C9000004ED00E04C0400100D
:101AD00010B50C4628B9084940F6CE3004F002FA99
:101AE000FEE7064B19681831FEF76CFE204601210F
:101AF000BDE81040FFF756BCC1C9000074030010D8
:101B000038B5C368DC682CB9164940F6294004F0A2
:101B1000E9F9FEE704F118052846FEF76AFE124BC4
:101B20001B68E3B9251D2846FEF763FE0F49E26AEC
:101B300008680123934003430B600D4B1420294692
:101B400000FB0230FEF732FE0A4BE26A1B68DB6ADA
:101B50009A4283BF084B01201860002038BD2946F7
:101B60000648EFE722CB0000540400105C0400108C
:101B70008003001074030010C404001094040010CB
:101B8000034B1B680360034B1B684360704700BF37
:101B900090040010C004001070B50C46054628B92A
:101BA000164940F6944004F09DF9FEE729B914491E
:101BB00040F6954004F096F9FEE7FEF78BFC114BDA
:101BC000196823685A1C10D00F482E6800686A688C
:101BD000864201D08A420FD9881A83420AD95B1AF9
:101BE000134423602846FFF7CBFF0024FEF794FC44
:101BF000204670BD002323600124F7E7F1C90000EF
:101C000047CA0000C004001090040010014B0122DC
:101C10001A607047C404001070B50C46164605469D
:101C200008B91B4A1568256005F134026260EA6A4A
:101C300022612A6BE2612A6CA260AA6C6261052BA8
:101C40002A6DA2611AD0124A1268AA420AD1002350
:101C50002373D6B1296B0023CA5CA52A13D09B0835
:101C6000238470BD032B2373F3D1FFF7F7FCAB6A1A
:101C70000BB102232373FFF78BFDEAE72846FFF73A
:101C80003BFC2073E5E70133E6E72684E9E700BF84
:101C9000740300102DE9F84F0D6881460C469346F9
:101CA00015B34B685B684B6001F10806B34204BF93
:101CB000CB684B604B68D3F80C8000254FF0240AAA
:101CC00063685B6863609E4204BF736863606368B7
:101CD000DF680AFB05915B4601223846FFF79CFF4F
:101CE000B84505F10105EBD12846BDE8F88FFFFFA7
:101CF0002DE9F04705469046FFF7B0FC1D4B1B68E9
:101D00008B4234D8DFF87C900A2700244FF0140A65
:101D10002426013F06FB045001220AFB0791FFF72E
:101D2000B9FF0444002FF4D1134B0222196806FBBB
:101D30000450FFF7AFFF114B04441968022206FB61
:101D40000450FFF7A7FF044406FB045003220C498C
:101D5000FFF7A0FF0444B8F1000F03D004F0EEF841
:101D6000C8F80000FFF714FD2046BDE8F087002406
:101D7000F8E700BF4C040010780300107C0300104B
:101D8000AC04001080030010054B1B6833B1054BF9
:101D90001B68002B0CBF02200020704701207047F9
:101DA000A8040010540400102DE9F0410446002856
:101DB00035D0234AC36A1168C96A8B42174636D2A6
:101DC0008269204D002AA1BF3A68D26AC2F10A0294
:101DD00082611426426906FB03539A4221D100F125
:101DE00004084046FEF705FD174B48B9E06A464334
:101DF000AA592AB91A680121814022EA01021A600F
:101E00003A681968D26AE262012404FA02F00843CF
:101E100018601420414600FB0250FEF7C7FC204624
:101E200003E03B68DB6AC3620120BDE8F081136810
:101E3000806CDC6AA0422CBF00200120F5E700BFC7
:101E400074030010800300105C040010F8B5044611
:101E500008B90020F8BD1F4B1B68834205D01E49FE
:101E600040F6D17004F03EF8FEE7DB6C2BB91B495D
:101E700040F6D27004F036F8FEE7C16A826C013B8E
:101E80009142C364E5D0002BE3D1051D2846FEF73F
:101E9000B0FC134E134A50B9E76A142179437358C2
:101EA0002BB913680120B84023EA00031360A36C28
:101EB000E362C3F10A01A1611168012404FA03F08D
:101EC00008431060142000FB03602946FEF76EFCF7
:101ED0002046BFE774030010F7CA00000DCB0000D6
:101EE000800300105C040010F8B50446002847D0B9
:101EF000C26C2AB923494FF4815003F0F3FFFEE787
:101F0000836C994238BF1946C36A8B4238D0012A84
:101F100036D11D4A1268824205D11C4941F23B006C
:101F200003F0E0FFFEE78269194DC162002A4FF01D
:101F300014064269A8BFC1F10A0106FB0353A8BFFA
:101F400081619A421CD1071D3846FEF752FCE26AB5
:101F5000104C40B95643AB592BB92368012191402D
:101F600023EA010323602168012393400B431420DB
:101F70002360394600FB0250BDE8F840FEF716BC6E
:101F8000F8BD00BF0DCB000074030010CDC90000E8
:101F9000800300105C040010044B1A681AB1196821
:101FA000CA6C0132CA641868704700BF740300101D
:101FB00070B5FFF753FB144D0A241426013C06FBB1
:101FC00004F3E818EB580BB1FFF7CCF8002CF5D16F
:101FD0000E4B1A68126812B11868FFF7C3F80C4B61
:101FE0001A68126812B11868FFF7BCF8094803684C
:101FF0000BB1FFF7B7F8084B00221A6003F0A8FFF7
:10200000BDE87040FFF7C4BB8003001078030010E8
:102010007C030010AC0400104804001010B503F05D
:102020008DFF064B064A196829B1196814680B6DB3
:102030001B1B03440B65106010BD00BF7403001030
:102040004804001008B503F079FF014B186008BD83
:102050004804001038B50D46044658B103290BD981
:102060000A46002104F0D2F923462A0A03F8022B7B
:1020700065701C46204638BD0024FBE710F8023C82
:1020800010F8010C40EA0320033880B2704708B50D
:10209000FFF7F4FF013080B208BD08B510B105F0BC
:1020A0009EFB80B208BD10B50446FFF7F6FF02465E
:1020B0002046FFF7E3FF824234BF0020012010BD1D
:1020C00004F0D2B800230370704710B50446FFF740
:1020D000DEFF13460A460146204606F087FA20EA4C
:1020E000E07080B210BD0EB403B503AA52F8041B11
:1020F0000192FFF7EAFF02B05DF804EB03B070470E
:102100000EB403B503AA52F8041B019206F0A0FA1C
:102110000028CCBF80B2002002B05DF804EB03B011
:10212000704738B505460C46084671B105F057FBB7
:1021300001462846FFF7A2FF89B28142024605D830
:102140002146284605F088FB012038BD0020FCE729
:1021500038B51546FFF77EFF044610B12946FFF754
:10216000E0FF204638BD2DE9F04105460F461446F4
:102170000AB3FFF792FFB84206461CD3204605F08B
:102180002EFB32188046284692B2FFF777FF824234
:1021900011D8C7F101023D44324492B2294605EB01
:1021A000080004F019F942462146284605F054FB80
:1021B0000120BDE8F0810020FBE770B506460C4623
:1021C000A9B1FFF76AFF0546204605F008FB82B279
:1021D000A918304689B2FFF751FF884207D3013270
:1021E00092B22146701904F0E9F8012070BD002078
:1021F000FCE707B500238DF8041001A98DF8053020
:10220000FFF7DBFF03B05DF804FB08B529B105F06B
:10221000BDFAB0FA80F0400908BD0846FCE770B589
:10222000064615460C4661B1FFF737FFA84208D3B2
:102230002A462146304605F0FDFAB0FA80F0400902
:1022400070BD0020FCE770B505460C4681B1FFF774
:1022500024FF0646204605F0C2FA8642024607D30E
:102260002146284605F0C4FAB0FA80F0400970BD56
:102270000020FCE72DE9F041074614460D46C9B1A0
:10228000C2B1FFF70AFF8046284605F0A8FA80454C
:1022900006460FD302462946384605F0CBFA48B920
:1022A000B85D237883421ABFB0FA80F0400901205C
:1022B000BDE8F0810020FBE710B50446FFF7EDFE16
:1022C00040B1013880B2205C0D2804D0A0F10A038F
:1022D0005842584110BD0120FCE770B50C46054638
:1022E0001646FFF7DAFEA04211D9011BB142C4F134
:1022F00001030A461844A8BF3246801A14FA82F134
:10230000294482B2281904F067F8012070BD00202A
:10231000FCE70A460021FFF7E0BF38B50C4605464A
:10232000FFF7BBFEA04224BF001B81B22246284615
:1023300038BF0021BDE83840FFF7CFBF10B50446D5
:1023400005F09DFA031E1FBF1B1B9BB2002201203C
:102350000CBF0020E25410BD10B5044605F032FA5F
:1023600038B1011B0131204689B2BDE81040FFF7AA
:10237000D0BF10BD70B50646054611480C462B4629
:1023800013F8011BC9B10A5C520714D524B12846C1
:1023900003F06AFF20600124094A294615F8013B31
:1023A00013B19B5C5B07F8D4891B89B23046FFF7F9
:1023B000B0FF204670BD1D46E1E70C46ECE700BFCC
:1023C0007BD80000F8B506460C46C9B1FFF765FE9C
:1023D0000546204605F003FA6B1E33442044013EB7
:1023E0000021B34202D02246824201D1012008E0FE
:1023F00012F8015B1F78AF42F6D103F80119F0E73C
:102400000846F8BD07B501220221002000F0F4F8CB
:1024100001220321002000F0EFF804220021012016
:1024200000F0EAF801210422084600F0E5F8042251
:102430001146012000F0E0F80821012000F032F9F7
:102440002B4B4FF480729A610921012000F00AF9A8
:1024500002220A21002000F0CFF802220B21ADF861
:102460000000002000F0C8F8ADF80400009800F06B
:10247000D2F8019800F0CFF80321022000F012F901
:102480001C4B00B21870C0F3072058701A210120AD
:1024900000F008F9184B00B21870C0F3072058700C
:1024A0001821012000F0FEF8144B00B21870C0F3A0
:1024B000072058701221012000F0F4F8104B00B2F0
:1024C0001870C0F3072058700A21012000F0CAF8E4
:1024D0000F21012000F0C6F81E21002000F0C2F8F4
:1024E0001D21002003B05DF804EB00F0BBB800BF75
:1024F00020800920CE040010CC040010CA04001073
:10250000C8040010024B4FF48072DA61704700BFBC
:1025100020800920024B4FF480729A61704700BFFF
:1025200020800920034B586980F40070C0F34020DC
:10253000704700BF20800920074B82B01B88ADF890
:1025400004309DF80430002063F307009DF8053047
:1025500063F30F2002B07047C8040010074B82B02D
:102560001B88ADF804309DF80430002063F30700A9
:102570009DF8053063F30F2002B07047CA040010C5
:10258000074B82B01B88ADF804309DF80430002062
:1025900063F307009DF8053063F30F2002B0704726
:1025A000CC040010074B82B01B88ADF804309DF8B6
:1025B0000430002063F307009DF8053063F30F201B
:1025C00002B07047CE04001082B0C3B2ADF8040070
:1025D000C0F30720800000EBC31000F1804000F53D
:1025E000303001F00701036823F00703036003683C
:1025F0001943016002B0704737B58DF801108DF8AE
:10260000000004460D4600981146FFF7DDFF44EA3E
:10261000052003B030BD82B0C3B2ADF80400C0F3F2
:102620000720800000EBC31000F1804000F530303F
:10263000036843F48063036002B0704782B0084BC4
:10264000ADF80400C0B2012253F820109DF8050037
:102650000B68824023EA02030B6002B0704700BFA0
:1026600048CB000037B58DF800008DF80110044606
:1026700000980D46FFF7E2FF44EA052003B030BDA5
:1026800082B0074BADF80400C0B253F820209DF88B
:1026900005001168012383400B43136002B07047AB
:1026A00048CB000037B58DF800008DF801100446C6
:1026B00000980D46FFF7E4FF44EA052003B030BD63
:1026C00082B0084BADF80400C0B29DF8051053F875
:1026D00020305A6901238B40134214BF012000208F
:1026E00002B0704748CB0000C2B2054BC0F30720D0
:1026F00053F82220012382B08340936102B07047D7
:1027000048CB0000C2B2054BC0F3072053F822208B
:10271000012382B08340D36102B0704748CB0000F0
:1027200007B5ADF804000198FFF7CAFF28B101987A
:1027300003B05DF804EBFFF7E5BF019803B05DF867
:1027400004EBFFF7D1BFFFFF18B90E4B5A69012008
:1027500003E0012805D10C4B5A69884010435861A9
:102760007047022801D1094BF0E7032801D1084B3B
:10277000ECE7042801D1074BE8E70528F0D1064B28
:10278000E4E700BF00800920208009204080092064
:102790006080092080800920A080092038B9104A73
:1027A00053690120884023EA0003536170470128E0
:1027B00006D10C4A5369884023EA000050617047F3
:1027C000022801D1084AEBE7032801D1074AE7E7CD
:1027D000042801D1064AE3E70528E7D1054ADFE7E7
:1027E0000080092020800920408009206080092085
:1027F00080800920A08009200AB1FFF7A5BFFFF75C
:10280000CDBFFFFFA0B1012814D0022814D00328A7
:1028100014D0042814D00B4B05280CBF18460020F8
:10282000426901238B40134214BF012000207047EE
:102830000548F5E70548F3E70548F1E70548EFE700
:102840000548EDE7A08009200080092020800920AC
:102850004080092060800920808009202DE9F04116
:102860000F4C04EBC00306461D7928460F469046E0
:1028700000F03CFA54F8364000233F2263604146A2
:10288000A360284622606361A361E36123626362FF
:1028900000F050FA0123E7606360BDE8F08100BFFB
:1028A00060CB0000074B53F8303030B501205C6935
:1028B00001EB4105A84020435861183343F821201B
:1028C00030BD00BF60CB0000034B53F83020012324
:1028D00003FA01F11160704760CB0000024B53F81E
:1028E00030309868704700BF60CB0000024B53F84F
:1028F00030309960704700BF60CB00002DE9F04197
:10290000044617461E468846FFF73EFA0021054654
:102910006068FEF7DDFA00232373069B6361079B63
:10292000A361236884F80D802022022DA7732661FD
:102930001A600BD140F6B8316068FEF7C9FA18B1D9
:10294000207BB0FA80F04009BDE8F081002160688A
:10295000FEF7BEFA0028F9D0F2E7FFFF13B50468CE
:102960006268502A034600F0AB801FD8182A6AD04C
:102970000FD8082A5CD0102A60D062681A7320220F
:10298000A261102222600822A2612268D206FCD431
:1029900065E0382A00F0A280402A00F08880282ACA
:1029A000EBD1427BD2076ED520233FE0A02A3CD05A
:1029B00014D8602A20D0802A26D0582ADDD1026976
:1029C000A1681170002282612022A261102222607F
:1029D0000822A2612268D106FCD440E0B82A03D0C4
:1029E000C02A22D0A82AC8D1587F421C5A7704F1A5
:1029F000080103F065F80DE0042222600822A261BC
:102A00000122027702B010BD027F32B100220277AC
:102A1000A26842770823A361F4E7407F421C5A77FB
:102A2000A168C9B203F05AF8F4E704232360F1E780
:102A3000437B03F0FE03A360A261E3E7437B43F023
:102A40000103A360E6E780692021A1610822C0B9E3
:102A5000A16110212160A2612268D106FCD400226C
:102A60005868019201A9FEF743F9019B002BC9D0D8
:102A70001C4B4FF080521A60BFF34F8FBFF36F8F24
:102A8000C0E79B7BD7E782694AB92022A261102266
:102A900022600822A2612268D006FCD4DFE74169E7
:102AA000013A11F8010BA06059619A61B2E783699C
:102AB0002022012BA2614FF00403B7D8A361A9E73C
:102AC0000269A16811700269013202618269013AEA
:102AD000012A82614FF00403A8D1EFE76268027314
:102AE000BDE700BF04ED00E00148FFF737BF00BFBE
:102AF000480000100148FFF731BF00BF2800001058
:102B00000148FFF72BBF00BF080000102DE9F0437C
:102B1000274B06461546884693E8070085B004AB68
:102B200003E9070040F60A33ADF800300C238DF8B6
:102B30000230204A730102EB0309D45804AB33443A
:102B400003220021012013F8107CFDF777FFC9F85C
:102B500004000120FEF75BF8C9F80800384600F0D1
:102B6000C5F86C23A361144A144B904588BF98465E
:102B70002823B5FBF8F25208C8215343B3FBF1F305
:102B800023613C235A430023B2FBF1F26261A3624A
:102B900063622362E3604023236004AB03EB860699
:102BA000384656F80C1C05B0BDE8F04300F0C2B83A
:102BB00080CB00000800001040420F00A0860100FA
:102BC0002DE9F3410F4690461D4623B900252846BE
:102BD00002B0BDE8F0810E4C04EB40144FF0FF3121
:102BE000A068FEF775F90028F0D00026089B019335
:102BF00042462B4647F0010100962046FFF77EFE35
:102C00003346054632463146A068FDF73DFFDEE714
:102C1000080000101FB500238DF80F30012300932A
:102C20000DF10F03FFF7CCFF9DF80F0005B05DF825
:102C300004FBFFFFF7B50E4617461D461BB90025DE
:102C4000284603B0F0BD0E4C04EB40144FF0FF31AA
:102C5000A068FEF73DF90028F1D0089B3A46CDE97F
:102C6000005306F0FE0100232046FFF747FE002335
:102C700005461A461946A068FDF706FFE0E700BFC3
:102C8000080000101FB5002200920DF10F038DF80F
:102C90000F20FFF7CFFF05B05DF804FB1FB58DF8DF
:102CA0000F30012300930DF10F03FFF7C3FF05B0B1
:102CB0005DF804FBFEE7FFFF08B5FFF7AFF9084B2F
:102CC000084A1B78103BDBB252F823309847064B7A
:102CD00000221A601B68BDE80840FFF7B3B900BFC7
:102CE00004ED00E068000010D0040010242809D88A
:102CF000054B064A185CD2F8C410012383400B43ED
:102D0000C2F8C430704700BF8CCB000000C00F4039
:102D100024289FBF054B064AD3F8C430105C9ABFE5
:102D200023FA00F000F001000020704700C00F40BF
:102D30008CCB0000074B43F8201043B2002B08DB7C
:102D4000012200F01F0002FA00F05B09024A42F87B
:102D5000230070476800001000E100E010B5044651
:102D6000FDF760FA4FF47A73B0FBF3F00223B0FB87
:102D7000F3F2A24202D8044A136110BDB3F5807F7A
:102D8000F9D00233F3E700BF0080084010B50446D5
:102D90000E20FFF7ABFF064B07221A605A6842F07D
:102DA000020220465A60BDE81040FFF7D7BF00BFBF
:102DB00000800840034B9860DA68D206FCD498681B
:102DC000C0B270470080084038B5124C0546242038
:102DD000FFF78CFF236843F007032360636843F029
:102DE00002036360FDF71EFA0B4B90FBF3F0022326
:102DF000B0FBF3F2AA4207D8226922F0FF02226157
:102E000022691343236138BDB3F5807FF4D00233C8
:102E1000EEE700BF00C00A4040420F0073B54FF01C
:102E2000FF33B1F5805F019336D21D4C2369DE0775
:102E300034D41C4B1D69ED0730D41B4D0326AE6006
:102E40002E611A4D1D6002B301AE5E6041F0004676
:102E5000DE6041F20F061E61DAB1206041F0806150
:102E600040F68112E16065602261114A516A41F0C9
:102E700003015162D868C0F30B000028FAD1536AED
:102E800023F00303536202B070BD586041F008465E
:102E9000DEE701AA2260E3E70120F4E70220F2E77F
:102EA00000010820200108200000082008C00A4076
:102EB00000C00A4010B50446FDF7B0F94FF47A732C
:102EC000B0FBF3F00223B0FBF3F2A24202D8034AB4
:102ED000136110BD0233DBB2F5E700BF00C00A404A
:102EE00010B504462420FFF701FF0B4B07221A60A0
:102EF00002225A602046FFF7DDFF1A20FFF7F6FE98
:102F0000064B01221A631A6BD207FCD5044A002330
:102F1000936042F8183C10BD00C00A400000082031
:102F200020010820034B9860DA68D206FCD4986828
:102F3000C0B2704700C00A400122FFF76FBF0022F5
:102F4000FFF76CBF02689368C3F34203022B73B5AB
:102F5000064623D0062B21D0012B34D100248DF836
:102F600003400194102501AA0DF103017068FEF7DA
:102F70006FF848B133689DF803201A70019B002B4D
:102F800018BF0124013DEED10CB3124B4FF080521B
:102F90001A60BFF34F8FBFF36F8F18E000240194C6
:102FA00033681A7DD207EFD51B788DF8033001AA5C
:102FB00000230DF10301B068FDF73CFE019B002BDF
:102FC00018BF0124ECE7137DDBB20193019B02B033
:102FD00070BD00BF04ED00E00148FFF7B3BF00BFC4
:102FE000300100100148FFF7ADBF00BF2401001001
:102FF0000148FFF7A7BF00BF180100100148FFF705
:10300000A1BF00BF0C010010134B70B5154606465A
:10301000185C0C462D01FFF769FEB4FBF5F307EED3
:10302000903AF8EE677AB6EE007A77EE877A0C205F
:10303000FCEEE77A7043094A17EE903A12589BB2B9
:1030400080211173190ADBB211711370102382F8F9
:1030500028300723137370BDC4CB00000C0100108F
:10306000074B10B50446185CFFF752FE38B10C2030
:103070006043044B1B58187B003018BF012010BD63
:10308000C4CB00000C010010044A0C2303FB0020F9
:103090004068003018BF0120704700BF0C010010CD
:1030A0002DE9F041054688461646FFF7D9FF074649
:1030B00018B900273846BDE8F081154C0C2303FBF6
:1030C00005439A6822B9B8F1000F01D0C3F808800F
:1030D0000C2303FB05435A680AB906B15E600C264F
:1030E0006E43A3199A68002AE3D05B68002BE0D0F6
:1030F000084B53F82510084B585DFFF71BFEA359EA
:1031000041221A7206221A7207225A60D2E700BFC1
:103110000C010010B4CB0000C4CB000038B50C2368
:103120004343074A0D46D458FFF79AFF30B1237D39
:103130009A06FCD52570237D9B06FCD538BD00BFC3
:103140000C01001070B5044615460E46FEF71CFE35
:103150000F4B0C2202FB0434A468B4B1022814D132
:103160006B1C09D04FF47A70A5FB00014FF47A7202
:10317000002302F0F7FE05462A4631462046FDF7B9
:1031800009FE003018BF012070BD0020FCE700BF21
:103190000C0100102DE9F84306460F46124DFEF7CC
:1031A000F3FD0C2404FB065381463046D3F8088017
:1031B000FFF756FFA0B1B9F1020F0AD1B8F1000F25
:1031C00007D0394630464FF0FF32BDE8F843FFF7ED
:1031D000B9BF74432B591A7DD207FCD51B783B70BD
:1031E0000020BDE8F88300BF0C010010F7B51F4DAB
:1031F0008DF8071007461646FEF7C6FD0C2303FBA5
:1032000007535C6864B302282DD1711C09D04FF4B8
:103210007A70A6FB00014FF47A72002302F0A2FE3E
:103220000646002332460DF107012046FDF72CFC2F
:10323000041C18BF0124FDF74DF90C2078432B180E
:103240002D582A7D520609D500220DF10701586834
:10325000FDF7FEFE10B19DF807302B70FDF75CF90D
:10326000204603B0F0BD0024FAE700BF0C010010B7
:103270002DE9F84F06461446884610461B49DFF8EC
:103280007C90DFF87CA0DFF87CB0FEF72CFFB36801
:1032900021464046984735680DB9BDE8F88F6F68FC
:1032A000384604F09CFA32288CBF514649463B46CA
:1032B0002A682046FEF717FF59462046FFF73EF8DA
:1032C0000B4907462046FFF739F807B918B10949F5
:1032D0002046FEF772FF08492046FEF76EFFB368EE
:1032E000214640469847ED68D6E700BFC8CB0000AE
:1032F0000FCC0000C9CD00000ECC000024CC000093
:1033000011CC000030CC000030B504294FF000058E
:1033100038BF04210560C0E90112C36030BD11B19E
:103320000368CB60016070472DE9F0411446054603
:103330000F4610464249FFF745F842492046FEF73E
:1033400082FF002833D03F492046FEF75EFF28B1B8
:10335000224639462846FFF78BFF68E020212046A9
:10336000FEF7FAFFDFF8F0802E680EB92E6810E045
:10337000424631682046FEF77DFF002838D1F668C6
:10338000F3E76A6831682046FEF749FF00282FD12D
:10339000F668002EF5D131462B4A2046FEF7E3FEB3
:1033A000AB68214638469847AB6825493DE02E6812
:1033B000DFF8A4800EB92E680EE042463168204640
:1033C000FEF758FFB8B9F668F4E76A683168204636
:1033D000FEF725FF78B9F668002EF6D131461B4A74
:1033E0002046FEF7C0FEAB68214638469847AFE757
:1033F000AB687168D6E720212046FEF7ADFFB368C1
:10340000AA6821463846984788B1114A00212046CB
:10341000FEF7A9FEAB682146384698470D49726809
:103420002046FEF760FEAB68214638469847E968BB
:1034300021B1AB683846BDE8F0411847BDE8F081DE
:103440000ECC000032CC000065CC00008ECC000019
:1034500037CC000048CC000098D6000010B54C1EB8
:1034600014F8010F00B910BD04F00EF8F8E7FFFFE3
:1034700070B5A0B006461B4A80216846FEF768FE7C
:103480000446304622460021FFF74EFF2046FEF755
:1034900019FE2046FEF710FF0028F2D102F068FF67
:1034A000C5B2082D16D12046FEF7F7FD60B1012107
:1034B0002046FEF732FF284603F0E6FF202003F007
:1034C000E3FF284603F0E0FF2046FEF7ECFD00286E
:1034D000DFD0D6E7284603F0D7FF29462046FEF77F
:1034E00088FEF1E732CC000030B589B004AD284643
:1034F000164B174A174C0421FFF706FF95E80F00FB
:1035000084E80F0020461449FFF709FF20461349BD
:10351000FFF705FF20461249FFF701FF204611493A
:10352000FFF7FDFE20461049FFF7F9FE0F4B02930F
:103530000F4B0193032300934FF4007223460D4970
:103540000D48FDF775FF09B030BD00BFBFCC0000CE
:103550005D340000D40400107C0100104C01001008
:103560003C0100106C0100105C010010E40C001024
:10357000E404001012CD0000713400002DE9F04386
:10358000E7B00DF198084FF4807281460E46404630
:10359000002102F03BFF802106A8FEF75BFD05AF8E
:1035A00001233B6005460024009704AB03AA204991
:1035B0004846CDE90344FEF7A3FD012831D93B6815
:1035C00000939DF810209DF80C1043460220FFF751
:1035D000F7FA8146E8B1039A1649DFF86490284665
:1035E000FEF781FD29462046B0473B68A34202D83A
:1035F00067B0BDE8F083049A18F8043000932244C1
:1036000049462846FEF76FFD29460020B0470134A1
:10361000EBE709492846FEF784FD29464846B047AE
:10362000E6E706492846FEF77CFD29462046F6E7F0
:1036300054CE000061CE000092CE0000BFCE00004C
:103640007BCE00002DE9F043E7B000240DF198088F
:103650004FF4807281460F4640462146CDE903442F
:1036600002F0D4FE802106A8FEF7F4FC04AB064667
:1036700003AA29494846FEF743FD022844D12021E8
:103680004846FEF769FE20214846FEF765FE059490
:1036900005A94846FEF76EFE0546D0B9009443469C
:1036A0009DF810209DF80C100220FFF7C3FA814608
:1036B00010B3039B1949DFF8709022463046FEF79D
:1036C00012FD31462846B847AC4207D167B0BDE885
:1036D000F083059B08F804300134D9E7049A18F800
:1036E000053000932A4449463046FEF7FCFC31463B
:1036F0000020B8470135E7E709493046FEF711FDDC
:1037000031464846B847E1E706493046FEF709FD2D
:1037100031462046F6E700BFFFCE000009CF00008B
:1037200040CF00006ECF000029CF0000F8B50D4655
:1037300028460E491646FEF786FD0D4904462846E2
:10374000FEF781FD202107462846FEF705FE2CB135
:1037500031462846FFF712FF0020F8BD27B1314659
:103760002846FFF76FFFF7E70120F6E700D70000D4
:103770004ECE00000123024A1A600020704700BFAD
:10378000EFBEADDE2DE9F04F89B0084604AF0D461F
:103790009146FEF795FC041E04DDFEF709FC204669
:1037A000FEF76CF8DAB00024FC6002F0C7FB0DF104
:1037B000100B786007F10C020A215846FEF798FAC0
:1037C000224A386022492846FEF78DFC29462046C9
:1037D000C847A0465E464FF0000A20E073694345A3
:1037E0001AD1B269FB68144423B16421B3FBF1F32D
:1037F000B2FBF3F3317BCDE90232338C9B00CDE990
:103800000083144B726853F8213013492846FEF7A1
:103810006AFC29460020C8470AF1010A24363B68A1
:103820005345DBD108F10108B8F10A0FD2D17B680A
:103830000A491A1B2846FEF756FC29460020C847AD
:1038400000201437BD46BDE8F08F00BF39D000001E
:103850003ED00000B8D0000069D0000086D0000043
:1038600010B507480C4600234FF0FF320068FDF703
:103870000BF92146034803F0EFFD002010BD00BF07
:103880001C140010C0CF000070B50C46204616492D
:103890001646FEF7D8FCA8B120212046FEF75CFDB5
:1038A0002046FEF70FF8054640B9104A2946204643
:1038B000FEF759FC21462846B04701E0FEF79EF886
:1038C000002070BD0A492046FEF7BDFC054648B100
:1038D00020212046FEF740FD2046FDF7F3FFFDF7CF
:1038E00041FEEDE7034AE1E7E0CF0000E8CF00004A
:1038F00009D0000010D0000042884378007843EAE5
:10390000022340EA032070470B0A017043700B0C3E
:10391000090E8370C170704710B5024410F8013B66
:1039200011F8014B9042A3EB040301D0002BF5D01A
:10393000184610BDC3690239023B8B4283BF4389DD
:10394000006B01FB030000207047024600F10B01F1
:103950000020C30143EA500312F8010B50FA83F32D
:103960008A42D8B2F5D1704702684AB1134613F8BB
:10397000011B1F290BD93A29F9D1911C8B4202D086
:103980004FF0FF3070471278302AF9D103600020E1
:10399000704701380A4411F8013B00F8013F914299
:1039A000F9D17047CA7E8B7E032843EA022301BF08
:1039B000487D0A7D42EA002243EA024318467047E6
:1039C000C2F307238A76CB760378032B01BF120C50
:1039D0000A75120A4A75704770B500F13806426BD5
:1039E000044601233146407801F0CBFA054688B9F8
:1039F000616BA36A226AE070CB1A934208D2A37863
:103A0000022B05D10A4401233146607801F0B9FA4E
:103A1000284670BD0125FBE738B5436B8B42044651
:103A20000D4619D0C3788BB901232A4604F1380119
:103A3000607801F092FA002818BF4FF0FF35034676
:103A400065630CBF03460123184638BDFFF7C4FF6A
:103A500003460028F8D1E7E70023F5E738B500234F
:103A6000C3704FF0FF3343630546FFF7D5FF0446AD
:103A700018BB95F8372295F8363243EA02234AF606
:103A8000552293421BD195F83830EB2B03D01833D5
:103A9000DBB2012B15D803220B4905F16E00FFF7AD
:103AA0003BFF40B10522094905F18A00FFF734FFC9
:103AB000002818BF0224204638BD0424FBE7032455
:103AC000F9E70224F7E700BF59D100005DD10000FB
:103AD0002DE9F043002385B00B600F461546FFF734
:103AE00043FF061EC0F23981A44B53F82640002C38
:103AF00000F03581206901F095F9002800F031814E
:103B00003C60237805F0FE056BB1607801F020FA87
:103B1000C10708D41DB110F0040500D00A252846BD
:103B200005B0BDE8F0830023F0B22370607001F0AF
:103B300001FAC20700F117810DB14307EED400214D
:103B40002046FFF78BFF022840F0EE806F4604F519
:103B5000FF7104F23E263D4611F8040C10B10846F0
:103B6000FFF7CAFE10318E4245F8040BF4D1002550
:103B700057F8046B002E00F0CE8031462046FFF748
:103B80006DFF012800F2C88094F8442094F8433077
:103B900043EA0223B3F5007F40F0CA8094F84F3027
:103BA00094F84E5055EA032504D104F15C00FFF768
:103BB000A3FE054694F8481025624B1E012BA17008
:103BC00000F2B68094F845901FFA89F36381002BC8
:103BD00000F0AE8009F1FF3313EA090F40F0A8802E
:103BE00094F84A3094F8497047EA03273FB21FFA25
:103BF00087F818F00F0FA4F8088040F0998094F827
:103C00004C3094F84B0050EA032003D104F15800E3
:103C1000FFF772FE94F8472094F8463053EA0223E7
:103C200000F0868005FB01FC03EB18126244904211
:103C30007ED3801A4845B0FBF9F179D350488142D0
:103C400076D84FF6F570814240F28F804FF003092D
:103C5000023133443244B9F1030FE1616662A36279
:103C6000226369D194F8632094F8623043EA022316
:103C70001F433FB2002F5BD104F16400FFF73CFE0D
:103C8000E062890001F2FF11B5EB512F50D34FF0E4
:103C9000FF33C4E90533B9F1030F4FF080032371FB
:103CA0002FD194F8692094F8683043EA0223012B5D
:103CB00027D1711C2046FFF7AFFE10BB94F83722C6
:103CC00094F83632207143EA02234AF65522934291
:103CD00017D104F13800FFF70FFE2A4B984210D19C
:103CE00004F50770FFF708FE274B984209D104F549
:103CF0000870FFF701FEA06104F50970FFF7FCFDF5
:103D00006061224A84F80090138801339BB21380CB
:103D1000E380002503E703200135042D7FF428AF5D
:103D2000042805D10125FAE60428FBD0012801D991
:103D30000D25F4E6002627E7B8F1000FF8D063441C
:103D4000B9F1020FE3624FEA41031BBF5B1801F0B8
:103D50000101194601EB530194E70B25DFE60C2521
:103D6000DDE60F25DBE60325D9E640F6F579494582
:103D70008CBF4FF002094FF0010969E7400D0010B8
:103D8000F5FFFF0F5252614172724161440D001004
:103D900001292DE9F04705460C46174672D9C3693B
:103DA0008B426FD90378022B3FD0032B50D0012BCD
:103DB00068D101EB5108816A01EB5821FFF72CFE15
:103DC000064638BB05F1380908F1010AC8F30808AE
:103DD00014F001041FBF19F8083003F00F023B0173
:103DE00003F0F00314BF1343FBB209F80830A96ACB
:103DF0000123EB7001EB5A212846FFF70DFE064622
:103E000040B9CAF3080A44B1C7F3071709F80A70A2
:103E10000123EB703046BDE8F08719F80A30C7F38C
:103E2000032723F00F031F43F0E7816A01EB1421FE
:103E3000FFF7F2FD06460028ECD1640005F13803D7
:103E400004F4FF741A191F55C7F307275770DFE7EB
:103E5000816A01EBD411FFF7DFFD06460028D9D1B6
:103E6000A40005F1380304F4FE741C442046FFF757
:103E700043FD27F0704700F0704139432046FFF7BB
:103E800043FDC5E70226C5E70129F8B505460C46FE
:103E900052D9C36999424FD20378022B29D0032B00
:103EA00038D0012B48D101EB5106816A01EB562134
:103EB000FFF7B2FD10B14FF0FF30F8BD771CA96AD3
:103EC000C6F308062E4401EB5721284696F83860C1
:103ED000FFF7A2FD0028EED1C7F308073D44E30732
:103EE00095F8380046EA00204CBF0009C0F30B00EB
:103EF000E3E7816A01EB1421FFF78EFD0028DAD198
:103F00006400383504F4FF742B19285D5B7840EAAF
:103F10000320D2E7816A01EBD411FFF77DFD002871
:103F2000C9D1A40005F1380004F4FE742044FFF761
:103F3000E3FC20F07040C0E70120BEE7B1F5001FB0
:103F4000F8B506460D4601D30220F8BDCA06FBD1DE
:103F5000826804683161CAB92378022B01D9E36A07
:103F60009BB92389B3EB551FEED9E36AB361B369FB
:103F70007261002BE8D003EB55233834C5F30805F4
:103F80002C44B361F4610020DFE71A4667897F02A1
:103F9000BD42114604D22046FFF7CCFCB061E6E7F3
:103FA0003068FFF771FF431C024606D00128CBD9C9
:103FB000E3698342C8D9ED1BEAE70120C5E72DE993
:103FC000F041804605680F4649B96E69C6B1EB6994
:103FD000B34298BF0126AB69A3B9002406E0284686
:103FE000FFF752FF0128044603D801242046BDE80C
:103FF000F081421C51D0EB698342F7D83E46EAE794
:104000000126E8E7BE4215D1EB69D8F80000741C20
:10401000A34298BF02242146FFF736FF0128E4D0CF
:10402000431C3AD0D8B16B69012B03D9EA6993429A
:1040300038BF1E463446EB690134A34202D8012E34
:10404000CBD902242146D8F80000FFF71DFF40B16C
:104050000128CAD0013020D0B442ECD1BDE7002CF9
:10406000E8D04FF0FF3221462846FFF791FE90B985
:1040700057B9D5E90632023A93426C6110D92B79CF
:1040800043F001032B71B1E7224639462846FFF77A
:104090007FFE0028EDD00128A7D14FF0FF34A5E71F
:1040A000013BAB61EBE7F8B50D46012D0746114624
:1040B00004682BD9E369AB4228D92AB14FF0FF320B
:1040C0002046FFF765FE30B929463868FFF7DCFE69
:1040D000064608B90020F8BD012817D0431C17D0A8
:1040E000002229462046FFF753FE0028F3D1D4E9E9
:1040F0000632911E8B4205D20133A361237943F02E
:1041000001032371B2423546DED8E3E70220E2E73D
:104110000120E0E740B1A1F10B03012B04D90F29E5
:1041200002D0006900F087BE704738B50D460446DE
:10413000F0B10368DBB11A78B2B18188DA889142B4
:1041400012D1186900F06EFE034698B123685878C2
:1041500000F0FEFE10F0010002D124682C6038BD92
:1041600000212068FFF7D6FF09200024F6E71C464F
:104170000920F3E70F201C46F0E7F8B5C3780446A2
:104180000D46C3B929462046FFF7D4FB04F1380693
:104190000746606304F50E723346002103F8011BE5
:1041A0009342FBD1002563899D420AD36089401B5D
:1041B00018BF0120F8BDFFF70FFC0028E2D0012056
:1041C000F8E701237A193146607800F0DAFE00281A
:1041D000ECD10135E7E72DE9F84307690568203799
:1041E000B7F5001F24BF0023836183690446894615
:1041F00073B1C7F30808B8F1000F39D14169013331
:10420000836139B92B89B3EB571F31D80023A361E0
:1042100004200BE06B89013B13EA572328D1284681
:10422000FFF732FE0128064602D80220BDE8F883D7
:10423000421C01D10120F9E7EB69834212D8B9F1A0
:10424000000FE3D061692046FFF7B9FE0646A8B12A
:104250000128EAD0431CEDD001462846FFF78DFF28
:104260000028E7D1666131462846FFF763FBA0616D
:10427000383545442761E5610020D7E70720D5E7B9
:104280002DE9F04F002185B00446D0F80080FFF7FB
:1042900055FE8146002840F08C804FF0FF334FF0F0
:1042A000FF0AE36257460093A1694046FFF7B4FB5B
:1042B000814600287DD1E5692E78002E7DD0EA7AEE
:1042C000E52E02F03F03A37103D0100704D50F2B96
:1042D00004D0009BE36252E00F2B57D194F82B30AF
:1042E000590642D4720648D5236995F80DA0E362B9
:1042F00006F0BF066B7B534541D1EA7EAB7E53EAA5
:1043000002233CD12F78D8F80CB007F03F077B1E72
:104310000D275F432A4B012113F8012BA81815F82C
:104320000290407849EA002959B37F2F039326D899
:10433000484600F0B9FD7A1C02903BF81700019244
:1043400000F0B2FD0299814219D1019A039B4946BE
:1043500017461C4A9A42DFD12B785B0603D511B170
:104360003BF817305BB9013EF7B200212046FFF75A
:1043700032FF8146002897D01BE0B742BAD0FF2712
:10438000F3E74FF6FF729145E3D0F8E727B92846E7
:10439000FFF7DBFA50450CD094F82B9019F0010987
:1043A00097D10B2204F120012846FFF7B5FA002827
:1043B0008FD1484605B0BDE8F08F4FF00409F8E70B
:1043C0004CD1000059D100002DE9F04F85B00368B1
:1043D000019306468A4611F8013B2F2BFAD05C2B3D
:1043E000F8D00021B1609AF800301F2B00F2CD8088
:1043F0008023304686F82B3005B0BDE8F04FFFF73C
:104400009DBD7F2807D8924A12F8013B1BB1984204
:10441000FAD106204EE0802DFBD02BF81500013597
:10442000B7E033F8022D202A02D02E2A40F0D480A3
:10443000013DCEE00246D7E0C84505D2AB4249D1A6
:10444000B9F10B0F3ED102E0B9F10B0F35D144F0B9
:1044500003044FF00B0996F82030E52B04BF052329
:1044600086F82030B9F1080F04BFBF00FFB207F093
:104470000C030C2B03D007F00303032B01D144F0F2
:104480000204A50707D4F80748BF44F010047907D1
:1044900048BF44F0080486F82B403046FFF7F0FE92
:1044A00096F82B3000285FD0042803D113F0040FB6
:1044B00008BF052005B0BDE8F08FAB4202D044F044
:1044C0000304C8D8BF00FFB22B464FF00B094FF0D2
:1044D0000808B9E07F2812D944F0020240F2B51171
:1044E0000393029200F0ACFC10F0800FDDE9022390
:1044F0000FD000F07F005749085C144628B1564998
:1045000011F8012BF2B18242FAD144F003045F208A
:1045100011E0FF28F1D909F1FF31884503D344F0B8
:104520000304C84690E006EB0801040A81F8204025
:1045300008F10108144606EB080208F1010882F8A8
:10454000200081E0A0F1410292B2192A02D847F07E
:104550000207F0E7A0F1610292B2192A9EBF20384B
:1045600047F0010780B2E6E75A07A3D4B379DB0628
:104570006CD5019B03F138013369C3F30803194477
:10458000019B1878FFF70EFAB0603368D3F80CB0CF
:1045900000251AF8010B68B140F2B51100F070FC6B
:1045A00000283FF436AF1F2804D92F2802D05C28FA
:1045B0007FF427AF524613782F2B924602F1010267
:1045C000F9D05C2BF7D0202834BF042400240BEB57
:1045D0004503002D7FF425AF00220BEB45032BF89C
:1045E0001520002D3FF415AF3BF81210202902F1E1
:1045F00001003FF41FAF0AB92E2901D144F0030492
:1046000033F8021D2E2901D0013DF9D106F1200316
:1046100006F12B01202003F8010B9942FBD14FF04A
:1046200000084FF0080947463BF81200531C0028C9
:104630003FF411AF202805D02E287FF4FDAEAB4209
:104640003FF4FEAE44F003041A46EDE7052031E7DF
:1046500063D10000CCD000006CD1000070B5C378ED
:104660000446002B45D12378032B39D12379012B24
:1046700036D104F1380604F50E723346002503F8EE
:10468000015B9342FBD1552384F83632AA2384F888
:10469000373252234122722184F8383084F839307D
:1046A000612384F83A3084F83B2084F81E2284F891
:1046B0001F3284F81C1284F81D1204F50870A169D9
:1046C000FFF722F9616904F50970FFF71DF9626AC5
:1046D0006078013262630123314600F052FC25719B
:1046E00000221146607800F060FC003018BF012005
:1046F00003E0FFF771F90028B5D070BD2DE9F04F48
:1047000090F82B4014F0A00489B0054640F08F804B
:104710000668F26832F81430002B66D105F12007E4
:104720000C22394605A8FFF734F99DF81F30DB0746
:1047300040F186804023DFF8448285F82B304FF02B
:10474000010A0B2205A93846D6F80C90FFF721F98B
:10475000BAF1050F5AD9A9F10201534631F8022FD7
:10476000002A44D10DF11300072203F00F0C0CF1C5
:104770003001392988BF0CF137010F2B00F80119DE
:1047800002F1FF324FEA131142D808AB13447E21E5
:1047900003F8141C05F11F0108460023934206D0BC
:1047A00010F801CFBCF1200F03F1010E32D1072A1E
:1047B0009CBF08A8801803F1010396BF10F8140CE1
:1047C00020200132072BC854F1D92846FFF758FDA5
:1047D000814678BB0AF1010ABAF1640FB1D14FF0FA
:1047E0000709484609B0BDE8F08F013492E7102070
:1047F00002F0010C0CEB430313F4803F18BF83EA73
:10480000080301384FEA5202F2D1A7E75346A9E75D
:104810000B46AAE77346C1E7804601212846FFF709
:10482000DAFC814610B3B9F1040FD8D0D9E74FF0C4
:104830000609D6E70428D4D19DF81F3085F82B301F
:104840009DF81F30D5F800A09B0748BF0C344FF0EF
:104850000001284649BF0D230124B4FBF3F40134C1
:10486000FFF76CFB81460028DDD18046A9695046E0
:10487000FFF7D2F881460028D5D1EB691B78E52BEC
:1048800001D0002BC8D108F101084445C5D1013C35
:1048900055D029692846A1EB4411FFF74FFB81460B
:1048A00000289ED13846FFF750F84FF6FF78019068
:1048B000A9693046FFF7B0F88146002891D1EB692D
:1048C000019AD6F80CE05A73E1B24FF00F024FF0A4
:1048D0000D0CDA72DFF8A8A018734A1E0CFB02F266
:1048E0009876D876844640451AF8019B18BF3EF862
:1048F000120003F8090003EB090B0CF1010C18BFBF
:1049000001324FEA1029002808BF4046BCF10D0FC4
:104910008BF80190E7D1404502D03EF812200AB949
:1049200041F0400119700123F37000212846FFF780
:1049300052FC814600287FF454AF013CB8D1A969EC
:104940003046FFF769F8814600287FF44AAFEB69EB
:10495000014603F1200203F8011B9342FBD10B2215
:104960003946E869FFF715F895F82B30EA6903F046
:10497000180313730123F37033E700BF2110010004
:104980004CD10000F0B585B0CDE9001003A8144665
:104990000391FEF7E9FF051E28DB154F57F8256048
:1049A0004EB1306900F039FA18B90224204605B03A
:1049B000F0BD00233370019979B9019B47F8253088
:1049C000002CF3D001A900226846FFF781F80446C5
:1049D00001460198FFF79EFBE8E7002301F8103B32
:1049E000E8B200F010FA0028E7D1DEE70B24DDE79B
:1049F000400D00102DE9F041D0B01746019104465A
:104A0000002800F0DB8002F03F052A4602A901A839
:104A1000FFF75EF8064600284BD1029B01990393ED
:104A20000FAADA6003A8FFF7CFFC20B99DF9373051
:104A3000002BB8BF062017F01C0F00F09F80002845
:104A400042D0042835D103A8FFF758FE88BB45F0B3
:104A50000805029BDDF8288018784146FEF7A2FF82
:104A6000074600F0B4FA014608F10E00FEF74CFFCD
:104A70000A9B02982022DA720A990022FEF7A0FF10
:104A80000A9B00221A775A779A77DA77029B0121DC
:104A9000D97017B3394603A8D3F83480FFF703FB66
:104AA00038B941460298FEF7B7FF029B013F5F61AC
:104AB00098B100232360064631460298FFF72AFB8F
:104AC000304650B0BDE8F0819DF8123013F0110F60
:104AD0005ED178076CD43907BBD4DDF808800A9F13
:104AE000D8F834302362676298F800002907394605
:104AF00048BF45F04005FEF755FFA06007F11C00D8
:104B0000FEF7FAFEB8F80630A38004F12807002368
:104B1000E060C4F8008025746374E361636104F5A8
:104B20000A713A4602F8013B9142FBD1AA06C3D56D
:104B3000E568002DC0D0B8F80A80A16865614FEA29
:104B40004828A84526D30020A1610028B1D1C5F38B
:104B50000803002BB0D0DDF808804046FEF7EAFEDF
:104B600050B300EB5522E2610123394698F8010069
:104B700000F0F3F900289FD001209AE7002898D18F
:104B80009DF81230DA0615D4BF07A6D5D807A4D5EC
:104B900007208EE72068FFF777F901280146A5EB8B
:104BA000080503D9431CCCD10120CDE70220CBE777
:104BB00008207EE704207CE702207AE709267FE7C9
:104BC0002DE9F04F9B4685B000238946CBF8003095
:104BD00003A904461646FFF7A8FA054608B9657CFE
:104BE00025B129460398FFF795FA08E0257C15F0D2
:104BF000010508D107210398FFF78CFA07252846FD
:104C000005B0BDE8F08FE3686769DF1BB74204F1C8
:104C1000280328BF374600932FB939460398FFF77A
:104C200079FA3D46EBE76269C2F30803002B76D1BF
:104C3000039B5B89013B13EA522313D12AB9A06875
:104C4000012809D802256574CBE7A1692068019382
:104C5000FFF71AF9019BF3E7421C02D101216174AD
:104C6000C0E7A061DDF80CA0A16901935046FEF7F2
:104C700061FE019B20B90225657429465046B2E7C2
:104C8000B7F5007F03EB00082BD37E0ABAF80A20A1
:104C90009AF801009919914288BFD61A33464246C4
:104CA000494600F05AF90028D8D194F91030002B69
:104CB0000BDAE069A0EB0800B04206D24FF40072B4
:104CC000009909EB4020FEF764FE7602DBF8003025
:104CD0003344CBF800306369BF1BB1441E446661A6
:104CE0009AE7E269424518D094F91030002B0BDAAC
:104CF000012300999AF8010000F043F90028ADD192
:104D0000237C03F07F0323740398009940780123E8
:104D1000424600F022F90028A0D1C4F81C80616945
:104D2000009BC1F30801C1F50076BE4228BF3E4694
:104D3000324619444846FEF72CFEC7E7F7B501A9ED
:104D40000446FFF7F2F90546002843D1237C13F00F
:104D500040053FD01B0614D50198E2694078012335
:104D600004F1280100F00DF938B101210198FFF795
:104D7000D1F90125284603B0F0BD237C03F07F0361
:104D8000237400F024F9216A07460198FEF744FED7
:104D90000546F8B9666AF37A43F02003F372A26815
:104DA00020683146FEF70CFEE16806F11C00FEF7B4
:104DB000ABFD394606F11600FEF7A6FD0198B57465
:104DC0000123F574C370FFF749FC237C23F04003F3
:104DD0000546237429460198FFF79CF9CAE737B5C1
:104DE0000546FFF7ABFF044650B901A92846FFF777
:104DF0009CF9044620B9286001460198FFF78AF91A
:104E0000204603B030BD10B501200C46FBF7FFFE75
:104E10002060003018BF012010BD08B5FCF766F90E
:104E2000012008BD08B540F6B831FCF751F8431E23
:104E30005842584108BD00231A461946FBF724BEC4
:104E40007F2810B501D880B210BDB0F5803F13D2D5
:104E500040F2B51399420FD10849002231F8024BB4
:104E6000844293B203D103F18000C0B2ECE7013277
:104E7000802AF3D11346F6E70020E5E722D40000AC
:104E80007F280DD940F2B513994208D1FF2806D8E2
:104E900000F10040034B803833F8100070470020C9
:104EA000704700BF22D40000B0F5803FF0B521D29A
:104EB0001E4A1F4983B2B0F5805F28BF0A46141D01
:104EC00034F8042C2146A2B1934212D334F8025C88
:104ED0002E0AEDB2AF18B84222DA082E09D8DFE860
:104EE00006F0050A10121416181A1C00801A34F85D
:104EF00010301846F0BD981A00F001001B1A9BB242
:104F0000F7E7103BFBE7203BF9E7303BF7E71A3BBD
:104F1000F5E70833F3E7503BF1E7A3F5E353EEE79A
:104F20000434002ECCD101EB4502C8E774D1000057
:104F300066D3000010B5044600F07EFC34B900F0E2
:104F40000FF9044600F092FC204610BD0424F9E756
:104F500008B900F0A3B904207047F8B507460C461D
:104F600015461E4600F068FC4FB92046F2B22946AD
:104F700000F09CF9044600F079FC2046F8BD0424BA
:104F8000F9E7F8B507460C4615461E4600F054FCF6
:104F90004FB92046F2B2294600F0CEF9044600F09F
:104FA00065FC2046F8BD0424F9E770B506460C46BA
:104FB000154600F041FC46B92046294600F010FA9B
:104FC000044600F053FC204670BD0424F9E700209D
:104FD000704738B500F09AFC00F5FA75FF20FDF730
:104FE000A1FFFF20FDF79EFFFF28044603D000F03D
:104FF0008DFC8542F5D8204638BDFFFF08B5FDF78A
:1050000081FAFFF7E6FFFDF785FA034A137843F0CC
:105010000103137008BD00BF8C01001038B50546B0
:105020000C46FFF7D6FFFF2821D12046FDF77AFF77
:10503000FD2C1ED0AC1C05F2022514F8020CFDF765
:1050400071FF023414F8030CFDF76CFFAC42F4D18D
:10505000FF20FDF767FFFF20FDF764FFFF20FDF74E
:1050600061FF00F01F00431F5842584138BD002027
:10507000FCE70120FAE737B5020604460D4607D5DE
:1050800000217720FFF7F7FF012831D804F07F04D3
:10509000FDF740FAFDF736FAFFF79BFFFF282BD10B
:1050A000402C27D0482C0CBF872301232A0E8DF8D3
:1050B00001202A0C8DF8022006212A0A68468DF864
:1050C00000408DF803208DF804508DF80530FDF771
:1050D00033FF4C2C02D1FF20FDF724FF0A24FF20D0
:1050E000FDF720FF030603D5013C14F0FF04F6D1C1
:1050F00003B030BD9523D9E7FF20F9E770B5054629
:1051000000F004FC00F16406FF20FDF70BFF0446ED
:1051100000F0FCFB864201D3FF2CF5D0FE2C0CD115
:105120004FF400712846FDF70AFFFF20FDF7FAFE55
:10513000FF20FDF7F7FE012070BD0020FCE7FFFF18
:1051400038B5064D2C78E4B2FDF7ECF918B104F04F
:10515000FD042C7038BD44F00304FAE78C01001004
:105160002DE9F341FFF7ECFF4A4B1A7812F0020FDA
:105170001E4604D01878C0B202B0BDE8F081C82045
:10518000FDF798FE0A25FF20013DFDF7CBFE15F047
:10519000FF05F8D1FDF7B6F929464020FFF76BFF70
:1051A0000128044671D100F0B1FB4FF4D57100F530
:1051B0007A774820FFF75FFF012848D101ADA84664
:1051C0000424FF20FDF7AEFE013C14F0FF0408F8B4
:1051D000010BF6D19DF80630012B56D19DF8073012
:1051E000AA2B52D100F092FB874206D94FF08041A2
:1051F000E920FFF740FF0028F4D100F087FB874249
:1052000043D900217A20FFF736FF00283DD104243E
:10521000FF20FDF787FE013C14F0FF0405F8010BA9
:10522000F6D19DF8043013F0400F14BF0C24042471
:10523000194B1C70FDF76EF94CB3337845F6C0502E
:1052400003F0FE033370FDF735FE307893E729460F
:10525000E920FFF710FF022836BFE9254125022487
:1052600000F054FB874205D900212846FFF703FFD1
:105270000028F5D100F04AFB874206D84FF40071B0
:105280005020FFF7F8FE0028D2D00024D0E7FFF727
:10529000B5FEDAE78C010010460D001008B5FFF7E7
:1052A0004FFF014B187808BD8C01001070B51446F3
:1052B00005460E46FFF744FF002C35D01C4B1B78EB
:1052C000DA0733D4FDF71EF91A4B1B781B0758BFBA
:1052D0007602012C314611D15120FFF7CCFE38B9AE
:1052E0004FF400712846FFF709FFB0FA80F4640913
:1052F000FDF710F9201C18BF012070BD5220FFF7E8
:10530000BAFE0028F4D14FF400712846FFF7F6FEEC
:1053100028B1013C14F0FF0405F50075F3D100211C
:105320004C20FFF7A8FEE3E70420E6E70320E4E7CC
:105330008C010010460D001070B5144605460E464F
:10534000FFF7FEFE002C41D0234B1A78D0073FD444
:105350001B7859073ED4FDF7D5F8204B1B781A0768
:1053600058BF7602012C11D131465820FFF783FE39
:1053700050BBFE212846FFF751FEB0FA80F46409C5
:10538000FDF7C8F8201C18BF012070BD13F0060FF0
:1053900003D02146D720FFF76EFE31465920FFF794
:1053A0006AFE0028ECD1FC212846FFF737FE28B121
:1053B000013C14F0FF0405F50075F4D1FD21002037
:1053C000FFF72CFE0028DBD10124D9E70420DCE71D
:1053D0000320DAE70220D8E78C010010460D001008
:1053E0007FB506460D46FFF7ABFE052E15D12C788E
:1053F000012C10D02CB1022C0AD00424204604B079
:1054000070BDFDF78FF80028F8D0FFF7F7FDF5E73E
:10541000FDF788F868700024F0E76F4B1C7814F0F3
:10542000010440F0D7800E2E00F2D280DFE806F0B3
:1054300008134E52D0D0D0D0D0D09DA1B0B3C4006C
:10544000FDF760F8FFF7C5FDB0F1FF0418BF0124B8
:10545000FDF760F8D2E700214920FFF70CFE044673
:1054600008B10124F4E710216846FFF747FE002841
:10547000F7D09DF800309DF808109B09012B9DF88E
:10548000093006D15A1C02EB012292B292022A6024
:10549000DEE79DF807209DF80A00920002EB9112CA
:1054A0009DF80610890201F4406101320A449DF81A
:1054B00005105B0001F00F0101EBD01103F00603B2
:1054C0000B44073B02FA03F32B60C1E74FF4007370
:1054D0002B80BDE7414E317811F004011CD0002132
:1054E000CD20FFF7C8FD0028BBD1FF20FDF71AFD36
:1054F00010216846FFF702FE0028B2D03024FF20BA
:10550000013CFDF70FFD14F0FF04F8D19DF80A30BF
:105510001A0910239340D7E74920FFF7ACFD044652
:1055200000289ED110216846FFF7E8FD002898D09A
:1055300032789DF80A309DF80B1092070AD55B006F
:105540009DF80D2003F07E0303EBD1139209013384
:10555000013ADFE7CA0002F01802C3F3840302EB4A
:105560005112013302FB0333AEE71C4B1B782B7047
:105570006EE700214920FFF77EFD00287FF471AF20
:1055800010212846FFF7BAFDB0FA80F464095FE7FE
:1055900000214A20EFE700217A20FFF76CFD044646
:1055A00000287FF45EAF2E1DFF20FDF7BBFC05F841
:1055B000010BAE42F8D14BE70021CD20FFF75BFD98
:1055C00000287FF44EAFFF20FDF7ACFC4021D8E768
:1055D00004243DE7032411E78C010010460D001060
:1055E00008B5064602F0FBF800240546A54200DC9B
:1055F000FEE7315D0020FDF791FD0134F6E7FFFF86
:1056000002280CD9074B1B685A68824207D09A6857
:10561000824204D0DB681B1A58425841704701206F
:10562000704700BF90010010F8B504460E461546BD
:10563000FFF7E6FF48B3164B1B68DB68A34210D0A8
:10564000A31E5C425C41FCF79FFB07460020FDF770
:105650001BFD022F17D1B0B1ACB9A54203DC28461F
:10566000F8BD0124EFE7315D4FF0FF320020FDF778
:10567000BDFD0134F1E7315D0020FDF74FFD013440
:10568000A542F8DCEBE70024FAE70248FFF7A8FFA1
:105690009001001054D5000008B5FFF7B1FF18B114
:1056A0000020FDF777FD08BD0148FFF799FF00BF17
:1056B00022D5000008B52A22192338210220FDF73F
:1056C000EDFA0D2238210220FDF7A4FAA0F12A03F9
:1056D0005842584108BDFFF7EDBFF8B504460D46E6
:1056E00000F0FEF8061941EB0507FCF74DFB022818
:1056F0000CD100234FF47A72AB4208BFA24205D20C
:105700002046294600F02EFCFCF7B8F800F0E8F837
:10571000B94208BFB042F9D3F8BD4FF47A73A0FB89
:105720000301FFF7DABFFFFF30B585B0FCF76AFE73
:10573000FCF702FFADF80800FCF710FFADF80A0017
:10574000FCF71EFFADF80C00FCF72CFF0024ADF8B1
:105750000E0004AA04F0030302EB4303013433F800
:10576000080CFCF7DDFF3220FFF7D7FF202CF0D12B
:1057700045F6C050FDF7B4FB002223492348FFF74C
:1057800001F9234B1868002319460222406801F0F2
:1057900015FFFAF747FD002501464FF41642002099
:1057A000FDF732FC00951B4B1B4A01212046FBF7FD
:1057B000FBF81A4B00950446194A01218020FBF79B
:1057C000F3F8224601462846FDF76AFC154A1649B9
:1057D0001648174D01F040FEFAF724FD1549024620
:1057E0000220FDF793F90224E1B20220FDF74AFA04
:1057F00018B12146284601F02FFE0234B4F5807F0F
:10580000F2D105B030BD00BF10CC0000B80D0010C3
:1058100090010010680D0010470D0010701000106E
:10582000F00F001087D5000098D50000E9D50000E2
:1058300006D60000801A060010B50A4C236823B96A
:1058400009490120FBF7CEF92060FCF79DFA0228F8
:1058500006D120684FF0FF31BDE81040FBF738BBA0
:1058600010BD00BFC0100010C410001010B5FCF730
:105870008BFA022808D1054800231A461946006809
:10588000BDE81040FBF700B910BD00BFC01000100C
:10589000074A08B513680021013308461360FDF775
:1058A00025F800210846BDE80840FDF70DB800BF07
:1058B0001411001008B5074A0749B0FBF1F10020A8
:1058C0000139FCF7CBFF0021044A0846BDE8084037
:1058D000FCF7E8BF9158000040420F000087930397
:1058E00070B5084E0020FCF7F9FF0546002034682B
:1058F000FCF7F4FF8542F5D8034B0021E3FB0401DC
:1059000070BD00BF141100100087930308B5FFF7A6
:10591000E7FF4FF47A72002300F024FB08BD70B556
:10592000054608460C4601F05AFF2618B44205D138
:1059300028460A21BDE87040FDF7F0BB14F8011BB2
:105940002846FDF7EBFBF1E72DE9F0473348344DEE
:10595000344FADF5C86D01F019FE2E46384601F002
:1059600015FE4FF0FF3202A92868FBF713FA002852
:10597000F4D002A92C4801F06FFD0023012202A9F6
:105980000DF583600193FFF735F8002841D1DFF86A
:10599000A880DFF8A890DFF8A8A0DDF82C24DDF8B7
:1059A00024349A422CD0404601F0F0FD4FF40072AE
:1059B000002186A800F02AFD01AB4FF4007206A971
:1059C0000DF58360FFF7FCF80446F0B906A95046D0
:1059D00001F042FD154801F0D9FD15484FF0FF32A6
:1059E00006A923460068FBF74FF84FF49670FBF7C3
:1059F00045FF224602A93068FBF7CCF90028CCD03D
:105A00000DF58360FFF7EBF9A8E7484601F0BEFD0E
:105A1000C3E7084801F0BAFDF2E700BF9ED60000D8
:105A20001C140010A1D60000AAD60000E1D6000088
:105A30002014001005D70000C5D60000EFD60000E6
:105A4000D3D600002DE9F041194E1A4FDFF86C80D3
:105A5000ADF5007D4FF0FF3269463068FBF79AF9EB
:105A60000028F7D04FF40071384601F0F5FC08210A
:105A70000020FCF7C7FEB8B100221A211046FCF73F
:105A8000BBFE6C4600252178404601F0E5FC01355F
:105A900014F8010BFDF78EF9B5F5007FF3D1012263
:105AA0001A210020FCF7A8FE034801F06FFDD1E7A2
:105AB0002014001077D600009AD600008FD6000080
:105AC000044B1B5C0B70044B5A68782A18BF5B6848
:105AD000012070471811001000000A40064B1954AD
