:1000000000000110E500000075010000590100002A
:100010007501000075010000750100007501000008
:100020007501000075010000750100000104000069
:1000300075010000750100000504000009040000BE
:10004000692D0000692D0000692D0000692D000058
:10005000692D0000692D0000692D0000692D000048
:10006000692D0000692D0000692D0000692D000038
:10007000692D0000692D0000692D0000692D000028
:10008000692D0000692D0000692D0000692D000018
:10009000692D0000692D0000692D0000692D000008
:1000A000692D0000692D0000692D0000692D0000F8
:1000B000692D0000692D0000692D0000692D0000E8
:1000C000692D0000692D0000692D0000692D0000D8
:1000D000692D0000692D0000692D0000692D0000C8
:1000E000692D000008B500F057F900F073F900F031
:1000F0007BF900F09BF800F095F805F007FC05F09F
:100100003FFB00F0BFF840B141F28734002505F015
:1001100029FC8D4208BF8442F9D205F008FB18B9CA
:100120000849094807F062F80649084807F05EF8F0
:1001300005F018FD064B07481B68D96805F0DAFF83
:10014000FEE700BF40BF00004CBF000079BF0000C9
:100150009001001091BF00001EF0040F0CBFEFF3E0
:100160000880EFF309808169004A1047D10100003F
:100170007047FFFF38B50F4C0F4B10481D782368B0
:10018000D96805F0B7FF23680D49D8682A4605F0FD
:1001900039FF0F2D236807D80A4A0B4952F825204A
:1001A000D86805F02FFFFEE7D968084805F0A2FFE0
:1001B000F9E700BF9001001004ED00E0CCBF0000A3
:1001C000E6BF0000D8C0000020C000003EC0000014
:1001D00010B5044600F04AF8236883606368C36082
:1001E000A3680361E3684361236943626369013B78
:1001F000C361A3698361E3690362BFF34F8F05495C
:10020000054BCA6802F4E0621343CB60BFF34F8F23
:1002100000BFFDE700ED00E00400FA05004870476C
:1002200000D8B8050048704700D8B8050E4B072223
:10023000C3F88420AA210122C3F88020C3F88C10BF
:100240005521C3F88C10C3F8A821D3F88820520593
:10025000FBD51A6822F4704242F480421A6040F2E0
:100260000112C3F80421704700C00F400248034A3E
:10027000034BC0E90023704700000020EFBEADDE55
:100280001041522138B5224C224B22689A423DD16E
:100290006268214B9A4239D1204D21482B68D96898
:1002A00005F028FF2B68A2691E49D86805F0AAFE50
:1002B0002B68E2691C49D86805F0A4FE2B68226A05
:1002C0001A49D86805F09EFE2B68A2681849D868BC
:1002D00005F098FE2B68E2681649D86805F092FE92
:1002E0002B6822691449D86805F08CFE2B68626976
:1002F0001249D86805F086FE2B681148D96805F0C8
:10030000F9FE01200023C4E9003338BD0020F9E7DD
:1003100000000020EFBEADDE104152219001001020
:1003200018C100006BC100007AC1000089C1000043
:1003300098C10000A7C10000B6C10000C5C10000FF
:10034000D4C100000E4A136810B50E4C1918A14212
:10035000116002D30C4CA1420BD313600B4A0C4921
:1003600013681844884208D30A49884205D21060AD
:1003700001E0002BF2D0184610BD0023FBE700BFC0
:100380000000001028000020008000200400001061
:100390002C14001000000110094A0A4B0A498B4234
:1003A00005D30A4B0A4A0021934205D3704712F83D
:1003B000010B03F8010BF2E703F8011BF4E700BFA0
:1003C00014D900000000001064030010680300103E
:1003D0002C140010034AD2F8883043F47003C2F89A
:1003E0008830704700ED00E0044800232021C21847
:1003F0000133292B82F80013F9D1704700E100E0A6
:1004000000F056B800F09CB800F0CCB8084800687E
:10041000006880F308884FF0000080F3148862B60B
:1004200061B6BFF34F8FBFF36F8F00DF00BF0000D7
:1004300008ED00E0DFF80C00016841F47001016094
:100440007047000088ED00E007B5002301930B4BD7
:100450001B68013304D00A49EF2005F00DFCFEE7CC
:100460004FF0180383F31188BFF36F8FBFF34F8FE3
:10047000019B002BFCD003B05DF804FB700300105F
:10048000A8C200004FF0807340F8043C074B40F8CE
:100490000C3C21F001016FF0020340F8081C40F809
:1004A000202C40F8243C4438704700BF4904000029
:1004B000074B19680868B0E8F04F80F30988BFF36C
:1004C0006F8F4FF0000080F311887047AFF300800A
:1004D0007403001008B54FF0180383F31188BFF3BD
:1004E0006F8FBFF34F8F094A13680133012B1360DD
:1004F0000AD1074B1B6813F0FF0F05D0054940F2E6
:10050000AB1005F0B9FBFEE708BD00BF700300109B
:1005100004ED00E0C2C20000074A08B513682BB919
:1005200006494FF4D97005F0A7FBFEE7013B1360C5
:100530000BB983F3118808BD70030010F7C20000E7
:10054000EFF30980BFF36F8F154B1A681EF0100F81
:1005500008BF20ED108A20E9F04F10602DE9090056
:100560004FF0180080F31188BFF34F8FBFF36F8FE8
:1005700001F0E6F94FF0000080F3118809BC19681A
:100580000868B0E8F04F1EF0100F08BFB0EC108AFA
:1005900080F30988BFF36F8F704700BFAFF300800F
:1005A0007403001008B54FF0180383F31188BFF3EC
:1005B0006F8FBFF34F8F01F059F818B1034B4FF015
:1005C00080521A60002383F3118808BD04ED00E017
:1005D00010B5084A084C002323601360FFF71EFE85
:1005E0004FF47A73B0FBF3F0044B01381860072323
:1005F000236010BD18E000E010E000E014E000E02F
:10060000334B344A13B51968914205D132494FF43E
:100610009A7005F031FBFEE71A68304B9A4205D11B
:100620002F4940F2351005F027FBFEE72D4B1A78D5
:10063000D2B20192FF221A701B782B4ADBB28DF8DE
:1006400003309DF8033003F018031370274A072383
:10065000136000219DF80300000603F1FF3409D464
:1006600011B1022B13600ED0214940F25D1005F04C
:1006700003FBFEE79DF803305B00DBB28DF803302F
:1006800001212346E6E74FF400731360019B154AEE
:10069000DBB21370174B1A6842F478021A601A68BA
:1006A00042F078421A60FFF793FF134B00241C605E
:1006B000FFF7C0FE114A136843F040431360FFF791
:1006C000A5FE01F03DF9FFF7BFFE204602B010BDC8
:1006D00000ED00E071C20F4175C3000070C20F4110
:1006E00098C3000000E400E0680300106C030010F1
:1006F000BBC3000020ED00E07003001034EF00E009
:1007000008B5EFF305830F2B0BD90D4A9B5C0D4AFF
:1007100012789A4205D90C4940F2FE2005F0ACFA55
:10072000FEE70A4B0A4A1B68126803F4E06393422F
:1007300005D9084940F20E3005F09EFAFEE708BDE3
:10074000F0E300E06803001009C300000CED00E0D6
:100750006C03001033C3000010B5044600F07EFFA8
:10076000204605F0E5FC044601F012F80CB905F04E
:1007700073FA204610BD10B5044640B100F06EFF7C
:10078000204605F0DDFCBDE8104001F001B810BDC9
:1007900000F108034FF0FF324360C0E90223036118
:1007A00000230360704700230361704743684B6078
:1007B0009A688A609A685160996003680861013399
:1007C000036070470A68531C30B50AD103695A6840
:1007D0004A6091608B60596003680861013303606F
:1007E00030BD00F108035C6825689542EFD82346C8
:1007F000F9E7D0E9011203698A60516059688142C2
:1008000008BF5A60002202611A68013A1A6018682B
:10081000704710B50446FFF75DFEA46BFFF77CFE42
:10082000B4FA84F0400910BDF8B51546026C866B29
:10083000044652B9076847BB806801F007FBA76010
:1008400005460136A6632846F8BD65B9406805F03F
:100850007FFC6368226C1344A26863609342F0D308
:1008600023686360EDE7C06805F072FC236CE26802
:1008700021685B421A448A42E2603EBFA2689B182C
:10088000E360022D01D116B1013E0025D9E73546BE
:10089000D7E7034610B41A6C084662B1D9689C6861
:1008A0001144A142D96024BF1968D960D9685DF8A4
:1008B000044B05F04DBC5DF8044B704770B5044621
:1008C000FFF708FE94F8455004F124066DB2002DA0
:1008D00014DCFF2384F84530FFF71EFEFFF7FAFD16
:1008E00094F8445004F110066DB2002D12DCFF2381
:1008F00084F84430BDE87040FFF70EBE636A002BF9
:10090000E7D0304601F0FCF808B101F07FF9013D75
:100910006DB2DCE72369002BE9D0304601F0F0F836
:1009200008B101F073F9013D6DB2DEE738B50D464F
:10093000044628B91A4940F2031005F09DF9FEE774
:10094000FFF7C8FDD4E90F30226862604343D11835
:100950001B1A1344A160E3600021FF23A16384F804
:10096000443084F8453095B9236963B104F110002F
:1009700001F0C6F838B10B4B4FF080521A60BFF34C
:100980004F8FBFF36F8FFFF7C7FD012038BD04F114
:100990001000FFF7FDFE04F12400FFF7F9FEF2E777
:1009A000C1C4000004ED00E013B51C4628B91E497F
:1009B0004FF49D7005F060F9FEE72BB91B494FF429
:1009C0009F7005F059F9FEE732B161B918494FF44B
:1009D000A17005F051F9FEE729B1164940F2431024
:1009E00005F04AF9FEE750230193019B502B05D0F7
:1009F000114940F24B1005F03FF9FEE7002908BF0E
:100A00002246019B22600123C4E90F0184F846308D
:100A100019462046FFF78AFF9DF8103084F84C30C5
:100A2000204602B010BD00BFFEC3000020C400007D
:100A300036C400006EC40000A6C40000F8B50D4620
:100A40001746064628B90F494FF4BB7005F014F954
:100A5000FEE748435030FFF77FFE044670B10023A5
:100A600080F8463065B100F150032360C4E90F659A
:100A700001212046FFF75AFF84F84C702046F8BD4C
:100A80000346F2E7FEC300002DE9FF4788460192C6
:100A90001F46044628B94E4940F2F12005F0ECF813
:100AA000FEE739B9036C2BB14A4940F2F22005F058
:100AB000E3F8FEE7022F08D1E36B012B05D046498E
:100AC00040F2F32005F0D8F8FEE701F05DF90646A4
:100AD00038B9019B33B1414940F2F62005F0CCF81A
:100AE000FEE700264FF00009DFF8F4A037E0019D93
:100AF0001DB9FFF711FD002050E016B902A801F062
:100B00003FF8FFF709FD00F0A9FDFFF7E3FC94F8BB
:100B10004430FF2B08BF84F8449094F84530FF2BF5
:100B200008BF84F84590FFF7F7FC01A902A801F07F
:100B300033F8002846D1FFF7CDFCA26BE36B9A4255
:100B40002FD1FFF7E9FC019904F1100000F0C0FF7C
:100B50002046FFF7B3FE00F01BFE50B30126FFF75F
:100B6000B9FCA26BE36B9A4201D3022FBFD13A4684
:100B700041462046FFF758FE636A1BB104F124008A
:100B800000F0BEFF38B1164B4FF080521A60BFF331
:100B90004F8FBFF36F8FFFF7BFFC012004B0BDE89C
:100BA000F087FFF7B9FC2046FFF788FE00F0F0FD64
:100BB000D4E74FF08053CAF80030BFF34F8FBFF334
:100BC0006F8FCBE72046FFF779FE00F0E1FD92E75B
:100BD000C1C40000C9C4000019C5000060C5000000
:100BE00004ED00E013B5002200900B4601201146F1
:100BF000FFF7DAFE044638B1002383600360C36068
:100C00001A461946FFF740FF204602B010BD10B546
:100C1000024600210120FFF711FF044638B10023EE
:100C200083600360C3601A461946FFF72DFF204614
:100C300010BDFFFF2DE9F843894690461F46044644
:100C400028B9284940F2C33005F016F8FEE739B953
:100C5000036C2BB124494FF4717005F00DF8FEE7D9
:100C6000022F08D1E36B012B05D0204940F2C5309B
:100C700005F002F8FEE7FFF743FDEFF311864FF0B2
:100C8000180383F31188BFF36F8FBFF34F8FA26BED
:100C9000E36B9A4201D3022F22D194F845503A4691
:100CA0006DB249462046FFF7BFFD6B1C13D1636A46
:100CB0000BB901200BE004F1240000F021FF002813
:100CC000F7D0B8F1000FF4D00120C8F8000086F387
:100CD0001188BDE8F88301356DB284F84550E8E726
:100CE0000020F4E7C1C40000C9C4000019C5000019
:100CF00070B50D46044628B923494FF48C6004F0C2
:100D0000BBFFFEE7036C2BB1204940F2644004F0C6
:100D1000B3FFFEE703683BB983682BB11C4940F27F
:100D2000694004F0A9FFFEE7FFF7EAFCEFF3118644
:100D30004FF0180383F31188BFF36F8FBFF34F8F0A
:100D4000A26BE36B93421CD994F8453001325BB23D
:100D5000A2635A1C10D1636A0BB9012009E004F1A7
:100D6000240000F0CDFE0028F7D0002DF5D00120A2
:100D7000286086F3118870BD01335BB284F845307A
:100D8000EBE70020F5E700BFC1C40000B6C50000D6
:100D9000CFC500002DE9F04385B00F46019204460F
:100DA00028B947494FF4A06004F066FFFEE739B95F
:100DB000036C2BB1434940F2045004F05DFFFEE7A1
:100DC00000F0E2FF064638B9019B33B13E4940F2DC
:100DD000095004F051FFFEE700264FF00008DFF84D
:100DE000EC903BE0019D1DB9FFF796FB002052E01F
:100DF00016B902A800F0C4FEFFF78EFB00F02EFC2F
:100E0000FFF768FB94F84430FF2B08BF84F8448058
:100E100094F84530FF2B08BF84F84580FFF77CFB32
:100E200001A902A800F0B8FE00283DD12046FFF736
:100E3000F0FC98B3019904F1240000F049FE20462B
:100E4000FFF73CFD00F0A4FC38B94FF08053C9F81F
:100E50000030BFF34F8FBFF36F8F0126FFF73AFBD0
:100E6000A56B002DBED039462046013DFFF711FD90
:100E7000A563236963B104F1100000F041FE38B1AD
:100E8000124B4FF080521A60BFF34F8FBFF36F8F3A
:100E9000FFF742FB012005B0BDE8F0832046FFF7D5
:100EA0000DFD00F075FCD8E72046FFF707FD00F0C8
:100EB0006FFC2046FFF7ADFC0028CED096E700BFC0
:100EC00036C6000042C6000060C5000004ED00E028
:100ED0002DE9FF410446019128B9584940F291504B
:100EE00004F0CAFEFEE7056C2DB1554940F295505D
:100EF00004F0C2FEFEE700F047FF064638B9019B4A
:100F000053B1504940F29A5004F0B6FEFEE72E4627
:100F10000027DFF838814EE00546F9E7019B4BB921
:100F20002DB1494940F2E15004F0A6FEFEE7FFF77B
:100F3000F3FA5EE016B902A800F022FEFFF7ECFA21
:100F400000F08CFBFFF7C6FA94F84430FF2B08BF83
:100F500084F8447094F84530FF2B08BF84F845703E
:100F6000FFF7DAFA01A902A800F016FE00284AD11C
:100F70002046FFF74EFC00283FD023683BB9FFF71F
:100F8000A9FAA06800F010FF0546FFF7C5FA01991D
:100F900004F1240000F09CFD2046FFF78FFC00F0D8
:100FA000F7FB38B94FF08053C8F80030BFF34F8FCC
:100FB000BFF36F8F0126FFF78DFAA36B002BADD027
:100FC000013BA363236813B900F0E6FFA060236927
:100FD00063B104F1100000F093FD38B11B4B4FF0EA
:100FE00080521A60BFF34F8FBFF36F8FFFF794FAF1
:100FF0000125284604B0BDE8F0812046FFF75EFCDD
:1010000000F0C6FBD6E72046FFF758FC00F0C0FB17
:101010002046FFF7FEFB0028CCD0002DE9D0FFF7DB
:1010200059FA616A19B1236B1968C1F10A01A06804
:1010300000F05AFF0025FFF76FFADAE736C6000026
:10104000B6C5000060C50000E0C6000004ED00E089
:101050002DE9F84389469046054628B9214940F2D2
:10106000FB6004F009FEFEE739B9036C2BB11E49A1
:1010700040F2FC6004F000FEFEE7FFF741FBEFF3F7
:1010800011874FF0180383F31188BFF36F8FBFF3FD
:101090004F8FAC6B1CB395F84460494676B2284636
:1010A000FFF7F7FB013C731CAC6313D12B690BB941
:1010B00001200BE005F1100000F022FD0028F7D020
:1010C000B8F1000FF4D00120C8F8000087F31188B0
:1010D000BDE8F883013676B285F84460E8E720463B
:1010E000F4E700BFC1C4000095C6000008B528B9E8
:1010F000064940F2B77004F0BFFDFEE790F84630B5
:101100001BB9BDE80840FFF736BB08BDC1C40000ED
:101110000268F0B503461AB342685068586003F19C
:101120000802904204BFD86858605868C768586879
:1011300040685860824204BF506858605868C06870
:101140004D1E00F1340400F1400C14F801EB15F8C9
:10115000016F764502D126B16445F6D18742E6D1CA
:101160000020F0BD43685B68436000F108029342D1
:1011700004BFC3684360436830B5DC6800255B6822
:101180009A4208BF5368D9688C420D65F7D1436015
:1011900030BDFFFF2DE9F0410446FFF79BF92D4BD1
:1011A0002D4D1A682D4F01321A602E68002E46D13F
:1011B0002C601B68012B1CD1B84640460136FFF756
:1011C000E7FA0A2E08F11408F7D1DFF8B880244EA8
:1011D0004046FFF7DDFA3046FFF7DAFA2148FFF71D
:1011E000D7FA2148FFF7D4FA204BC3F80080204BF0
:1011F0001E60204A20491368086801331360E26AC0
:10120000236401239340034314200B6000FB02700E
:10121000211DFFF7CBFAFFF77FF9184B1B6863B16D
:101220002B68DA6AE36A9A4207D2154B4FF0805274
:101230001A60BFF34F8FBFF36F8FBDE8F0810F4B84
:101240001B68002BD5D12B68DA6AE36A9A4298BFF3
:101250002C60CEE74C0400107403001080030010D3
:101260007404001094040010AC0400107803001003
:101270007C030010580400105C040010A804001047
:1012800004ED00E06004001008B5074C074D4FF076
:1012900080562368012B04D92E60BFF34F8FBFF314
:1012A0006F8F04F0E1FCF4E78003001004ED00E030
:1012B000064A13681968064B19B94FF0FF321A60D5
:1012C00070471268D268D2685268F8E77803001055
:1012D0008C04001008B528B9094940F20E7004F0DA
:1012E000CBFCFEE74269074B9A4207D1806A064B66
:1012F000984203D0B0FA80F0400908BD0020FCE716
:1013000006C70000AC040010940400102DE9F0475B
:10131000DDE909644FEA82094A4607460D46206B1B
:10132000A521984604F03CFF236BA9F104099944D8
:1013300029F007099DB36B1E04F134020B3513F835
:10134000011F02F8011B09B1AB42F8D1002384F858
:101350003F30089D092D28BF09254FF0000AE5629E
:10136000A564201DC4F84CA0FFF71DFAC5F10A05BD
:1013700004F11800FFF717FAC4F854A02461A5611E
:101380006462C4F850A084F858A0424639464846E2
:10139000FFF778F8206006B13460BDE8F08784F884
:1013A0003450D6E7F8B51B4B1B4E1C680546306819
:1013B00004300F46FFF71DFA334640B93168174E27
:1013C000C96A32680120884022EA000232606A1C41
:1013D00007D137B1196812480431BDE8F840FFF76A
:1013E000E5B91A686419546007D30E4A1068196881
:1013F000BDE8F8400431FFF7E5B90B4A10681968F9
:101400000431FFF7DFF9094B1A68A24288BF1C605C
:10141000F8BD00BFC0040010740300105C0400108D
:10142000AC0400107C030010780300108C04001042
:1014300070B586B0DDE90B542DB9154940F24D2049
:1014400004F01AFCFEE72CB9124940F24E2004F0D9
:1014500013FCFEE75C260596059E5C2E05D00E4922
:1014600040F2562004F008FCFEE72563022584F8CC
:10147000595004AD01950A9D02940095059EFFF711
:1014800045FF2046FFF786FE049806B070BD00BFFA
:10149000E5C70000FCC7000011C800002DE9F043BB
:1014A000074685B09000884616469946FFF754F9DE
:1014B0000546E8B15C20FFF74FF90446A8B10023C8
:1014C00080F859300D9B056301930C9B02900093AB
:1014D00032464B4641463846FFF718FF2046FFF795
:1014E00059FE012005B0BDE8F0832846FFF743F917
:1014F0004FF0FF30F6E7FFFFF8B5044628B914496E
:101500004FF4AD6004F0B8FBFEE7124B1B6883425A
:1015100018D0FEF7DFFF104B65691F680F4B1E6880
:10152000FEF7FAFFBD4211D0B5420FD00C4B9D42E1
:101530000AD1A36A53B994F85830012B0CBF02208A
:101540000320F8BD0020FCE70120FAE70220F8E7BD
:1015500000C7000074030010780300107C03001023
:10156000AC04001070B5044628B91A494FF4E7607E
:1015700004F082FBFEE7184D2B68834228D0FEF76B
:10158000A9FF2046FFF7A6FEF0B1261D3046FFF763
:1015900030F91249E26A08680123934003430B6063
:1015A0000F4B142000FB02303146FFF7FFF82B6889
:1015B000E26ADB6A9A4207D30A4B4FF080521A6004
:1015C000BFF34F8FBFF36F8FBDE87040FEF7A4BF2E
:1015D00070BD00BF73C70000740300105C040010EE
:1015E0008003001004ED00E010B588B0002407AAC5
:1015F00006A905A8CDE9054404F05EFB059B02930E
:10160000069B079A0F491048CDE900432346FFF790
:101610000FFF0E4B186090B14FF0180383F3118841
:10162000BFF36F8FBFF34F8F094B4FF0FF321A603C
:10163000084B01221A60084B1C60FEF7E1FF08B05E
:1016400010BD00BF8BC70000891200008804001085
:101650008C040010A8040010C0040010024A136893
:1016600001331360704700BF540400102DE9F84F98
:101670003B4B1B68002B6BD13A4B1C6801341C6040
:10168000A4B9394B1A6812682AB1384940F67F204C
:1016900004F0F2FAFEE7364A196810681860116023
:1016A000344A136801331360FFF702FE324D334FA3
:1016B0002B68A3424FF0000B11D93A68304BD16A26
:1016C00014224A439A58022A28BF4FF0010B2D4A90
:1016D0001268002A0CBF58460120BDE8F88FDFF8D9
:1016E00088A0DFF8A890DAF8002012681AB94FF045
:1016F000FF322A60E1E7DAF80020D268D668716824
:101700008C4201D22960D8E706F104084046FFF771
:1017100070F8B16A19B106F11800FFF76AF8F06ABB
:10172000D9F80030012202FA00F11943144BC9F82C
:1017300000104FF0140C41460CFB0030FFF736F858
:101740003868F16AC26A914228BF4FF0010BCAE7BC
:101750000D4A1368013313604FF0000BB7E700BF69
:1017600054040010C0040010780300105CC800008E
:101770007C030010900400108C040010740300100F
:1017800080030010C4040010500400105C0400101A
:101790002DE9F8432F4C23682BB92F4940F68500DB
:1017A00004F06AFAFEE7FEF795FE2368013B23602A
:1017B00024682CB10024FEF7AFFE2046BDE8F88374
:1017C000264B1B68002BF5D0254D264EDFF8A88050
:1017D0001FE0EB68DC6804F1040904F11800FFF76E
:1017E00008F84846FFF705F8E26A3168012707FA6A
:1017F00002F314200B4300FB028049463360FEF7DE
:10180000D5FF194BE26A1B68DB6A9A4201D3174B7A
:101810001F602B68002BDCD10CB1FFF749FD144D84
:101820002C6844B1114E0127FFF720FF00B137604B
:10183000013CF9D12C600D4B1B68002BBAD00D4B2D
:101840004FF080521A60BFF34F8FBFF36F8F0124A8
:10185000B1E700BF54040010C1C800004C040010E0
:10186000940400105C04001074030010C404001001
:101870005004001004ED00E08003001008B540B9EA
:101880000D4B4FF080521A60BFF34F8FBFF36F8F35
:1018900008BD0A4B196829B1094940F23C5004F0CF
:1018A000EBF9FEE7FFF7DAFEFFF77CFDFFF770FFCD
:1018B0000028E5D0ECE700BF04ED00E05404001080
:1018C00037C700002DE9F041054605F052FE0B2810
:1018D00005D9164940F67A1004F0CEF9FEE7FFF775
:1018E000BDFEDFF858800A261427013E294607FB73
:1018F0000680FFF70DFC044690B9002EF5D10C4B85
:101900001868FFF705FC044650B90A4B29461868C9
:10191000FFF7FEFB044618B90748FFF7F9FB04463A
:10192000FFF736FF2046BDE8F08100BF2AC800005F
:10193000780300107C030010AC040010800300103A
:1019400038B5274B1A68274B12B101221A6038BDEF
:101950001A6004F0BDF9244A244C1568A84204D941
:1019600021680B6D5B1B03440B65236810601B6BC8
:101970001A68B2F1A53F0BD15A68B2F1A53F07D161
:101980009A68B2F1A53F03D1DB68B3F1A53F04D05B
:1019900020682168343104F051F9154B1B68B3FA03
:1019A00083F3DBB2C3F11F03142212495A43881890
:1019B0008D582DB9104940F6B73004F05DF9FEE7B7
:1019C000456808326D6845600A44954204BF6A68FC
:1019D0004260142202FB03135B68DB682360B6E7F6
:1019E00054040010C40400104804001074030010D4
:1019F0005C0400108003001090C7000070B504461E
:101A00002A4EFEF767FD04B93468251D2846FEF707
:101A1000F0FE60B9E06A264B142141435B5833B9AC
:101A2000244901220B68824023EA02030B60A36A67
:101A30001BB104F11800FEF7DCFE29461E481F4DBD
:101A4000FEF7B4FE94F85830012B04BF002384F84D
:101A50005830FEF761FD2A682AB1FEF73BFDFFF71B
:101A600027FCFEF759FD3368A34212D12B688BB1D6
:101A7000134B1B682BB1134940F2E46004F0FCF8EF
:101A8000FEE7114B4FF080521A60BFF34F8FBFF348
:101A90006F8F70BD084A11680C4A1268914201D1DB
:101AA0003360F6E7BDE87040FFF74ABF74030010EB
:101AB000800300105C040010AC040010A8040010A7
:101AC0005404001037C7000004ED00E04C0400107F
:101AD00010B50C4628B9084940F6CE3004F0CCF8D1
:101AE000FEE7064B19681831FEF76CFE204601210F
:101AF000BDE81040FFF756BC51C70000740300104A
:101B000038B5C368DC682CB9164940F6294004F0A2
:101B1000B3F8FEE704F118052846FEF76AFE124BFB
:101B20001B68E3B9251D2846FEF763FE0F49E26AEC
:101B300008680123934003430B600D4B1420294692
:101B400000FB0230FEF732FE0A4BE26A1B68DB6ADA
:101B50009A4283BF084B01201860002038BD2946F7
:101B60000648EFE7B2C80000540400105C040010FF
:101B70008003001074030010C404001094040010CB
:101B8000034B1B680360034B1B684360704700BF37
:101B900090040010C004001070B50C46054628B92A
:101BA000164940F6944004F067F8FEE729B9144955
:101BB00040F6954004F060F8FEE7FEF78BFC114B11
:101BC000196823685A1C10D00F482E6800686A688C
:101BD000864201D08A420FD9881A83420AD95B1AF9
:101BE000134423602846FFF7CBFF0024FEF794FC44
:101BF000204670BD002323600124F7E781C7000061
:101C0000D7C70000C004001090040010014B01224F
:101C10001A607047C404001070B50C46164605469D
:101C200008B91B4A1568256005F134026260EA6A4A
:101C300022612A6BE2612A6CA260AA6C6261052BA8
:101C40002A6DA2611AD0124A1268AA420AD1002350
:101C50002373D6B1296B0023CA5CA52A13D09B0835
:101C6000238470BD032B2373F3D1FFF7F7FCAB6A1A
:101C70000BB102232373FFF78BFDEAE72846FFF73A
:101C80003BFC2073E5E70133E6E72684E9E700BF84
:101C9000740300102DE9F84F0D6881460C469346F9
:101CA00015B34B685B684B6001F10806B34204BF93
:101CB000CB684B604B68D3F80C8000254FF0240AAA
:101CC00063685B6863609E4204BF736863606368B7
:101CD000DF680AFB05915B4601223846FFF79CFF4F
:101CE000B84505F10105EBD12846BDE8F88FFFFFA7
:101CF0002DE9F04705469046FFF7B0FC1D4B1B68E9
:101D00008B4234D8DFF87C900A2700244FF0140A65
:101D10002426013F06FB045001220AFB0791FFF72E
:101D2000B9FF0444002FF4D1134B0222196806FBBB
:101D30000450FFF7AFFF114B04441968022206FB61
:101D40000450FFF7A7FF044406FB045003220C498C
:101D5000FFF7A0FF0444B8F1000F03D003F0B8FF71
:101D6000C8F80000FFF714FD2046BDE8F087002406
:101D7000F8E700BF4C040010780300107C0300104B
:101D8000AC04001080030010054B1B6833B1054BF9
:101D90001B68002B0CBF02200020704701207047F9
:101DA000A8040010540400102DE9F0410446002856
:101DB00035D0234AC36A1168C96A8B42174636D2A6
:101DC0008269204D002AA1BF3A68D26AC2F10A0294
:101DD00082611426426906FB03539A4221D100F125
:101DE00004084046FEF705FD174B48B9E06A464334
:101DF000AA592AB91A680121814022EA01021A600F
:101E00003A681968D26AE262012404FA02F00843CF
:101E100018601420414600FB0250FEF7C7FC204624
:101E200003E03B68DB6AC3620120BDE8F081136810
:101E3000806CDC6AA0422CBF00200120F5E700BFC7
:101E400074030010800300105C040010F8B5044611
:101E500008B90020F8BD1F4B1B68834205D01E49FE
:101E600040F6D17003F008FFFEE7DB6C2BB91B498D
:101E700040F6D27003F000FFFEE7C16A826C013BBE
:101E80009142C364E5D0002BE3D1051D2846FEF73F
:101E9000B0FC134E134A50B9E76A142179437358C2
:101EA0002BB913680120B84023EA00031360A36C28
:101EB000E362C3F10A01A1611168012404FA03F08D
:101EC00008431060142000FB03602946FEF76EFCF7
:101ED0002046BFE77403001087C800009DC80000BB
:101EE000800300105C040010F8B50446002847D0B9
:101EF000C26C2AB923494FF4815003F0BDFEFEE7BE
:101F0000836C994238BF1946C36A8B4238D0012A84
:101F100036D11D4A1268824205D11C4941F23B006C
:101F200003F0AAFEFEE78269194DC162002A4FF054
:101F300014064269A8BFC1F10A0106FB0353A8BFFA
:101F400081619A421CD1071D3846FEF752FCE26AB5
:101F5000104C40B95643AB592BB92368012191402D
:101F600023EA010323602168012393400B431420DB
:101F70002360394600FB0250BDE8F840FEF716BC6E
:101F8000F8BD00BF9DC80000740300105DC70000CD
:101F9000800300105C040010044B1A681AB1196821
:101FA000CA6C0132CA641868704700BF740300101D
:101FB00070B5FFF753FB144D0A241426013C06FBB1
:101FC00004F3E818EB580BB1FFF7CCF8002CF5D16F
:101FD0000E4B1A68126812B11868FFF7C3F80C4B61
:101FE0001A68126812B11868FFF7BCF8094803684C
:101FF0000BB1FFF7B7F8084B00221A6003F072FE2E
:10200000BDE87040FFF7C4BB8003001078030010E8
:102010007C030010AC0400104804001010B503F05D
:1020200057FE064B064A196829B1196814680B6DEA
:102030001B1B03440B65106010BD00BF7403001030
:102040004804001008B503F043FE014B186008BDBA
:102050004804001038B50D46044658B103290BD981
:102060000A46002104F09CF823462A0A03F8022BB2
:1020700065701C46204638BD0024FBE710F8023C82
:1020800010F8010C40EA0320033880B2704708B50D
:10209000FFF7F4FF013080B208BD08B510B105F0BC
:1020A00068FA80B208BD10B50446FFF7F6FF024695
:1020B0002046FFF7E3FF824234BF0020012010BD1D
:1020C00003F09CBF00230370704710B50446FFF770
:1020D000DEFF13460A460146204606F04FF920EA85
:1020E000E07080B210BD0EB403B503AA52F8041B11
:1020F0000192FFF7EAFF02B05DF804EB03B070470E
:102100000EB403B503AA52F8041B019206F068F955
:102110000028CCBF80B2002002B05DF804EB03B011
:10212000704738B505460C46084671B105F021FAEE
:1021300001462846FFF7A2FF89B28142024605D830
:102140002146284605F052FA012038BD0020FCE760
:1021500038B51546FFF77EFF044610B12946FFF754
:10216000E0FF204638BD2DE9F04105460F461446F4
:102170000AB3FFF792FFB84206461CD3204605F08B
:10218000F8F932188046284692B2FFF777FF82426C
:1021900011D8C7F101023D44324492B2294605EB01
:1021A000080003F0E3FF42462146284605F01EFAE8
:1021B0000120BDE8F0810020FBE770B506460C4623
:1021C000A9B1FFF76AFF0546204605F0D2F982B2B1
:1021D000A918304689B2FFF751FF884207D3013270
:1021E00092B22146701903F0B3FF012070BD0020A8
:1021F000FCE707B500238DF8041001A98DF8053020
:10220000FFF7DBFF03B05DF804FB08B529B105F06B
:1022100087F9B0FA80F0400908BD0846FCE770B5C0
:10222000064615460C4661B1FFF737FFA84208D3B2
:102230002A462146304605F0C7F9B0FA80F0400939
:1022400070BD0020FCE770B505460C4681B1FFF774
:1022500024FF0646204605F08CF98642024607D345
:102260002146284605F08EF9B0FA80F0400970BD8D
:102270000020FCE72DE9F041074614460D46C9B1A0
:10228000C2B1FFF70AFF8046284605F072F9804583
:1022900006460FD302462946384605F095F948B957
:1022A000B85D237883421ABFB0FA80F0400901205C
:1022B000BDE8F0810020FBE710B50446FFF7EDFE16
:1022C00040B1013880B2205C0D2804D0A0F10A038F
:1022D0005842584110BD0120FCE770B50C46054638
:1022E0001646FFF7DAFEA04211D9011BB142C4F134
:1022F00001030A461844A8BF3246801A14FA82F134
:10230000294482B2281903F031FF012070BD00205A
:10231000FCE70A460021FFF7E0BF38B50C4605464A
:10232000FFF7BBFEA04224BF001B81B22246284615
:1023300038BF0021BDE83840FFF7CFBF10B50446D5
:1023400005F067F9031E1FBF1B1B9BB20022012073
:102350000CBF0020E25410BD10B5044605F0FCF897
:1023600038B1011B0131204689B2BDE81040FFF7AA
:10237000D0BF10BD70B50646054611480C462B4629
:1023800013F8011BC9B10A5C520714D524B12846C1
:1023900003F034FE20600124094A294615F8013B68
:1023A00013B19B5C5B07F8D4891B89B23046FFF7F9
:1023B000B0FF204670BD1D46E1E70C46ECE700BFCC
:1023C000C2D50000F8B506460C46C9B1FFF765FE58
:1023D0000546204605F0CDF86B1E33442044013EEF
:1023E0000021B34202D02246824201D1012008E0FE
:1023F00012F8015B1F78AF42F6D103F80119F0E73C
:102400000846F8BD07B501220221002000F0F4F8CB
:1024100001220321002000F0EFF804220021012016
:1024200000F0EAF801210422084600F0E5F8042251
:102430001146012000F0E0F80821012000F032F9F7
:102440002B4B4FF480729A610921012000F00AF9A8
:1024500002220A21002000F0CFF802220B21ADF861
:102460000000002000F0C8F8ADF80400009800F06B
:10247000D2F8019800F0CFF80321022000F012F901
:102480001C4B00B21870C0F3072058701A210120AD
:1024900000F008F9184B00B21870C0F3072058700C
:1024A0001821012000F0FEF8144B00B21870C0F3A0
:1024B000072058701221012000F0F4F8104B00B2F0
:1024C0001870C0F3072058700A21012000F0CAF8E4
:1024D0000F21012000F0C6F81E21002000F0C2F8F4
:1024E0001D21002003B05DF804EB00F0BBB800BF75
:1024F00020800920CE040010CC040010CA04001073
:10250000C8040010024B4FF48072DA61704700BFBC
:1025100020800920024B4FF480729A61704700BFFF
:1025200020800920034B586980F40070C0F34020DC
:10253000704700BF20800920074B82B01B88ADF890
:1025400004309DF80430002063F307009DF8053047
:1025500063F30F2002B07047C8040010074B82B02D
:102560001B88ADF804309DF80430002063F30700A9
:102570009DF8053063F30F2002B07047CA040010C5
:10258000074B82B01B88ADF804309DF80430002062
:1025900063F307009DF8053063F30F2002B0704726
:1025A000CC040010074B82B01B88ADF804309DF8B6
:1025B0000430002063F307009DF8053063F30F201B
:1025C00002B07047CE04001082B0C3B2ADF8040070
:1025D000C0F30720800000EBC31000F1804000F53D
:1025E000303001F00701036823F00703036003683C
:1025F0001943016002B0704737B58DF801108DF8AE
:10260000000004460D4600981146FFF7DDFF44EA3E
:10261000052003B030BD82B0C3B2ADF80400C0F3F2
:102620000720800000EBC31000F1804000F530303F
:10263000036843F48063036002B0704782B0084BC4
:10264000ADF80400C0B2012253F820109DF8050037
:102650000B68824023EA02030B6002B0704700BFA0
:10266000D8C8000037B58DF800008DF80110044679
:1026700000980D46FFF7E2FF44EA052003B030BDA5
:1026800082B0074BADF80400C0B253F820209DF88B
:1026900005001168012383400B43136002B07047AB
:1026A000D8C8000037B58DF800008DF80110044639
:1026B00000980D46FFF7E4FF44EA052003B030BD63
:1026C00082B0084BADF80400C0B29DF8051053F875
:1026D00020305A6901238B40134214BF012000208F
:1026E00002B07047D8C80000C2B2054BC0F3072043
:1026F00053F82220012382B08340936102B07047D7
:10270000D8C80000C2B2054BC0F3072053F82220FE
:10271000012382B08340D36102B07047D8C8000063
:1027200007B5ADF804000198FFF7CAFF28B101987A
:1027300003B05DF804EBFFF7E5BF019803B05DF867
:1027400004EBFFF7D1BFFFFF38B9104A136801202F
:10275000884023EA000313607047012806D10C4A21
:102760001368884023EA000010607047022801D1F6
:10277000084AEBE7032801D1074AE7E7042801D11B
:10278000064AE3E70528E7D1054ADFE7008009208C
:102790002080092040800920608009208080092055
:1027A000A080092018B90E4B1A68012003E0012807
:1027B00005D10C4B1A6888401043186070470228F6
:1027C00001D1094BF0E7032801D1084BECE70428BD
:1027D00001D1074BE8E70528F0D1064BE4E700BF3D
:1027E0000080092020800920408009206080092085
:1027F00080800920A080092018B90E4B5A69012059
:1028000003E0012805D10C4B5A69884010435861F8
:102810007047022801D1094BF0E7032801D1084B8A
:10282000ECE7042801D1074BE8E70528F0D1064B77
:10283000E4E700BF008009202080092040800920B3
:102840006080092080800920A080092038B9104AC2
:1028500053690120884023EA00035361704701282F
:1028600006D10C4A5369884023EA00005061704742
:10287000022801D1084AEBE7032801D1074AE7E71C
:10288000042801D1064AE3E70528E7D1054ADFE736
:1028900000800920208009204080092060800920D4
:1028A00080800920A08009200AB1FFF7A5BFFFF7AB
:1028B000CDBFFFFFA0B1012814D0022814D00328F7
:1028C00014D0042814D00B4B05280CBF1846002048
:1028D000426901238B40134214BF0120002070473E
:1028E0000548F5E70548F3E70548F1E70548EFE750
:1028F0000548EDE7A08009200080092020800920FC
:102900004080092060800920808009202DE9F04165
:102910000F4C04EBC00306461D7928460F4690462F
:1029200000F03CFA54F8364000233F2263604146F1
:10293000A360284622606361A361E361236263624E
:1029400000F050FA0123E7606360BDE8F08100BF4A
:10295000F0C80000074B53F8303030B501205C69F7
:1029600001EB4105A84020435861183343F821206A
:1029700030BD00BFF0C80000034B53F830200123E6
:1029800003FA01F111607047F0C80000024B53F8E0
:1029900030309868704700BFF0C80000024B53F811
:1029A00030309960704700BFF0C800002DE9F04159
:1029B000044617461E468846FFF7E6F900210546FD
:1029C0006068FEF785FA00232373069B6361079B0B
:1029D000A361236884F80D802022022DA77326614D
:1029E0001A600BD140F6B8316068FEF771FA18B181
:1029F000207BB0FA80F04009BDE8F08100216068DA
:102A0000FEF766FA0028F9D0F2E7FFFF13B5046875
:102A10006268502A034600F0AB801FD8182A6AD09B
:102A20000FD8082A5CD0102A60D062681A7320225E
:102A3000A261102222600822A2612268D206FCD480
:102A400065E0382A00F0A280402A00F08880282A19
:102A5000EBD1427BD2076ED520233FE0A02A3CD0A9
:102A600014D8602A20D0802A26D0582ADDD10269C5
:102A7000A1681170002282612022A26110222260CE
:102A80000822A2612268D106FCD440E0B82A03D013
:102A9000C02A22D0A82AC8D1587F421C5A7704F1F4
:102AA000080103F03BF80DE0042222600822A26135
:102AB0000122027702B010BD027F32B100220277FC
:102AC000A26842770823A361F4E7407F421C5A774B
:102AD000A168C9B203F034F8F4E704232360F1E7F6
:102AE000437B03F0FE03A360A261E3E7437B43F073
:102AF0000103A360E6E780692021A1610822C0B933
:102B0000A16110212160A2612268D106FCD40022BB
:102B10005868019201A9FEF7EBF8019B002BC9D080
:102B20001C4B4FF080521A60BFF34F8FBFF36F8F73
:102B3000C0E79B7BD7E782694AB92022A2611022B5
:102B400022600822A2612268D006FCD4DFE7416936
:102B5000013A11F8010BA06059619A61B2E78369EB
:102B60002022012BA2614FF00403B7D8A361A9E78B
:102B70000269A16811700269013202618269013A39
:102B8000012A82614FF00403A8D1EFE76268027363
:102B9000BDE700BF04ED00E00148FFF737BF00BF0D
:102BA000480000100148FFF731BF00BF28000010A7
:102BB0000148FFF72BBF00BF080000102DE9F043CC
:102BC000274B06461546884693E8070085B004ABB8
:102BD00003E9070040F60A33ADF800300C238DF806
:102BE0000230204A730102EB0309D45804AB33448A
:102BF00003220021012013F8107CFDF71FFFC9F804
:102C000004000120FEF703F8C9F80800384600F078
:102C1000C5F86C23A361144A144B904588BF9846AD
:102C20002823B5FBF8F25208C8215343B3FBF1F354
:102C300023613C235A430023B2FBF1F26261A36299
:102C400063622362E3604023236004AB03EB8606E8
:102C5000384656F80C1C05B0BDE8F04300F0C2B889
:102C600010C900000800001040420F00A0860100BB
:102C70002DE9F3410F4690461D4623B9002528460D
:102C800002B0BDE8F0810E4C04EB40144FF0FF3170
:102C9000A068FEF71DF90028F0D00026089B0193DC
:102CA00042462B4647F0010100962046FFF77EFE84
:102CB0003346054632463146A068FDF7E5FEDEE7BD
:102CC000080000101FB500238DF80F30012300937A
:102CD0000DF10F03FFF7CCFF9DF80F0005B05DF875
:102CE00004FBFFFFF7B50E4617461D461BB900252E
:102CF000284603B0F0BD0E4C04EB40144FF0FF31FA
:102D0000A068FEF7E5F80028F1D0089B3A46CDE927
:102D1000005306F0FE0100232046FFF747FE002384
:102D200005461A461946A068FDF7AEFEE0E700BF6B
:102D3000080000101FB5002200920DF10F038DF85E
:102D40000F20FFF7CFFF05B05DF804FB1FB58DF82E
:102D50000F30012300930DF10F03FFF7C3FF05B000
:102D60005DF804FBFEE7FFFF08B5FFF757F9084BD6
:102D7000084A1B78103BDBB252F823309847064BC9
:102D800000221A601B68BDE80840FFF75BB900BF6E
:102D900004ED00E068000010D0040010242809D8D9
:102DA000054B064A185CD2F8C410012383400B433C
:102DB000C2F8C430704700BF1CC9000000C00F40FB
:102DC00024289FBF054B064AD3F8C430105C9ABF35
:102DD00023FA00F000F001000020704700C00F400F
:102DE0001CC90000074B43F8201043B2002B08DB3E
:102DF000012200F01F0002FA00F05B09024A42F8CB
:102E0000230070476800001000E100E038B5124C64
:102E100005462420FFF7C2FF236843F00703236021
:102E2000636843F002036360FDF7FCF90B4B90FB12
:102E3000F3F00223B0FBF3F2AA4207D8226922F092
:102E4000FF02226122691343236138BDB3F5807FFD
:102E5000F4D00233EEE700BF00C00A4040420F004A
:102E6000034B9860DA68D206FCD49868C0B2704709
:102E700000C00A4073B54FF0FF33B1F5805F019396
:102E800036D21D4C2369DE0734D41C4B1D69ED0777
:102E900030D41B4D0326AE602E611A4D1D6002B367
:102EA00001AE5E6041F00046DE6041F20F061E6139
:102EB000DAB1206041F0806140F68112E160656026
:102EC0002261114A516A41F003015162D868C0F38E
:102ED0000B000028FAD1536A23F00303536202B0B7
:102EE00070BD586041F00846DEE701AA2260E3E7C2
:102EF0000120F4E70220F2E7000108202001082069
:102F00000000082008C00A4000C00A4010B504466E
:102F1000FDF784F94FF47A73B0FBF3F00223B0FBB2
:102F2000F3F2A24202D8034A136110BD0233DBB2AE
:102F3000F5E700BF00C00A4010B504462420FFF7A3
:102F40002DFF0B4B07221A6002225A602046FFF722
:102F5000DDFF1A20FFF722FF064B01221A631A6BCE
:102F6000D207FCD5044A0023936042F8183C10BDF8
:102F700000C00A400000082020010820034B986090
:102F8000DA68D206FCD49868C0B2704700C00A4024
:102F90000122FFF76FBF0022FFF76CBF0268936842
:102FA000C3F34203022B73B5064623D0062B21D070
:102FB000012B34D100248DF803400194102501AA7F
:102FC0000DF103017068FEF743F848B133689DF8CE
:102FD00003201A70019B002B18BF0124013DEED184
:102FE0000CB3124B4FF080521A60BFF34F8FBFF3F8
:102FF0006F8F18E00024019433681A7DD207EFD553
:103000001B788DF8033001AA00230DF10301B0688D
:10301000FDF710FE019B002B18BF0124ECE7137D88
:10302000DBB20193019B02B070BD00BF04ED00E074
:103030000148FFF7B3BF00BF300100100148FFF7A0
:10304000ADBF00BF240100100148FFF7A7BF00BFBC
:10305000180100100148FFF7A1BF00BF0C010010CC
:10306000134B70B515460646185C0C462D01FFF74C
:1030700095FEB4FBF5F307EE903AF8EE677AB6EEFC
:10308000007A77EE877A0C20FCEEE77A7043094AE3
:1030900017EE903A12589BB280211173190ADBB2D5
:1030A00011711370102382F828300723137370BD39
:1030B00054C900000C010010074B10B50446185C01
:1030C000FFF77EFE38B10C206043044B1B58187B81
:1030D000003018BF012010BD54C900000C010010C1
:1030E000044A0C2303FB00204068003018BF012075
:1030F000704700BF0C0100102DE9F04105468846DD
:103100001646FFF7D9FF074618B900273846BDE82D
:10311000F081154C0C2303FB05439A6822B9B8F1E2
:10312000000F01D0C3F808800C2303FB05435A6845
:103130000AB906B15E600C266E43A3199A68002A8C
:10314000E3D05B68002BE0D0084B53F82510084B08
:10315000585DFFF747FEA35941221A7206221A72E0
:1031600007225A60D2E700BF0C01001044C90000DA
:1031700054C9000038B50C234343074A0D46D458C0
:10318000FFF79AFF30B1237D9A06FCD52570237D89
:103190009B06FCD538BD00BF0C01001070B504467D
:1031A00015460E46FEF7F0FD0F4B0C2202FB0434D1
:1031B000A468B4B1022814D16B1C09D04FF47A7002
:1031C000A5FB00014FF47A72002302F095FD05463D
:1031D0002A4631462046FDF7DDFD003018BF0120AC
:1031E00070BD0020FCE700BF0C0100102DE9F84382
:1031F00006460F46124DFEF7C7FD0C2404FB06538E
:1032000081463046D3F80880FFF756FFA0B1B9F1E8
:10321000020F0AD1B8F1000F07D0394630464FF0FF
:10322000FF32BDE8F843FFF7B9BF74432B591A7D4D
:10323000D207FCD51B783B700020BDE8F88300BFA7
:103240000C010010F7B51F4D8DF807100746164604
:10325000FEF79AFD0C2303FB07535C6864B3022856
:103260002DD1711C09D04FF47A70A6FB00014FF4E8
:103270007A72002302F040FD0646002332460DF12B
:1032800007012046FDF700FC041C18BF0124FDF7D0
:1032900021F90C2078432B182D582A7D520609D588
:1032A00000220DF107015868FDF7D2FE10B19DF81C
:1032B00007302B70FDF730F9204603B0F0BD002435
:1032C000FAE700BF0C0100102DE9F84F064614463E
:1032D000884610461B49DFF87C90DFF87CA0DFF8B9
:1032E0007CB0FEF700FFB36821464046984735683A
:1032F0000DB9BDE8F88F6F68384604F03AF9322806
:103300008CBF514649463B462A682046FEF7EBFEF5
:1033100059462046FFF712F80B4907462046FFF7AB
:103320000DF807B918B109492046FEF746FF0849CC
:103330002046FEF742FFB368214640469847ED68B5
:10334000D6E700BF58C900009FC9000059CB000054
:103350009EC90000B4C90000A1C90000C0C9000096
:1033600030B504294FF0000538BF04210560C0E9DD
:103370000112C36030BD11B10368CB6001607047BA
:103380002DE9F041144605460F4610464249FFF725
:1033900019F842492046FEF756FF002833D03F492E
:1033A0002046FEF732FF28B1224639462846FFF76D
:1033B0008BFF68E020212046FEF7CEFFDFF8F0808B
:1033C0002E680EB92E6810E0424631682046FEF79E
:1033D00051FF002838D1F668F3E76A683168204663
:1033E000FEF71DFF00282FD1F668002EF5D13146DB
:1033F0002B4A2046FEF7B7FEAB6821463846984771
:10340000AB6825493DE02E68DFF8A4800EB92E6830
:103410000EE0424631682046FEF72CFFB8B9F66848
:10342000F4E76A6831682046FEF7F9FE78B9F66875
:10343000002EF6D131461B4A2046FEF794FEAB68BB
:10344000214638469847AFE7AB687168D6E7202138
:103450002046FEF781FFB368AA68214638469847A0
:1034600088B1114A00212046FEF77DFEAB68214657
:10347000384698470D4972682046FEF734FEAB681F
:10348000214638469847E96821B1AB683846BDE81F
:10349000F0411847BDE8F0819EC90000C2C9000094
:1034A000F5C900001ECA0000C7C90000D8C9000045
:1034B000CCD6000010B54C1E14F8010F00B910BD99
:1034C00003F0ACFEF8E7FFFF70B5A0B006461B4A5C
:1034D00080216846FEF73CFE044630462246002125
:1034E000FFF74EFF2046FEF7EDFD2046FEF7E4FE17
:1034F0000028F2D102F006FEC5B2082D16D12046F2
:10350000FEF7CBFD60B101212046FEF706FF2846FD
:1035100003F084FE202003F081FE284603F07EFEA7
:103520002046FEF7C0FD0028DFD0D6E7284603F08E
:1035300075FE29462046FEF75CFEF1E7C2C9000091
:1035400030B589B004AD2846164B174A174C0421F4
:10355000FFF706FF95E80F0084E80F0020461449A6
:10356000FFF709FF20461349FFF705FF20461249E0
:10357000FFF701FF20461149FFF7FDFE20461049E5
:10358000FFF7F9FE0F4B02930F4B019303230093B8
:103590004FF4007223460D490D48FDF749FF09B06D
:1035A00030BD00BF4FCA0000B5340000D404001085
:1035B0007C0100104C0100103C0100106C01001057
:1035C0005C010010E40C0010E4040010A2CA00002A
:1035D000C93400002DE9F043E7B00DF198084FF42D
:1035E000807281460E464046002102F0D9FD8021BE
:1035F00006A8FEF72FFD05AF01233B60054600241A
:10360000009704AB03AA20494846CDE90344FEF7DE
:1036100077FD012831D93B6800939DF810209DF873
:103620000C1043460220FFF723FB8146E8B1039AC2
:103630001649DFF864902846FEF755FD29462046D6
:10364000B0473B68A34202D867B0BDE8F083049A54
:1036500018F804300093224449462846FEF743FDFB
:1036600029460020B0470134EBE709492846FEF718
:1036700058FD29464846B047E6E706492846FEF782
:1036800050FD29462046F6E7E4CB0000F1CB0000D0
:1036900022CC00004FCC00000BCC00002DE9F04301
:1036A000E7B000240DF198084FF4807281460F4670
:1036B00040462146CDE9034402F072FD802106A870
:1036C000FEF7C8FC04AB064603AA29494846FEF7A4
:1036D00017FD022844D120214846FEF73DFE202157
:1036E0004846FEF739FE059405A94846FEF742FE16
:1036F0000546D0B9009443469DF810209DF80C1063
:103700000220FFF7EFFA814610B3039B1949DFF857
:10371000709022463046FEF7E6FC31462846B84710
:10372000AC4207D167B0BDE8F083059B08F80430D0
:103730000134D9E7049A18F8053000932A44494621
:103740003046FEF7D0FC31460020B8470135E7E7A8
:1037500009493046FEF7E5FC31464846B847E1E7FF
:1037600006493046FEF7DDFC31462046F6E700BF4D
:103770008FCC000099CC0000D0CC0000FECC000023
:10378000B9CC0000F8B50D4628460E491646FEF79E
:103790005AFD0D4904462846FEF755FD20210746EF
:1037A0002846FEF7D9FD2CB131462846FFF712FF17
:1037B0000020F8BD27B131462846FFF76FFFF7E735
:1037C0000120F6E752D40000DECB00000123024ABC
:1037D0001A600020704700BFEFBEADDE2DE9F04F4C
:1037E00089B0084604AF0D469146FEF769FC041EF9
:1037F00004DDFEF7DDFB2046FEF740F8DAB00024DA
:10380000FC6002F065FA0DF1100B786007F10C0214
:103810000A215846FEF76CFA224A386022492846A7
:10382000FEF761FC29462046C847A0465E464FF099
:10383000000A20E0736943451AD1B269FB68144459
:1038400023B16421B3FBF1F3B2FBF3F3317BCDE998
:103850000232338C9B00CDE90083144B726853F81D
:10386000213013492846FEF73EFC29460020C84770
:103870000AF1010A24363B685345DBD108F10108FF
:10388000B8F10A0FD2D17B680A491A1B2846FEF705
:103890002AFC29460020C84700201437BD46BDE851
:1038A000F08F00BFC9CD0000CECD000048CE000093
:1038B000F9CD000016CE000010B507480C460023D5
:1038C0004FF0FF320068FDF7DFF82146034803F0B0
:1038D0008DFC002010BD00BF1414001050CD00005E
:1038E00070B50C46204616491646FEF7ACFCA8B14A
:1038F00020212046FEF730FD2046FDF7E3FF054678
:1039000040B9104A29462046FEF72DFC214628469C
:10391000B04701E0FEF772F8002070BD0A4920466A
:10392000FEF791FC054648B120212046FEF714FD24
:103930002046FDF7C7FFFDF715FEEDE7034AE1E777
:1039400070CD000078CD000099CD0000A0CD000022
:1039500042884378007843EA022340EA0320704714
:103960000B0A017043700B0C090E8370C170704715
:1039700010B5024410F8013B11F8014B9042A3EB43
:10398000040301D0002BF5D0184610BDC3690239DD
:10399000023B8B4283BF4389006B01FB0300002085
:1039A0007047024600F10B010020C30143EA5003B7
:1039B00012F8010B50FA83F38A42D8B2F5D170475E
:1039C00002684AB1134613F8011B1F290BD93A2983
:1039D000F9D1911C8B4202D04FF0FF307047127822
:1039E000302AF9D103600020704701380A4411F8E9
:1039F000013B00F8013F9142F9D17047CA7E8B7EAE
:103A0000032843EA022301BF487D0A7D42EA0022DF
:103A100043EA024318467047C2F307238A76CB76FF
:103A20000378032B01BF120C0A75120A4A757047FE
:103A300070B500F13806426B0446012331464078E8
:103A400001F0CBFA054688B9616BA36A226AE0707F
:103A5000CB1A934208D2A378022B05D10A44012342
:103A60003146607801F0B9FA284670BD0125FBE7C0
:103A700038B5436B8B4204460D4619D0C3788BB9D9
:103A800001232A4604F13801607801F092FA0028F7
:103A900018BF4FF0FF35034665630CBF0346012393
:103AA000184638BDFFF7C4FF03460028F8D1E7E702
:103AB0000023F5E738B50023C3704FF0FF334363AD
:103AC0000546FFF7D5FF044618BB95F8372295F851
:103AD000363243EA02234AF6552293421BD195F827
:103AE0003830EB2B03D01833DBB2012B15D803226F
:103AF0000B4905F16E00FFF73BFF40B10522094974
:103B000005F18A00FFF734FF002818BF0224204681
:103B100038BD0424FBE70324F9E70224F7E700BFDC
:103B2000E9CE0000EDCE00002DE9F043002385B082
:103B30000B600F461546FFF743FF061EC0F23981A2
:103B4000A44B53F82640002C00F03581206901F089
:103B500095F9002800F031813C60237805F0FE05DE
:103B60006BB1607801F020FAC10708D41DB110F0E4
:103B7000040500D00A25284605B0BDE8F0830023DF
:103B8000F0B22370607001F001FAC20700F11781F2
:103B90000DB14307EED400212046FFF78BFF02282A
:103BA00040F0EE806F4604F5FF7104F23E263D467C
:103BB00011F8040C10B10846FFF7CAFE10318E420E
:103BC00045F8040BF4D1002557F8046B002E00F0E3
:103BD000CE8031462046FFF76DFF012800F2C880F5
:103BE00094F8442094F8433043EA0223B3F5007F6D
:103BF00040F0CA8094F84F3094F84E5055EA0325AF
:103C000004D104F15C00FFF7A3FE054694F84810C8
:103C100025624B1E012BA17000F2B68094F84590EE
:103C20001FFA89F36381002B00F0AE8009F1FF33A6
:103C300013EA090F40F0A88094F84A3094F84970CC
:103C400047EA03273FB21FFA87F818F00F0FA4F8CE
:103C5000088040F0998094F84C3094F84B0050EA7A
:103C6000032003D104F15800FFF772FE94F84720B7
:103C700094F8463053EA022300F0868005FB01FCED
:103C800003EB1812624490427ED3801A4845B0FB81
:103C9000F9F179D35048814276D84FF6F5708142D8
:103CA00040F28F804FF00309023133443244B9F1BE
:103CB000030FE1616662A362226369D194F8632015
:103CC00094F8623043EA02231F433FB2002F5BD1D6
:103CD00004F16400FFF73CFEE062890001F2FF118D
:103CE000B5EB512F50D34FF0FF33C4E90533B9F191
:103CF000030F4FF0800323712FD194F8692094F8BB
:103D0000683043EA0223012B27D1711C2046FFF7BC
:103D1000AFFE10BB94F8372294F83632207143EA94
:103D200002234AF65522934217D104F13800FFF7D7
:103D30000FFE2A4B984210D104F50770FFF708FEDA
:103D4000274B984209D104F50870FFF701FEA061E6
:103D500004F50970FFF7FCFD6061224A84F80090C9
:103D6000138801339BB21380E380002503E703200F
:103D70000135042D7FF428AF042805D10125FAE68A
:103D80000428FBD0012801D90D25F4E6002627E7F9
:103D9000B8F1000FF8D06344B9F1020FE3624FEAC3
:103DA00041031BBF5B1801F00101194601EB5301F0
:103DB00094E70B25DFE60C25DDE60F25DBE6032582
:103DC000D9E640F6F57949458CBF4FF002094FF02E
:103DD000010969E7400D0010F5FFFF0F52526141E4
:103DE00072724161440D001001292DE9F04705462A
:103DF0000C46174672D9C3698B426FD90378022BE0
:103E00003FD0032B50D0012B68D101EB5108816AC0
:103E100001EB5821FFF72CFE064638BB05F13809A7
:103E200008F1010AC8F3080814F001041FBF19F8CB
:103E3000083003F00F023B0103F0F00314BF1343FB
:103E4000FBB209F80830A96A0123EB7001EB5A2193
:103E50002846FFF70DFE064640B9CAF3080A44B1EA
:103E6000C7F3071709F80A700123EB703046BDE865
:103E7000F08719F80A30C7F3032723F00F031F4315
:103E8000F0E7816A01EB1421FFF7F2FD06460028F6
:103E9000ECD1640005F1380304F4FF741A191F55BE
:103EA000C7F307275770DFE7816A01EBD411FFF7EB
:103EB000DFFD06460028D9D1A40005F1380304F43B
:103EC000FE741C442046FFF743FD27F0704700F0C6
:103ED000704139432046FFF743FDC5E70226C5E799
:103EE0000129F8B505460C4652D9C36999424FD20B
:103EF0000378022B29D0032B38D0012B48D101EBBA
:103F00005106816A01EB5621FFF7B2FD10B14FF067
:103F1000FF30F8BD771CA96AC6F308062E4401EBF2
:103F20005721284696F83860FFF7A2FD0028EED109
:103F3000C7F308073D44E30795F8380046EA002038
:103F40004CBF0009C0F30B00E3E7816A01EB1421C9
:103F5000FFF78EFD0028DAD16400383504F4FF74D1
:103F60002B19285D5B7840EA0320D2E7816A01EBD8
:103F7000D411FFF77DFD0028C9D1A40005F1380058
:103F800004F4FE742044FFF7E3FC20F07040C0E727
:103F90000120BEE7B1F5001FF8B506460D4601D376
:103FA0000220F8BDCA06FBD1826804683161CAB933
:103FB0002378022B01D9E36A9BB92389B3EB551F00
:103FC000EED9E36AB361B3697261002BE8D003EB09
:103FD00055233834C5F308052C44B361F46100203F
:103FE000DFE71A4667897F02BD42114604D22046A8
:103FF000FFF7CCFCB061E6E73068FFF771FF431CC8
:10400000024606D00128CBD9E3698342C8D9ED1B0B
:10401000EAE70120C5E72DE9F041804605680F4633
:1040200049B96E69C6B1EB69B34298BF0126AB6965
:10403000A3B9002406E02846FFF752FF01280446F2
:1040400003D801242046BDE8F081421C51D0EB6921
:104050008342F7D83E46EAE70126E8E7BE4215D19B
:10406000EB69D8F80000741CA34298BF02242146D3
:10407000FFF736FF0128E4D0431C3AD0D8B16B6972
:10408000012B03D9EA69934238BF1E463446EB69D7
:104090000134A34202D8012ECBD902242146D8F8FC
:1040A0000000FFF71DFF40B10128CAD0013020D029
:1040B000B442ECD1BDE7002CE8D04FF0FF322146EE
:1040C0002846FFF791FE90B957B9D5E90632023A72
:1040D00093426C6110D92B7943F001032B71B1E746
:1040E000224639462846FFF77FFE0028EDD00128FA
:1040F000A7D14FF0FF34A5E7013BAB61EBE7F8B583
:104100000D46012D0746114604682BD9E369AB42E1
:1041100028D92AB14FF0FF322046FFF765FE30B9AB
:1041200029463868FFF7DCFE064608B90020F8BDCE
:10413000012817D0431C17D0002229462046FFF73C
:1041400053FE0028F3D1D4E90632911E8B4205D2EA
:104150000133A361237943F001032371B242354651
:10416000DED8E3E70220E2E70120E0E740B1A1F179
:104170000B03012B04D90F2902D0006900F087BE80
:10418000704738B50D460446F0B10368DBB11A78C4
:10419000B2B18188DA88914212D1186900F06EFEBE
:1041A000034698B12368587800F0FEFE10F0010035
:1041B00002D124682C6038BD00212068FFF7D6FFAB
:1041C00009200024F6E71C460920F3E70F201C46CF
:1041D000F0E7F8B5C37804460D46C3B92946204632
:1041E000FFF7D4FB04F138060746606304F50E724E
:1041F0003346002103F8011B9342FBD1002563895C
:104200009D420AD36089401B18BF0120F8BDFFF70B
:104210000FFC0028E2D00120F8E701237A1931468B
:10422000607800F0DAFE0028ECD10135E7E72DE9EF
:10423000F843076905682037B7F5001F24BF00233E
:10424000836183690446894673B1C7F30808B8F1EE
:10425000000F39D141690133836139B92B89B3EB3F
:10426000571F31D80023A36104200BE06B89013B69
:1042700013EA572328D12846FFF732FE01280646C5
:1042800002D80220BDE8F883421C01D10120F9E7E1
:10429000EB69834212D8B9F1000FE3D0616920467F
:1042A000FFF7B9FE0646A8B10128EAD0431CEDD0BD
:1042B00001462846FFF78DFF0028E7D166613146A9
:1042C0002846FFF763FBA061383545442761E56167
:1042D0000020D7E70720D5E72DE9F04F002185B072
:1042E0000446D0F80080FFF755FE8146002840F0D4
:1042F0008C804FF0FF334FF0FF0AE3625746009384
:10430000A1694046FFF7B4FB814600287DD1E569ED
:104310002E78002E7DD0EA7AE52E02F03F03A371BD
:1043200003D0100704D50F2B04D0009BE36252E0AA
:104330000F2B57D194F82B30590642D4720648D52A
:10434000236995F80DA0E36206F0BF066B7B534529
:1043500041D1EA7EAB7E53EA02233CD12F78D8F8D4
:104360000CB007F03F077B1E0D275F432A4B01214E
:1043700013F8012BA81815F80290407849EA002993
:1043800059B37F2F039326D8484600F0B9FD7A1C15
:1043900002903BF81700019200F0B2FD02998142B1
:1043A00019D1019A039B494617461C4A9A42DFD10C
:1043B0002B785B0603D511B13BF817305BB9013E92
:1043C000F7B200212046FFF732FF8146002897D040
:1043D0001BE0B742BAD0FF27F3E74FF6FF729145D3
:1043E000E3D0F8E727B92846FFF7DBFA50450CD0B1
:1043F00094F82B9019F0010997D10B2204F12001B8
:104400002846FFF7B5FA00288FD1484605B0BDE829
:10441000F08F4FF00409F8E7DCCE0000E9CE000091
:104420002DE9F04F85B00368019306468A4611F8DE
:10443000013B2F2BFAD05C2BF8D00021B1609AF809
:1044400000301F2B00F2CD808023304686F82B30C1
:1044500005B0BDE8F04FFFF79DBD7F2807D8924A11
:1044600012F8013B1BB19842FAD106204EE0802D94
:10447000FBD02BF815000135B7E033F8022D202AC8
:1044800002D02E2A40F0D480013DCEE00246D7E093
:10449000C84505D2AB4249D1B9F10B0F3ED102E07C
:1044A000B9F10B0F35D144F003044FF00B0996F826
:1044B0002030E52B04BF052386F82030B9F1080F22
:1044C00004BFBF00FFB207F00C030C2B03D007F0B2
:1044D0000303032B01D144F00204A50707D4F80716
:1044E00048BF44F01004790748BF44F0080486F838
:1044F0002B403046FFF7F0FE96F82B3000285FD0B7
:10450000042803D113F0040F08BF052005B0BDE84F
:10451000F08FAB4202D044F00304C8D8BF00FFB212
:104520002B464FF00B094FF00808B9E07F2812D94D
:1045300044F0020240F2B5110393029200F0ACFC89
:1045400010F0800FDDE902230FD000F07F00574903
:10455000085C144628B1564911F8012BF2B1824289
:10456000FAD144F003045F2011E0FF28F1D909F1EA
:10457000FF31884503D344F00304C84690E006EBBE
:104580000801040A81F8204008F10108144606EBEE
:10459000080208F1010882F8200081E0A0F1410240
:1045A00092B2192A02D847F00207F0E7A0F161029F
:1045B00092B2192A9EBF203847F0010780B2E6E781
:1045C0005A07A3D4B379DB066CD5019B03F13801FC
:1045D0003369C3F308031944019B1878FFF70EFAF7
:1045E000B0603368D3F80CB000251AF8010B68B13D
:1045F00040F2B51100F070FC00283FF436AF1F28E0
:1046000004D92F2802D05C287FF427AF52461378B4
:104610002F2B924602F10102F9D05C2BF7D0202813
:1046200034BF042400240BEB4503002D7FF425AF99
:1046300000220BEB45032BF81520002D3FF415AF9E
:104640003BF81210202902F101003FF41FAF0AB914
:104650002E2901D144F0030433F8021D2E2901D084
:10466000013DF9D106F1200306F12B01202003F8CA
:10467000010B9942FBD14FF000084FF00809474663
:104680003BF81200531C00283FF411AF202805D03E
:104690002E287FF4FDAEAB423FF4FEAE44F003049F
:1046A0001A46EDE7052031E7F3CE00005CCE0000AE
:1046B000FCCE000070B5C3780446002B45D12378AA
:1046C000032B39D12379012B36D104F1380604F5B7
:1046D0000E723346002503F8015B9342FBD155234C
:1046E00084F83632AA2384F83732522341227221C9
:1046F00084F8383084F83930612384F83A3084F80B
:104700003B2084F81E2284F81F3284F81C1284F89F
:104710001D1204F50870A169FFF722F9616904F51B
:104720000970FFF71DF9626A607801326263012344
:10473000314600F052FC257100221146607800F0ED
:1047400060FC003018BF012003E0FFF771F900287A
:10475000B5D070BD2DE9F04F90F82B4014F0A004B7
:1047600089B0054640F08F800668F26832F8143050
:10477000002B66D105F120070C22394605A8FFF76A
:1047800034F99DF81F30DB0740F186804023DFF8C5
:10479000448285F82B304FF0010A0B2205A93846D8
:1047A000D6F80C90FFF721F9BAF1050F5AD9A9F103
:1047B0000201534631F8022F002A44D10DF11300B3
:1047C000072203F00F0C0CF13001392988BF0CF1DE
:1047D00037010F2B00F8011902F1FF324FEA1311D4
:1047E00042D808AB13447E2103F8141C05F11F01C5
:1047F00008460023934206D010F801CFBCF1200FE9
:1048000003F1010E32D1072A9CBF08A8801803F1DA
:10481000010396BF10F8140C20200132072BC85456
:10482000F1D92846FFF758FD814678BB0AF1010A05
:10483000BAF1640FB1D14FF00709484609B0BDE89D
:10484000F08F013492E7102002F0010C0CEB4303CF
:1048500013F4803F18BF83EA080301384FEA52027D
:10486000F2D1A7E75346A9E70B46AAE77346C1E78B
:10487000804601212846FFF7DAFC814610B3B9F1E2
:10488000040FD8D0D9E74FF00609D6E70428D4D1D1
:104890009DF81F3085F82B309DF81F30D5F800A00B
:1048A0009B0748BF0C344FF00001284649BF0D2339
:1048B0000124B4FBF3F40134FFF76CFB81460028BC
:1048C000DDD18046A9695046FFF7D2F8814600281D
:1048D000D5D1EB691B78E52B01D0002BC8D108F1AD
:1048E00001084445C5D1013C55D029692846A1EBB2
:1048F0004411FFF74FFB814600289ED13846FFF751
:1049000050F84FF6FF780190A9693046FFF7B0F8EC
:104910008146002891D1EB69019AD6F80CE05A73D0
:10492000E1B24FF00F024FF00D0CDA72DFF8A8A0E1
:1049300018734A1E0CFB02F29876D87684464045DE
:104940001AF8019B18BF3EF8120003F8090003EBA8
:10495000090B0CF1010C18BF01324FEA1029002895
:1049600008BF4046BCF10D0F8BF80190E7D14045E0
:1049700002D03EF812200AB941F04001197001231B
:10498000F37000212846FFF752FC814600287FF48F
:1049900054AF013CB8D1A9693046FFF769F88146A8
:1049A00000287FF44AAFEB69014603F1200203F8C7
:1049B000011B9342FBD10B223946E869FFF715F83A
:1049C00095F82B30EA6903F0180313730123F37091
:1049D00033E700BF21100100DCCE0000F0B585B048
:1049E000CDE9001003A814460391FEF7E9FF051E68
:1049F00028DB154F57F825604EB1306900F039FAC1
:104A000018B90224204605B0F0BD00233370019987
:104A100079B9019B47F82530002CF3D001A9002279
:104A20006846FFF781F8044601460198FFF79EFBB0
:104A3000E8E7002301F8103BE8B200F010FA002884
:104A4000E7D1DEE70B24DDE7400D00102DE9F04152
:104A5000D0B0174601910446002800F0DB8002F038
:104A60003F052A4602A901A8FFF75EF8064600287E
:104A70004BD1029B019903930FAADA6003A8FFF7B9
:104A8000CFFC20B99DF93730002BB8BF062017F0B6
:104A90001C0F00F09F80002842D0042835D103A8C5
:104AA000FFF758FE88BB45F00805029BDDF828801B
:104AB00018784146FEF7A2FF074600F0B4FA014617
:104AC00008F10E00FEF74CFF0A9B02982022DA72D2
:104AD0000A990022FEF7A0FF0A9B00221A775A7754
:104AE0009A77DA77029B0121D97017B3394603A868
:104AF000D3F83480FFF703FB38B941460298FEF73C
:104B0000B7FF029B013F5F6198B100232360064617
:104B100031460298FFF72AFB304650B0BDE8F081DD
:104B20009DF8123013F0110F5ED178076CD439075D
:104B3000BBD4DDF808800A9FD8F83430236267625E
:104B400098F800002907394648BF45F04005FEF7B0
:104B500055FFA06007F11C00FEF7FAFEB8F806301A
:104B6000A38004F128070023E060C4F800802574C6
:104B70006374E361636104F50A713A4602F8013B2C
:104B80009142FBD1AA06C3D5E568002DC0D0B8F884
:104B90000A80A16865614FEA4828A84526D300200D
:104BA000A1610028B1D1C5F30803002BB0D0DDF816
:104BB00008804046FEF7EAFE50B300EB5522E26162
:104BC0000123394698F8010000F0F3F900289FD03E
:104BD00001209AE7002898D19DF81230DA0615D402
:104BE000BF07A6D5D807A4D507208EE72068FFF712
:104BF00077F901280146A5EB080503D9431CCCD160
:104C00000120CDE70220CBE708207EE704207CE7E7
:104C100002207AE709267FE72DE9F04F9B4685B011
:104C200000238946CBF8003003A904461646FFF757
:104C3000A8FA054608B9657C25B129460398FFF70F
:104C400095FA08E0257C15F0010508D107210398A5
:104C5000FFF78CFA0725284605B0BDE8F08FE3681A
:104C60006769DF1BB74204F1280328BF374600936A
:104C70002FB939460398FFF779FA3D46EBE76269A9
:104C8000C2F30803002B76D1039B5B89013B13EA37
:104C9000522313D12AB9A068012809D802256574C6
:104CA000CBE7A16920680193FFF71AF9019BF3E7AD
:104CB000421C02D101216174C0E7A061DDF80CA0A3
:104CC000A16901935046FEF761FE019B20B90225C0
:104CD000657429465046B2E7B7F5007F03EB00083C
:104CE0002BD37E0ABAF80A209AF80100991991424A
:104CF00088BFD61A33464246494600F05AF9002882
:104D0000D8D194F91030002B0BDAE069A0EB080041
:104D1000B04206D24FF40072009909EB4020FEF732
:104D200064FE7602DBF800303344CBF80030636970
:104D3000BF1BB1441E4466619AE7E269424518D040
:104D400094F91030002B0BDA012300999AF8010036
:104D500000F043F90028ADD1237C03F07F032374D6
:104D60000398009940780123424600F022F9002878
:104D7000A0D1C4F81C806169009BC1F30801C1F592
:104D80000076BE4228BF3E46324619444846FEF7EA
:104D90002CFEC7E7F7B501A90446FFF7F2F905466F
:104DA000002843D1237C13F040053FD01B0614D5C7
:104DB0000198E2694078012304F1280100F00DF91F
:104DC00038B101210198FFF7D1F90125284603B038
:104DD000F0BD237C03F07F03237400F024F9216AE3
:104DE00007460198FEF744FE0546F8B9666AF37A6D
:104DF00043F02003F372A26820683146FEF70CFEF0
:104E0000E16806F11C00FEF7ABFD394606F116001D
:104E1000FEF7A6FD0198B5740123F574C370FFF782
:104E200049FC237C23F0400305462374294601985E
:104E3000FFF79CF9CAE737B50546FFF7ABFF044615
:104E400050B901A92846FFF79CF9044620B928600B
:104E500001460198FFF78AF9204603B030BD10B52E
:104E600001200C46FBF7D3FE2060003018BF012064
:104E700010BD08B5FCF73AF9012008BD08B540F6A9
:104E8000B831FCF725F8431E5842584108BD0023AD
:104E90001A461946FBF7F8BD7F2810B501D880B235
:104EA00010BDB0F5803F13D240F2B51399420FD137
:104EB0000849002231F8024B844293B203D103F136
:104EC0008000C0B2ECE70132802AF3D11346F6E746
:104ED0000020E5E7B2D100007F280DD940F2B513DC
:104EE000994208D1FF2806D800F10040034B8038D2
:104EF00033F8100070470020704700BFB2D10000A7
:104F0000B0F5803FF0B521D21E4A1F4983B2B0F5FB
:104F1000805F28BF0A46141D34F8042C2146A2B134
:104F2000934212D334F8025C2E0AEDB2AF18B842A5
:104F300022DA082E09D8DFE806F0050A1012141646
:104F4000181A1C00801A34F810301846F0BD981A50
:104F500000F001001B1A9BB2F7E7103BFBE7203B78
:104F6000F9E7303BF7E71A3BF5E70833F3E7503B47
:104F7000F1E7A3F5E353EEE70434002ECCD101EBC7
:104F80004502C8E704CF0000F6D0000010B5044683
:104F900000F07EFC34B900F00FF9044600F092FCFA
:104FA000204610BD0424F9E708B900F0A3B9042095
:104FB0007047F8B507460C4615461E4600F068FCDB
:104FC0004FB92046F2B2294600F09CF9044600F0A1
:104FD00079FC2046F8BD0424F9E7F8B507460C46ED
:104FE00015461E4600F054FC4FB92046F2B2294641
:104FF00000F0CEF9044600F065FC2046F8BD04241C
:10500000F9E770B506460C46154600F041FC46B976
:105010002046294600F010FA044600F053FC2046D2
:1050200070BD0424F9E70020704738B500F09AFC01
:1050300000F5FA75FF20FDF7A1FFFF20FDF79EFFA9
:10504000FF28044603D000F08DFC8542F5D82046A9
:1050500038BDFFFF08B5FDF755FAFFF7E6FFFDF78E
:1050600059FA034A137843F00103137008BD00BFD7
:105070008C01001038B505460C46FFF7D6FFFF2817
:1050800021D12046FDF77AFFFD2C1ED0AC1C05F285
:10509000022514F8020CFDF771FF023414F8030C1A
:1050A000FDF76CFFAC42F4D1FF20FDF767FFFF2056
:1050B000FDF764FFFF20FDF761FF00F01F00431FB5
:1050C0005842584138BD0020FCE70120FAE737B5C7
:1050D000020604460D4607D500217720FFF7F7FFAB
:1050E000012831D804F07F04FDF714FAFDF70AFA1D
:1050F000FFF79BFFFF282BD1402C27D0482C0CBF5B
:10510000872301232A0E8DF801202A0C8DF8022016
:1051100006212A0A68468DF800408DF803208DF894
:1051200004508DF80530FDF733FF4C2C02D1FF20E1
:10513000FDF724FF0A24FF20FDF720FF030603D517
:10514000013C14F0FF04F6D103B030BD9523D9E73C
:10515000FF20F9E770B5054600F004FC00F1640695
:10516000FF20FDF70BFF044600F0FCFB864201D355
:10517000FF2CF5D0FE2C0CD14FF400712846FDF722
:105180000AFFFF20FDF7FAFEFF20FDF7F7FE0120E2
:1051900070BD0020FCE7FFFF38B5064D2C78E4B267
:1051A000FDF7C0F918B104F0FD042C7038BD44F0CF
:1051B0000304FAE78C0100102DE9F341FFF7ECFF3F
:1051C0004A4B1A7812F0020F1E4604D01878C0B26B
:1051D00002B0BDE8F081C820FDF798FE0A25FF2047
:1051E000013DFDF7CBFE15F0FF05F8D1FDF78AF97B
:1051F00029464020FFF76BFF0128044671D100F0DB
:10520000B1FB4FF4D57100F57A774820FFF75FFFC7
:10521000012848D101ADA8460424FF20FDF7AEFEC9
:10522000013C14F0FF0408F8010BF6D19DF806309C
:10523000012B56D19DF80730AA2B52D100F092FBDA
:10524000874206D94FF08041E920FFF740FF002850
:10525000F4D100F087FB874243D900217A20FFF781
:1052600036FF00283DD10424FF20FDF787FE013CD6
:1052700014F0FF0405F8010BF6D19DF8043013F08B
:10528000400F14BF0C240424194B1C70FDF742F985
:105290004CB3337845F6C05003F0FE033370FDF78E
:1052A00035FE307893E72946E920FFF710FF022802
:1052B00036BFE9254125022400F054FB874205D979
:1052C00000212846FFF703FF0028F5D100F04AFB34
:1052D000874206D84FF400715020FFF7F8FE0028EF
:1052E000D2D00024D0E7FFF7B5FEDAE78C0100103A
:1052F000460D001008B5FFF74FFF014B187808BDA9
:105300008C01001070B5144605460E46FFF744FFA9
:10531000002C35D01C4B1B78DA0733D4FDF7F2F89C
:105320001A4B1B781B0758BF7602012C314611D14E
:105330005120FFF7CCFE38B94FF400712846FFF733
:1053400009FFB0FA80F46409FDF7E4F8201C18BFE7
:10535000012070BD5220FFF7BAFE0028F4D14FF4AF
:1053600000712846FFF7F6FE28B1013C14F0FF0457
:1053700005F50075F3D100214C20FFF7A8FEE3E707
:105380000420E6E70320E4E78C010010460D00103E
:1053900070B5144605460E46FFF7FEFE002C41D0C0
:1053A000234B1A78D0073FD41B7859073ED4FDF71A
:1053B000A9F8204B1B781A0758BF7602012C11D18F
:1053C00031465820FFF783FE50BBFE212846FFF7E9
:1053D00051FEB0FA80F46409FDF79CF8201C18BF58
:1053E000012070BD13F0060F03D02146D720FFF730
:1053F0006EFE31465920FFF76AFE0028ECD1FC21F1
:105400002846FFF737FE28B1013C14F0FF0405F5EC
:105410000075F4D1FD210020FFF72CFE0028DBD120
:105420000124D9E70420DCE70320DAE70220D8E7EB
:105430008C010010460D00107FB506460D46FFF7A3
:10544000ABFE052E15D12C78012C10D02CB1022CDE
:105450000AD00424204604B070BDFDF763F800288C
:10546000F8D0FFF7F7FDF5E7FDF75CF8687000246A
:10547000F0E76F4B1C7814F0010440F0D7800E2E3B
:1054800000F2D280DFE806F008134E52D0D0D0D020
:10549000D0D09DA1B0B3C400FDF734F8FFF7C5FD2F
:1054A000B0F1FF0418BF0124FDF734F8D2E7002162
:1054B0004920FFF70CFE044608B10124F4E710214F
:1054C0006846FFF747FE0028F7D09DF800309DF8AA
:1054D00008109B09012B9DF8093006D15A1C02EBDC
:1054E000012292B292022A60DEE79DF807209DF821
:1054F0000A00920002EB91129DF80610890201F455
:10550000406101320A449DF805105B0001F00F0173
:1055100001EBD01103F006030B44073B02FA03F33F
:105520002B60C1E74FF400732B80BDE7414E31780B
:1055300011F004011CD00021CD20FFF7C8FD002888
:10554000BBD1FF20FDF71AFD10216846FFF702FED0
:105550000028B2D03024FF20013CFDF70FFD14F0ED
:10556000FF04F8D19DF80A301A0910239340D7E7B9
:105570004920FFF7ACFD044600289ED11021684663
:10558000FFF7E8FD002898D032789DF80A309DF8A2
:105590000B1092070AD55B009DF80D2003F07E03E7
:1055A00003EBD11392090133013ADFE7CA0002F09D
:1055B0001802C3F3840302EB5112013302FB0333DD
:1055C000AEE71C4B1B782B706EE700214920FFF7DC
:1055D0007EFD00287FF471AF10212846FFF7BAFD49
:1055E000B0FA80F464095FE700214A20EFE7002168
:1055F0007A20FFF76CFD044600287FF45EAF2E1D75
:10560000FF20FDF7BBFC05F8010BAE42F8D14BE7DC
:105610000021CD20FFF75BFD00287FF44EAFFF2077
:10562000FDF7ACFC4021D8E704243DE7032411E753
:105630008C010010460D001008B5064601F099FFD8
:1056400000240546A54200DCFEE7315D0020FDF7A1
:1056500091FD0134F6E7FFFF02280CD9074B1B68C8
:105660005A68824207D09A68824204D0DB681B1ACB
:105670005842584170470120704700BF9001001008
:10568000F8B504460E461546FFF7E6FF48B3164B3D
:105690001B68DB68A34210D0A31E5C425C41FCF790
:1056A00073FB07460020FDF71BFD022F17D1B0B199
:1056B000ACB9A54203DC2846F8BD0124EFE7315D13
:1056C0004FF0FF320020FDF7BDFD0134F1E7315D01
:1056D0000020FDF74FFD0134A542F8DCEBE7002484
:1056E000FAE70248FFF7A8FF90010010E4D200009B
:1056F00008B5FFF7B1FF18B10020FDF777FD08BD31
:105700000148FFF799FF00BFB2D2000008B52A2276
:10571000192338210220FDF719FB0D223821022020
:10572000FDF7D0FAA0F12A035842584108BDFFF70F
:10573000EDBFF8B504460D4600F0FEF8061941EB42
:105740000507FCF721FB02280CD100234FF47A72E5
:10575000AB4208BFA24205D22046294600F0CCFA4F
:10576000FCF78CF800F0E8F8B94208BFB042F9D372
:10577000F8BD4FF47A73A0FB0301FFF7DABFFFFF18
:1057800030B585B0FCF73EFEFCF7D6FEADF808005C
:10579000FCF7E4FEADF80A00FCF7F2FEADF80C00F1
:1057A000FCF700FF0024ADF80E0004AA04F0030388
:1057B00002EB4303013433F8080CFCF7B1FF32204D
:1057C000FFF7D7FF202CF0D145F6C050FDF7B4FB12
:1057D000002223492348FFF701F9234B18680023CF
:1057E00019460222406801F0B3FDFAF71BFD0025BF
:1057F00001464FF416420020FDF732FC00951B4B8A
:105800001B4A01212046FBF7CFF81A4B00950446AE
:10581000194A01218020FBF7C7F822460146284695
:10582000FDF76AFC154A16491648174D01F0DEFCD3
:10583000FAF7F8FC154902460220FDF7BFF90224E9
:10584000E1B20220FDF776FA18B12146284601F0B0
:10585000CDFC0234B4F5807FF2D105B030BD00BF7D
:10586000A0C90000B80D001090010010680D0010D4
:10587000470D001070100010F00F001017D300003B
:1058800028D3000079D3000096D30000801A0600C8
:1058900010B50A4C236823B909490120FBF7A2F986
:1058A0002060FCF771FA022806D120684FF0FF3122
:1058B000BDE81040FBF70CBB10BD00BFC0100010CE
:1058C000C410001010B5FCF75FFA022808D1054893
:1058D00000231A4619460068BDE81040FBF7D4B80B
:1058E00010BD00BFC0100010074A08B513680021A2
:1058F000013308461360FDF751F800210846BDE862
:105900000840FDF739B800BF1411001008B5074A68
:105910000749B0FBF1F100200139FCF7F7FF002146
:10592000044A0846BDE80840FDF714B8E9580000ED
:1059300040420F000087930370B5084E0020FDF72A
:1059400025F8054600203468FDF720F88542F5D893
:10595000034B0021E3FB040170BD00BF14110010D4
:105960000087930308B5FFF7E7FF4FF47A7200232F
:1059700000F0C2F908BD70B5054608460C4601F0B6
:10598000F8FD2618B44205D128460A21BDE870402A
:10599000FDF7F0BB14F8011B2846FDF7EBFBF1E720
:1059A0002DE9F0473348344D344FADF5C86D01F063
:1059B000B7FC2E46384601F0B3FC4FF0FF3202A987
:1059C0002868FBF7E7F90028F4D002A92C4801F079
:1059D0000DFC0023012202A90DF583600193FFF75E
:1059E00035F8002842D1DFF8A880DFF8A890DFF86A
:1059F000A8A0DDF82C24DDF824349A422DD04046AE
:105A000001F08EFC4FF40072002186A800F0C8FB64
:105A100001AB4FF4007206A90DF58360FFF7FCF8A7
:105A20000446F8B906A9504601F0E0FB154801F01C
:105A3000DDFB15489DF8181000684FF0FF32234633
:105A4000FBF722F84FF49670FBF718FF224602A9E5
:105A50003068FBF79FF90028CBD00DF58360FFF786
:105A6000EAF9A7E7484601F0C1FBC2E7074801F0A1
:105A7000BDFBF2E7F0D3000014140010F3D30000D4
:105A8000FCD3000033D400001814001057D40000D9
:105A900017D4000041D4000025D400002DE9F041C6
:105AA0001A4E1B4FDFF87080ADF5007D4FF0FF32CE
:105AB00069463068FBF76EF90028F7D04FF40071A3
:105AC000384601F093FB08210020FCF7F3FEC8B133
:105AD000002210461A21FCF7E7FE0220FDF7C0F96C
