:1000000000000110E500000075010000590100002A
:100010007501000075010000750100007501000008
:100020007501000075010000750100000104000069
:1000300075010000750100000504000009040000BE
:10004000F92B0000F92B0000F92B0000F92B000020
:10005000F92B0000F92B0000F92B0000F92B000010
:10006000F92B0000F92B0000F92B0000F92B000000
:10007000F92B0000F92B0000F92B0000F92B0000F0
:10008000F92B0000F92B0000F92B0000F92B0000E0
:10009000F92B0000F92B0000F92B0000F92B0000D0
:1000A000F92B0000F92B0000F92B0000F92B0000C0
:1000B000F92B0000F92B0000F92B0000F92B0000B0
:1000C000F92B0000F92B0000F92B0000F92B0000A0
:1000D000F92B0000F92B0000F92B0000F92B000090
:1000E000F92B000008B500F057F900F073F900F0A3
:1000F0007BF900F09BF800F095F804F051F904F05A
:1001000089F800F0BFF840B141F28734002504F0CF
:1001100073F98D4208BF8442F9D204F052F818B93D
:100120000849094805F0E8FD0649084805F0E4FDDE
:1001300004F098FA064B07481B68D96804F060FD84
:10014000FEE700BF60AA00006CAA000099AA0000A8
:1001500090010010B1AA00001EF0040F0CBFEFF3D5
:100160000880EFF309808169004A1047D10100003F
:100170007047FFFF38B50F4C0F4B10481D782368B0
:10018000D96804F03DFD23680D49D8682A4604F07B
:100190007FFC0F2D236807D80A4A0B4952F8252007
:1001A000D86804F075FCFEE7D968084804F028FD1B
:1001B000F9E700BF9001001004ED00E0ECAA000098
:1001C00006AB0000F8AB000040AB00005EAB0000E7
:1001D00010B5044600F04AF8236883606368C36082
:1001E000A3680361E3684361236943626369013B78
:1001F000C361A3698361E3690362BFF34F8F05495C
:10020000054BCA6802F4E0621343CB60BFF34F8F23
:1002100000BFFDE700ED00E00400FA05004870476C
:1002200000D8B8050048704700D8B8050E4B072223
:10023000C3F88420AA210122C3F88020C3F88C10BF
:100240005521C3F88C10C3F8A821D3F88820520593
:10025000FBD51A6822F4704242F480421A6040F2E0
:100260000112C3F80421704700C00F400248034A3E
:10027000034BC0E90023704700000020EFBEADDE55
:100280001041522138B5224C224B22689A423DD16E
:100290006268214B9A4239D1204D21482B68D96898
:1002A00004F0AEFC2B68A2691E49D86804F0F0FB8C
:1002B0002B68E2691C49D86804F0EAFB2B68226AC3
:1002C0001A49D86804F0E4FB2B68A2681849D8687A
:1002D00004F0DEFB2B68E2681649D86804F0D8FB0E
:1002E0002B6822691449D86804F0D2FB2B68626934
:1002F0001249D86804F0CCFB2B681148D96804F087
:100300007FFC01200023C4E9003338BD0020F9E759
:1003100000000020EFBEADDE104152219001001020
:1003200038AC00008BAC00009AAC0000A9AC000017
:10033000B8AC0000C7AC0000D6AC0000E5AC0000D3
:10034000F4AC00000E4A136810B50E4C1918A14207
:10035000116002D30C4CA1420BD313600B4A0C4921
:1003600013681844884208D30A49884205D21060AD
:1003700001E0002BF2D0184610BD0023FBE700BFC0
:100380000000001028000020008000200400001061
:100390004014001000000110094A0A4B0A498B4220
:1003A00005D30A4B0A4A0021934205D3704712F83D
:1003B000010B03F8010BF2E703F8011BF4E700BFA0
:1003C000C4BF0000000000106403001068030010A8
:1003D00040140010034AD2F8883043F47003C2F886
:1003E0008830704700ED00E0044800232021C21847
:1003F0000133292B82F80013F9D1704700E100E0A6
:1004000000F056B800F09CB800F0CCB8084800687E
:10041000006880F308884FF0000080F3148862B60B
:1004200061B6BFF34F8FBFF36F8F00DF00BF0000D7
:1004300008ED00E0DFF80C00016841F47001016094
:100440007047000088ED00E007B5002301930B4BD7
:100450001B68013304D00A49EF2004F053F9FEE78A
:100460004FF0180383F31188BFF36F8FBFF34F8FE3
:10047000019B002BFCD003B05DF804FB700300105F
:10048000C8AD00004FF0807340F8043C074B40F8C3
:100490000C3C21F001016FF0020340F8081C40F809
:1004A000202C40F8243C4438704700BF4904000029
:1004B000074B19680868B0E8F04F80F30988BFF36C
:1004C0006F8F4FF0000080F311887047AFF300800A
:1004D0007403001008B54FF0180383F31188BFF3BD
:1004E0006F8FBFF34F8F094A13680133012B1360DD
:1004F0000AD1074B1B6813F0FF0F05D0054940F2E6
:10050000AB1004F0FFF8FEE708BD00BF7003001059
:1005100004ED00E0E2AD0000074A08B513682BB90E
:1005200006494FF4D97004F0EDF8FEE7013B136083
:100530000BB983F3118808BD7003001017AE0000DB
:10054000EFF30980BFF36F8F154B1A681EF0100F81
:1005500008BF20ED108A20E9F04F10602DE9090056
:100560004FF0180080F31188BFF34F8FBFF36F8FE8
:1005700001F0E6F94FF0000080F3118809BC19681A
:100580000868B0E8F04F1EF0100F08BFB0EC108AFA
:1005900080F30988BFF36F8F704700BFAFF300800F
:1005A0007403001008B54FF0180383F31188BFF3EC
:1005B0006F8FBFF34F8F01F059F818B1034B4FF015
:1005C00080521A60002383F3118808BD04ED00E017
:1005D00010B5084A084C002323601360FFF71EFE85
:1005E0004FF47A73B0FBF3F0044B01381860072323
:1005F000236010BD18E000E010E000E014E000E02F
:10060000334B344A13B51968914205D132494FF43E
:100610009A7004F077F8FEE71A68304B9A4205D1D9
:100620002F4940F2351004F06DF8FEE72D4B1A7893
:10063000D2B20192FF221A701B782B4ADBB28DF8DE
:1006400003309DF8033003F018031370274A072383
:10065000136000219DF80300000603F1FF3409D464
:1006600011B1022B13600ED0214940F25D1004F04D
:1006700049F8FEE79DF803305B00DBB28DF80330EC
:1006800001212346E6E74FF400731360019B154AEE
:10069000DBB21370174B1A6842F478021A601A68BA
:1006A00042F078421A60FFF793FF134B00241C605E
:1006B000FFF7C0FE114A136843F040431360FFF791
:1006C000A5FE01F03DF9FFF7BFFE204602B010BDC8
:1006D00000ED00E071C20F4195AE000070C20F4105
:1006E000B8AE000000E400E0680300106C030010E6
:1006F000DBAE000020ED00E07003001034EF00E0FE
:1007000008B5EFF305830F2B0BD90D4A9B5C0D4AFF
:1007100012789A4205D90C4940F2FE2003F0F2FF0C
:10072000FEE70A4B0A4A1B68126803F4E06393422F
:1007300005D9084940F20E3003F0E4FFFEE708BD9A
:10074000F0E300E06803001029AE00000CED00E0CB
:100750006C03001053AE000010B5044600F07EFF9D
:10076000204604F06BFA044601F012F80CB903F0CD
:10077000B9FF204610BD10B5044640B100F06EFF31
:10078000204604F063FABDE8104001F001B810BD46
:1007900000F108034FF0FF324360C0E90223036118
:1007A00000230360704700230361704743684B6078
:1007B0009A688A609A685160996003680861013399
:1007C000036070470A68531C30B50AD103695A6840
:1007D0004A6091608B60596003680861013303606F
:1007E00030BD00F108035C6825689542EFD82346C8
:1007F000F9E7D0E9011203698A60516059688142C2
:1008000008BF5A60002202611A68013A1A6018682B
:10081000704710B50446FFF75DFEA46BFFF77CFE42
:10082000B4FA84F0400910BDF8B51546026C866B29
:10083000044652B9076847BB806801F007FBA76010
:1008400005460136A6632846F8BD65B9406804F040
:1008500005FA6368226C1344A26863609342F0D384
:1008600023686360EDE7C06804F0F8F9236CE26880
:1008700021685B421A448A42E2603EBFA2689B182C
:10088000E360022D01D116B1013E0025D9E73546BE
:10089000D7E7034610B41A6C084662B1D9689C6861
:1008A0001144A142D96024BF1968D960D9685DF8A4
:1008B000044B04F0D3B95DF8044B704770B504469F
:1008C000FFF708FE94F8455004F124066DB2002DA0
:1008D00014DCFF2384F84530FFF71EFEFFF7FAFD16
:1008E00094F8445004F110066DB2002D12DCFF2381
:1008F00084F84430BDE87040FFF70EBE636A002BF9
:10090000E7D0304601F0FCF808B101F07FF9013D75
:100910006DB2DCE72369002BE9D0304601F0F0F836
:1009200008B101F073F9013D6DB2DEE738B50D464F
:10093000044628B91A4940F2031003F0E3FEFEE72B
:10094000FFF7C8FDD4E90F30226862604343D11835
:100950001B1A1344A160E3600021FF23A16384F804
:10096000443084F8453095B9236963B104F110002F
:1009700001F0C6F838B10B4B4FF080521A60BFF34C
:100980004F8FBFF36F8FFFF7C7FD012038BD04F114
:100990001000FFF7FDFE04F12400FFF7F9FEF2E777
:1009A000E1AF000004ED00E013B51C4628B91E4974
:1009B0004FF49D7003F0A6FEFEE72BB91B494FF4E0
:1009C0009F7003F09FFEFEE732B161B918494FF402
:1009D000A17003F097FEFEE729B1164940F24310DB
:1009E00003F090FEFEE750230193019B502B05D0AE
:1009F000114940F24B1003F085FEFEE7002908BFC5
:100A00002246019B22600123C4E90F0184F846308D
:100A100019462046FFF78AFF9DF8103084F84C30C5
:100A2000204602B010BD00BF1EAF000040AF000066
:100A300056AF00008EAF0000C6AF0000F8B50D46FF
:100A40001746064628B90F494FF4BB7003F05AFE0B
:100A5000FEE748435030FFF77FFE044670B10023A5
:100A600080F8463065B100F150032360C4E90F659A
:100A700001212046FFF75AFF84F84C702046F8BD4C
:100A80000346F2E71EAF00002DE9FF4788460192BA
:100A90001F46044628B94E4940F2F12003F032FEC9
:100AA000FEE739B9036C2BB14A4940F2F22003F05A
:100AB00029FEFEE7022F08D1E36B012B05D0464942
:100AC00040F2F32003F01EFEFEE701F05DF906465A
:100AD00038B9019B33B1414940F2F62003F012FED0
:100AE000FEE700264FF00009DFF8F4A037E0019D93
:100AF0001DB9FFF711FD002050E016B902A801F062
:100B00003FF8FFF709FD00F0A9FDFFF7E3FC94F8BB
:100B10004430FF2B08BF84F8449094F84530FF2BF5
:100B200008BF84F84590FFF7F7FC01A902A801F07F
:100B300033F8002846D1FFF7CDFCA26BE36B9A4255
:100B40002FD1FFF7E9FC019904F1100000F0C0FF7C
:100B50002046FFF7B3FE00F01BFE50B30126FFF75F
:100B6000B9FCA26BE36B9A4201D3022FBFD13A4684
:100B700041462046FFF758FE636A1BB104F124008A
:100B800000F0BEFF38B1164B4FF080521A60BFF331
:100B90004F8FBFF36F8FFFF7BFFC012004B0BDE89C
:100BA000F087FFF7B9FC2046FFF788FE00F0F0FD64
:100BB000D4E74FF08053CAF80030BFF34F8FBFF334
:100BC0006F8FCBE72046FFF779FE00F0E1FD92E75B
:100BD000E1AF0000E9AF000039B0000080B00000D4
:100BE00004ED00E013B5002200900B4601201146F1
:100BF000FFF7DAFE044638B1002383600360C36068
:100C00001A461946FFF740FF204602B010BD10B546
:100C1000024600210120FFF711FF044638B10023EE
:100C200083600360C3601A461946FFF72DFF204614
:100C300010BDFFFF2DE9F843894690461F46044644
:100C400028B9284940F2C33003F05CFDFEE739B90A
:100C5000036C2BB124494FF4717003F053FDFEE790
:100C6000022F08D1E36B012B05D0204940F2C5309B
:100C700003F048FDFEE7FFF743FDEFF311864FF069
:100C8000180383F31188BFF36F8FBFF34F8FA26BED
:100C9000E36B9A4201D3022F22D194F845503A4691
:100CA0006DB249462046FFF7BFFD6B1C13D1636A46
:100CB0000BB901200BE004F1240000F021FF002813
:100CC000F7D0B8F1000FF4D00120C8F8000086F387
:100CD0001188BDE8F88301356DB284F84550E8E726
:100CE0000020F4E7E1AF0000E9AF000039B00000F8
:100CF00070B50D46044628B923494FF48C6003F0C3
:100D000001FDFEE7036C2BB1204940F2644003F083
:100D1000F9FCFEE703683BB983682BB11C4940F23C
:100D2000694003F0EFFCFEE7FFF7EAFCEFF3118602
:100D30004FF0180383F31188BFF36F8FBFF34F8F0A
:100D4000A26BE36B93421CD994F8453001325BB23D
:100D5000A2635A1C10D1636A0BB9012009E004F1A7
:100D6000240000F0CDFE0028F7D0002DF5D00120A2
:100D7000286086F3118870BD01335BB284F845307A
:100D8000EBE70020F5E700BFE1AF0000D6B00000C0
:100D9000EFB000002DE9F04385B00F460192044604
:100DA00028B947494FF4A06003F0ACFCFEE739B91D
:100DB000036C2BB1434940F2045003F0A3FCFEE75F
:100DC00000F0E2FF064638B9019B33B13E4940F2DC
:100DD000095003F097FCFEE700264FF00008DFF80B
:100DE000EC903BE0019D1DB9FFF796FB002052E01F
:100DF00016B902A800F0C4FEFFF78EFB00F02EFC2F
:100E0000FFF768FB94F84430FF2B08BF84F8448058
:100E100094F84530FF2B08BF84F84580FFF77CFB32
:100E200001A902A800F0B8FE00283DD12046FFF736
:100E3000F0FC98B3019904F1240000F049FE20462B
:100E4000FFF73CFD00F0A4FC38B94FF08053C9F81F
:100E50000030BFF34F8FBFF36F8F0126FFF73AFBD0
:100E6000A56B002DBED039462046013DFFF711FD90
:100E7000A563236963B104F1100000F041FE38B1AD
:100E8000124B4FF080521A60BFF34F8FBFF36F8F3A
:100E9000FFF742FB012005B0BDE8F0832046FFF7D5
:100EA0000DFD00F075FCD8E72046FFF707FD00F0C8
:100EB0006FFC2046FFF7ADFC0028CED096E700BFC0
:100EC00056B1000062B1000080B0000004ED00E007
:100ED0002DE9FF410446019128B9584940F291504B
:100EE00003F010FCFEE7056C2DB1554940F295501A
:100EF00003F008FCFEE700F047FF064638B9019B07
:100F000053B1504940F29A5003F0FCFBFEE72E46E5
:100F10000027DFF838814EE00546F9E7019B4BB921
:100F20002DB1494940F2E15003F0ECFBFEE7FFF739
:100F3000F3FA5EE016B902A800F022FEFFF7ECFA21
:100F400000F08CFBFFF7C6FA94F84430FF2B08BF83
:100F500084F8447094F84530FF2B08BF84F845703E
:100F6000FFF7DAFA01A902A800F016FE00284AD11C
:100F70002046FFF74EFC00283FD023683BB9FFF71F
:100F8000A9FAA06800F010FF0546FFF7C5FA01991D
:100F900004F1240000F09CFD2046FFF78FFC00F0D8
:100FA000F7FB38B94FF08053C8F80030BFF34F8FCC
:100FB000BFF36F8F0126FFF78DFAA36B002BADD027
:100FC000013BA363236813B900F0E6FFA060236927
:100FD00063B104F1100000F093FD38B11B4B4FF0EA
:100FE00080521A60BFF34F8FBFF36F8FFFF794FAF1
:100FF0000125284604B0BDE8F0812046FFF75EFCDD
:1010000000F0C6FBD6E72046FFF758FC00F0C0FB17
:101010002046FFF7FEFB0028CCD0002DE9D0FFF7DB
:1010200059FA616A19B1236B1968C1F10A01A06804
:1010300000F05AFF0025FFF76FFADAE756B100001B
:10104000D6B0000080B0000000B2000004ED00E067
:101050002DE9F84389469046054628B9214940F2D2
:10106000FB6003F04FFBFEE739B9036C2BB11E495F
:1010700040F2FC6003F046FBFEE7FFF741FBEFF3B5
:1010800011874FF0180383F31188BFF36F8FBFF3FD
:101090004F8FAC6B1CB395F84460494676B2284636
:1010A000FFF7F7FB013C731CAC6313D12B690BB941
:1010B00001200BE005F1100000F022FD0028F7D020
:1010C000B8F1000FF4D00120C8F8000087F31188B0
:1010D000BDE8F883013676B285F84460E8E720463B
:1010E000F4E700BFE1AF0000B5B1000008B528B9D2
:1010F000064940F2B77003F005FBFEE790F8463072
:101100001BB9BDE80840FFF736BB08BDE1AF0000E2
:101110000268F0B503461AB342685068586003F19C
:101120000802904204BFD86858605868C768586879
:1011300040685860824204BF506858605868C06870
:101140004D1E00F1340400F1400C14F801EB15F8C9
:10115000016F764502D126B16445F6D18742E6D1CA
:101160000020F0BD43685B68436000F108029342D1
:1011700004BFC3684360436830B5DC6800255B6822
:101180009A4208BF5368D9688C420D65F7D1436015
:1011900030BDFFFF2DE9F0410446FFF79BF92D4BD1
:1011A0002D4D1A682D4F01321A602E68002E46D13F
:1011B0002C601B68012B1CD1B84640460136FFF756
:1011C000E7FA0A2E08F11408F7D1DFF8B880244EA8
:1011D0004046FFF7DDFA3046FFF7DAFA2148FFF71D
:1011E000D7FA2148FFF7D4FA204BC3F80080204BF0
:1011F0001E60204A20491368086801331360E26AC0
:10120000236401239340034314200B6000FB02700E
:10121000211DFFF7CBFAFFF77FF9184B1B6863B16D
:101220002B68DA6AE36A9A4207D2154B4FF0805274
:101230001A60BFF34F8FBFF36F8FBDE8F0810F4B84
:101240001B68002BD5D12B68DA6AE36A9A4298BFF3
:101250002C60CEE74C0400107403001080030010D3
:101260007404001094040010AC0400107803001003
:101270007C030010580400105C040010A804001047
:1012800004ED00E06004001008B5074C074D4FF076
:1012900080562368012B04D92E60BFF34F8FBFF314
:1012A0006F8F03F027FAF4E78003001004ED00E0ED
:1012B000064A13681968064B19B94FF0FF321A60D5
:1012C00070471268D268D2685268F8E77803001055
:1012D0008C04001008B528B9094940F20E7003F0DB
:1012E00011FAFEE74269074B9A4207D1806A064B22
:1012F000984203D0B0FA80F0400908BD0020FCE716
:1013000026B20000AC040010940400102DE9F04750
:10131000DDE909644FEA82094A4607460D46206B1B
:10132000A521984603F0C2FC236BA9F10409994456
:1013300029F007099DB36B1E04F134020B3513F835
:10134000011F02F8011B09B1AB42F8D1002384F858
:101350003F30089D092D28BF09254FF0000AE5629E
:10136000A564201DC4F84CA0FFF71DFAC5F10A05BD
:1013700004F11800FFF717FAC4F854A02461A5611E
:101380006462C4F850A084F858A0424639464846E2
:10139000FFF778F8206006B13460BDE8F08784F884
:1013A0003450D6E7F8B51B4B1B4E1C680546306819
:1013B00004300F46FFF71DFA334640B93168174E27
:1013C000C96A32680120884022EA000232606A1C41
:1013D00007D137B1196812480431BDE8F840FFF76A
:1013E000E5B91A686419546007D30E4A1068196881
:1013F000BDE8F8400431FFF7E5B90B4A10681968F9
:101400000431FFF7DFF9094B1A68A24288BF1C605C
:10141000F8BD00BFC0040010740300105C0400108D
:10142000AC0400107C030010780300108C04001042
:1014300070B586B0DDE90B542DB9154940F24D2049
:1014400003F060F9FEE72CB9124940F24E2003F098
:1014500059F9FEE75C260596059E5C2E05D00E49DF
:1014600040F2562003F04EF9FEE72563022584F88A
:10147000595004AD01950A9D02940095059EFFF711
:1014800045FF2046FFF786FE049806B070BD00BFFA
:1014900005B300001CB3000031B300002DE9F04398
:1014A000074685B09000884616469946FFF754F9DE
:1014B0000546E8B15C20FFF74FF90446A8B10023C8
:1014C00080F859300D9B056301930C9B02900093AB
:1014D00032464B4641463846FFF718FF2046FFF795
:1014E00059FE012005B0BDE8F0832846FFF743F917
:1014F0004FF0FF30F6E7FFFFF8B5044628B914496E
:101500004FF4AD6003F0FEF8FEE7124B1B68834218
:1015100018D0FEF7DFFF104B65691F680F4B1E6880
:10152000FEF7FAFFBD4211D0B5420FD00C4B9D42E1
:101530000AD1A36A53B994F85830012B0CBF02208A
:101540000320F8BD0020FCE70120FAE70220F8E7BD
:1015500020B2000074030010780300107C03001018
:10156000AC04001070B5044628B91A494FF4E7607E
:1015700003F0C8F8FEE7184D2B68834228D0FEF729
:10158000A9FF2046FFF7A6FEF0B1261D3046FFF763
:1015900030F91249E26A08680123934003430B6063
:1015A0000F4B142000FB02303146FFF7FFF82B6889
:1015B000E26ADB6A9A4207D30A4B4FF080521A6004
:1015C000BFF34F8FBFF36F8FBDE87040FEF7A4BF2E
:1015D00070BD00BF93B20000740300105C040010E3
:1015E0008003001004ED00E010B588B0002407AAC5
:1015F00006A905A8CDE9054403F0A4F8059B0293CC
:10160000069B079A0F491048CDE900432346FFF790
:101610000FFF0E4B186090B14FF0180383F3118841
:10162000BFF36F8FBFF34F8F094B4FF0FF321A603C
:10163000084B01221A60084B1C60FEF7E1FF08B05E
:1016400010BD00BFABB2000089120000880400107A
:101650008C040010A8040010C0040010024A136893
:1016600001331360704700BF540400102DE9F84F98
:101670003B4B1B68002B6BD13A4B1C6801341C6040
:10168000A4B9394B1A6812682AB1384940F67F204C
:1016900003F038F8FEE7364A1968106818601160E0
:1016A000344A136801331360FFF702FE324D334FA3
:1016B0002B68A3424FF0000B11D93A68304BD16A26
:1016C00014224A439A58022A28BF4FF0010B2D4A90
:1016D0001268002A0CBF58460120BDE8F88FDFF8D9
:1016E00088A0DFF8A890DAF8002012681AB94FF045
:1016F000FF322A60E1E7DAF80020D268D668716824
:101700008C4201D22960D8E706F104084046FFF771
:1017100070F8B16A19B106F11800FFF76AF8F06ABB
:10172000D9F80030012202FA00F11943144BC9F82C
:1017300000104FF0140C41460CFB0030FFF736F858
:101740003868F16AC26A914228BF4FF0010BCAE7BC
:101750000D4A1368013313604FF0000BB7E700BF69
:1017600054040010C0040010780300107CB3000083
:101770007C030010900400108C040010740300100F
:1017800080030010C4040010500400105C0400101A
:101790002DE9F8432F4C23682BB92F4940F68500DB
:1017A00002F0B0FFFEE7FEF795FE2368013B2360E1
:1017B00024682CB10024FEF7AFFE2046BDE8F88374
:1017C000264B1B68002BF5D0254D264EDFF8A88050
:1017D0001FE0EB68DC6804F1040904F11800FFF76E
:1017E00008F84846FFF705F8E26A3168012707FA6A
:1017F00002F314200B4300FB028049463360FEF7DE
:10180000D5FF194BE26A1B68DB6A9A4201D3174B7A
:101810001F602B68002BDCD10CB1FFF749FD144D84
:101820002C6844B1114E0127FFF720FF00B137604B
:10183000013CF9D12C600D4B1B68002BBAD00D4B2D
:101840004FF080521A60BFF34F8FBFF36F8F0124A8
:10185000B1E700BF54040010E1B300004C040010D5
:10186000940400105C04001074030010C404001001
:101870005004001004ED00E08003001008B540B9EA
:101880000D4B4FF080521A60BFF34F8FBFF36F8F35
:1018900008BD0A4B196829B1094940F23C5002F0D1
:1018A00031FFFEE7FFF7DAFEFFF77CFDFFF770FF81
:1018B0000028E5D0ECE700BF04ED00E05404001080
:1018C00057B200002DE9F041054604F02AFC0B2830
:1018D00005D9164940F67A1002F014FFFEE7FFF72B
:1018E000BDFEDFF858800A261427013E294607FB73
:1018F0000680FFF70DFC044690B9002EF5D10C4B85
:101900001868FFF705FC044650B90A4B29461868C9
:10191000FFF7FEFB044618B90748FFF7F9FB04463A
:10192000FFF736FF2046BDE8F08100BF4AB3000054
:10193000780300107C030010AC040010800300103A
:1019400038B5274B1A68274B12B101221A6038BDEF
:101950001A6002F003FF244A244C1568A84204D9F7
:1019600021680B6D5B1B03440B65236810601B6BC8
:101970001A68B2F1A53F0BD15A68B2F1A53F07D161
:101980009A68B2F1A53F03D1DB68B3F1A53F04D05B
:1019900020682168343102F097FE154B1B68B3FABA
:1019A00083F3DBB2C3F11F03142212495A43881890
:1019B0008D582DB9104940F6B73002F0A3FEFEE76E
:1019C000456808326D6845600A44954204BF6A68FC
:1019D0004260142202FB03135B68DB682360B6E7F6
:1019E00054040010C40400104804001074030010D4
:1019F0005C04001080030010B0B2000070B5044613
:101A00002A4EFEF767FD04B93468251D2846FEF707
:101A1000F0FE60B9E06A264B142141435B5833B9AC
:101A2000244901220B68824023EA02030B60A36A67
:101A30001BB104F11800FEF7DCFE29461E481F4DBD
:101A4000FEF7B4FE94F85830012B04BF002384F84D
:101A50005830FEF761FD2A682AB1FEF73BFDFFF71B
:101A600027FCFEF759FD3368A34212D12B688BB1D6
:101A7000134B1B682BB1134940F2E46002F042FEA5
:101A8000FEE7114B4FF080521A60BFF34F8FBFF348
:101A90006F8F70BD084A11680C4A1268914201D1DB
:101AA0003360F6E7BDE87040FFF74ABF74030010EB
:101AB000800300105C040010AC040010A8040010A7
:101AC0005404001057B2000004ED00E04C04001074
:101AD00010B50C4628B9084940F6CE3002F012FE87
:101AE000FEE7064B19681831FEF76CFE204601210F
:101AF000BDE81040FFF756BC71B20000740300103F
:101B000038B5C368DC682CB9164940F6294002F0A4
:101B1000F9FDFEE704F118052846FEF76AFE124BB0
:101B20001B68E3B9251D2846FEF763FE0F49E26AEC
:101B300008680123934003430B600D4B1420294692
:101B400000FB0230FEF732FE0A4BE26A1B68DB6ADA
:101B50009A4283BF084B01201860002038BD2946F7
:101B60000648EFE7D2B30000540400105C040010F4
:101B70008003001074030010C404001094040010CB
:101B8000034B1B680360034B1B684360704700BF37
:101B900090040010C004001070B50C46054628B92A
:101BA000164940F6944002F0ADFDFEE729B914490C
:101BB00040F6954002F0A6FDFEE7FEF78BFC114BC8
:101BC000196823685A1C10D00F482E6800686A688C
:101BD000864201D08A420FD9881A83420AD95B1AF9
:101BE000134423602846FFF7CBFF0024FEF794FC44
:101BF000204670BD002323600124F7E7A1B2000056
:101C0000F7B20000C004001090040010014B012244
:101C10001A607047C404001070B50C46164605469D
:101C200008B91B4A1568256005F134026260EA6A4A
:101C300022612A6BE2612A6CA260AA6C6261052BA8
:101C40002A6DA2611AD0124A1268AA420AD1002350
:101C50002373D6B1296B0023CA5CA52A13D09B0835
:101C6000238470BD032B2373F3D1FFF7F7FCAB6A1A
:101C70000BB102232373FFF78BFDEAE72846FFF73A
:101C80003BFC2073E5E70133E6E72684E9E700BF84
:101C9000740300102DE9F84F0D6881460C469346F9
:101CA00015B34B685B684B6001F10806B34204BF93
:101CB000CB684B604B68D3F80C8000254FF0240AAA
:101CC00063685B6863609E4204BF736863606368B7
:101CD000DF680AFB05915B4601223846FFF79CFF4F
:101CE000B84505F10105EBD12846BDE8F88FFFFFA7
:101CF0002DE9F04705469046FFF7B0FC1D4B1B68E9
:101D00008B4234D8DFF87C900A2700244FF0140A65
:101D10002426013F06FB045001220AFB0791FFF72E
:101D2000B9FF0444002FF4D1134B0222196806FBBB
:101D30000450FFF7AFFF114B04441968022206FB61
:101D40000450FFF7A7FF044406FB045003220C498C
:101D5000FFF7A0FF0444B8F1000F03D002F0FEFC2F
:101D6000C8F80000FFF714FD2046BDE8F087002406
:101D7000F8E700BF4C040010780300107C0300104B
:101D8000AC04001080030010054B1B6833B1054BF9
:101D90001B68002B0CBF02200020704701207047F9
:101DA000A8040010540400102DE9F0410446002856
:101DB00035D0234AC36A1168C96A8B42174636D2A6
:101DC0008269204D002AA1BF3A68D26AC2F10A0294
:101DD00082611426426906FB03539A4221D100F125
:101DE00004084046FEF705FD174B48B9E06A464334
:101DF000AA592AB91A680121814022EA01021A600F
:101E00003A681968D26AE262012404FA02F00843CF
:101E100018601420414600FB0250FEF7C7FC204624
:101E200003E03B68DB6AC3620120BDE8F081136810
:101E3000806CDC6AA0422CBF00200120F5E700BFC7
:101E400074030010800300105C040010F8B5044611
:101E500008B90020F8BD1F4B1B68834205D01E49FE
:101E600040F6D17002F04EFCFEE7DB6C2BB91B494B
:101E700040F6D27002F046FCFEE7C16A826C013B7C
:101E80009142C364E5D0002BE3D1051D2846FEF73F
:101E9000B0FC134E134A50B9E76A142179437358C2
:101EA0002BB913680120B84023EA00031360A36C28
:101EB000E362C3F10A01A1611168012404FA03F08D
:101EC00008431060142000FB03602946FEF76EFCF7
:101ED0002046BFE774030010A7B30000BDB30000A5
:101EE000800300105C040010F8B50446002847D0B9
:101EF000C26C2AB923494FF4815002F003FCFEE77B
:101F0000836C994238BF1946C36A8B4238D0012A84
:101F100036D11D4A1268824205D11C4941F23B006C
:101F200002F0F0FBFEE78269194DC162002A4FF012
:101F300014064269A8BFC1F10A0106FB0353A8BFFA
:101F400081619A421CD1071D3846FEF752FCE26AB5
:101F5000104C40B95643AB592BB92368012191402D
:101F600023EA010323602168012393400B431420DB
:101F70002360394600FB0250BDE8F840FEF716BC6E
:101F8000F8BD00BFBDB30000740300107DB20000B7
:101F9000800300105C040010044B1A681AB1196821
:101FA000CA6C0132CA641868704700BF740300101D
:101FB00070B5FFF753FB144D0A241426013C06FBB1
:101FC00004F3E818EB580BB1FFF7CCF8002CF5D16F
:101FD0000E4B1A68126812B11868FFF7C3F80C4B61
:101FE0001A68126812B11868FFF7BCF8094803684C
:101FF0000BB1FFF7B7F8084B00221A6002F0B8FBEC
:10200000BDE87040FFF7C4BB8003001078030010E8
:102010007C030010AC0400104804001010B502F05E
:102020009DFB064B064A196829B1196814680B6DA7
:102030001B1B03440B65106010BD00BF7403001030
:102040004804001008B502F089FB014B186008BD78
:102050004804001038B50D46044658B103290BD981
:102060000A46002102F022FE23462A0A03F8022B28
:1020700065701C46204638BD0024FBE710F8023C82
:1020800010F8010C40EA0320033880B2704708B50D
:10209000FFF7F4FF013080B208BD08B510B104F0BD
:1020A00040F880B208BD10B50446FFF7F6FF0246BF
:1020B0002046FFF7E3FF824234BF0020012010BD1D
:1020C00002F0E2BC00230370704710B50446FFF72E
:1020D000DEFF13460A460146204604F027FF20EAA9
:1020E000E07080B210BD0EB403B503AA52F8041B11
:1020F0000192FFF7EAFF02B05DF804EB03B070470E
:102100000EB403B503AA52F8041B019204F040FF79
:102110000028CCBF80B2002002B05DF804EB03B011
:10212000704738B505460C46084671B103F0F9FF13
:1021300001462846FFF7A2FF89B28142024605D830
:102140002146284604F02AF8012038BD0020FCE78B
:1021500038B51546FFF77EFF044610B12946FFF754
:10216000E0FF204638BD2DE9F04105460F461446F4
:102170000AB3FFF792FFB84206461CD3204603F08D
:10218000D0FF32188046284692B2FFF777FF82428E
:1021900011D8C7F101023D44324492B2294605EB01
:1021A000080002F069FD42462146284603F0F6FF8A
:1021B0000120BDE8F0810020FBE770B506460C4623
:1021C000A9B1FFF76AFF0546204603F0AAFF82B2D5
:1021D000A918304689B2FFF751FF884207D3013270
:1021E00092B22146701902F039FD012070BD002025
:1021F000FCE707B500238DF8041001A98DF8053020
:10220000FFF7DBFF03B05DF804FB08B529B103F06D
:1022100055FFB0FA80F0400908BD0846FCE770B5EC
:10222000064615460C4661B1FFF737FFA84208D3B2
:102230002A462146304603F09FFFB0FA80F040095D
:1022400070BD0020FCE770B505460C4681B1FFF774
:1022500024FF0646204603F064FF8642024607D369
:102260002146284603F066FFB0FA80F0400970BDB1
:102270000020FCE72DE9F041074614460D46C9B1A0
:10228000C2B1FFF70AFF8046284603F04AFF8045A7
:1022900006460FD302462946384603F06DFF48B97B
:1022A000B85D237883421ABFB0FA80F0400901205C
:1022B000BDE8F0810020FBE710B50446FFF7EDFE16
:1022C00040B1013880B2205C0D2804D0A0F10A038F
:1022D0005842584110BD0120FCE770B50C46054638
:1022E0001646FFF7DAFEA04211D9011BB142C4F134
:1022F00001030A461844A8BF3246801A14FA82F134
:10230000294482B2281902F0B7FC012070BD0020D8
:10231000FCE70A460021FFF7E0BF38B50C4605464A
:10232000FFF7BBFEA04224BF001B81B22246284615
:1023300038BF0021BDE83840FFF7CFBF10B50446D5
:1023400003F03FFF031E1FBF1B1B9BB20022012097
:102350000CBF0020E25410BD10B5044603F0CAFEC5
:1023600038B1011B0131204689B2BDE81040FFF7AA
:10237000D0BF10BD70B50646054611480C462B4629
:1023800013F8011BC9B10A5C520714D524B12846C1
:1023900002F07AFB20600124094A294615F8013B26
:1023A00013B19B5C5B07F8D4891B89B23046FFF7F9
:1023B000B0FF204670BD1D46E1E70C46ECE700BFCC
:1023C0006FBC0000F8B506460C46C9B1FFF765FEC4
:1023D0000546204603F0A5FE6B1E33442044013E13
:1023E0000021B34202D02246824201D1012008E0FE
:1023F00012F8015B1F78AF42F6D103F80119F0E73C
:102400000846F8BD07B501220221002000F0F4F8CB
:1024100001220321002000F0EFF804220021012016
:1024200000F0EAF801210422084600F0E5F8042251
:102430001146012000F0E0F80821012000F032F9F7
:102440002B4B4FF480729A610921012000F00AF9A8
:1024500002220A21002000F0CFF802220B21ADF861
:102460000000002000F0C8F8ADF80400009800F06B
:10247000D2F8019800F0CFF80321022000F012F901
:102480001C4B00B21870C0F3072058701A210120AD
:1024900000F008F9184B00B21870C0F3072058700C
:1024A0001821012000F0FEF8144B00B21870C0F3A0
:1024B000072058701221012000F0F4F8104B00B2F0
:1024C0001870C0F3072058700A21012000F0CAF8E4
:1024D0000F21012000F0C6F81E21002000F0C2F8F4
:1024E0001D21002003B05DF804EB00F0BBB800BF75
:1024F00020800920CE040010CC040010CA04001073
:10250000C8040010024B4FF48072DA61704700BFBC
:1025100020800920024B4FF480729A61704700BFFF
:1025200020800920034B586980F40070C0F34020DC
:10253000704700BF20800920074B82B01B88ADF890
:1025400004309DF80430002063F307009DF8053047
:1025500063F30F2002B07047C8040010074B82B02D
:102560001B88ADF804309DF80430002063F30700A9
:102570009DF8053063F30F2002B07047CA040010C5
:10258000074B82B01B88ADF804309DF80430002062
:1025900063F307009DF8053063F30F2002B0704726
:1025A000CC040010074B82B01B88ADF804309DF8B6
:1025B0000430002063F307009DF8053063F30F201B
:1025C00002B07047CE04001082B0C3B2ADF8040070
:1025D000C0F30720800000EBC31000F1804000F53D
:1025E000303001F00701036823F00703036003683C
:1025F0001943016002B0704737B58DF801108DF8AE
:10260000000004460D4600981146FFF7DDFF44EA3E
:10261000052003B030BD82B0C3B2ADF80400C0F3F2
:102620000720800000EBC31000F1804000F530303F
:10263000036843F48063036002B0704782B0084BC4
:10264000ADF80400C0B2012253F820109DF8050037
:102650000B68824023EA02030B6002B0704700BFA0
:10266000F8B3000037B58DF800008DF8011004466E
:1026700000980D46FFF7E2FF44EA052003B030BDA5
:1026800082B0074BADF80400C0B253F820209DF88B
:1026900005001168012383400B43136002B07047AB
:1026A000F8B3000037B58DF800008DF8011004462E
:1026B00000980D46FFF7E4FF44EA052003B030BD63
:1026C00082B0084BADF80400C0B29DF8051053F875
:1026D00020305A6901238B40134214BF012000208F
:1026E00002B07047F8B30000C2B2054BC0F3072038
:1026F00053F82220012382B08340936102B07047D7
:10270000F8B30000C2B2054BC0F3072053F82220F3
:10271000012382B08340D36102B07047F8B3000058
:1027200007B5ADF804000198FFF7CAFF28B101987A
:1027300003B05DF804EBFFF7E5BF019803B05DF867
:1027400004EBFFF7D1BFFFFF2DE9F0410F4C04EB85
:10275000C00306461D7928460F46904600F066FAEB
:1027600054F8364000233F2263604146A360284668
:1027700022606361A361E3612362636200F07AFA1D
:102780000123E7606360BDE8F08100BF10B4000082
:10279000074B53F8303030B501205C6901EB41053F
:1027A000A84020435861183343F8212030BD00BFB2
:1027B00010B40000034B53F83020012303FA01F159
:1027C0001160704710B40000024B53F83030986825
:1027D000704700BF10B40000024B53F830309960CE
:1027E000704700BF10B400002DE9F047089F344E39
:1027F00092461A1C18BF012298463B1C18BF0123A1
:102800009A4205460C4613D1002433682D48D968F6
:1028100002F0F6F933682A7B2B49D86802F038F9C0
:1028200033680A20D96802F07DF92046BDE8F087B8
:102830004FF0FF318068FEF74BFB0028E4D0FFF734
:10284000A3FA002181466868FEF742FB00232B7340
:10285000099BAB6133686C7385F80EA0D968194881
:10286000C5E9048702F0CCF933681849D8682246D4
:1028700002F00EF933680A20D96802F053F92B6888
:102880002022B9F1020F1A6010D140F6B831686801
:10289000FEF71EFB88B12C7BB4FA84F46409002394
:1028A0001A461946A868FEF7EFF8AEE700216868F7
:1028B000FEF70EFB0028F9D0EDE70446EFE700BF76
:1028C000900100104FB4000082B4000054B4000026
:1028D000F7B56A4F04683B686668D968054668487A
:1028E00002F08EF93B686749D868324602F0D0F8AA
:1028F0003B680A20D96802F015F9502E00F0AC8030
:102900001FD8182E6AD00FD8082E5CD0102E60D099
:1029100063682B732023A361102323600823A36122
:102920002368DB06FCD465E0382E00F0A380402E3F
:1029300000F08980282EEBD16B7BD8076FD5202340
:102940003FE0A02E3CD014D8602E20D0802E26D080
:10295000582EDDD12B69A2681A700023AB612023A9
:10296000A361102323600823A3612368DA06FCD443
:1029700040E0B82E03D0C02E22D0A82EC8D1687F48
:10298000431C6B7704F1080101F04CFE0DE00423B9
:1029900023600823A36101232B7703B0F0BD2B7FB5
:1029A00033B100232B77A3686B770823A361F4E787
:1029B000687F431C6B77A168C9B201F041FEF4E760
:1029C00004232360F1E76B7B03F0FE03A360A661A1
:1029D000E3E76B7B43F00103A360E6E7A9692022EC
:1029E000A2610823C1B9A26110222260A3612368F9
:1029F000DE06FCD4002301A968680193FEF778F98C
:102A0000019B002BC9D0204B4FF080521A60BFF3BE
:102A10004F8FBFF36F8FC0E7AA7BA260C6E7AB6999
:102A20004BB92023A361102323600823A3612368EB
:102A3000D906FCD4DEE76A69013B12F8011BA160EC
:102A40006A61AB61B1E72023A361AB69012B4FF051
:102A50000403B6D8A361A8E72B69A2681A702B6992
:102A600001332B61AB69013B012BAB614FF00403D8
:102A7000A7D1EFE763682B73BCE700BF900100109C
:102A80004FB400003CB4000004ED00E00148FFF743
:102A90001FBF00BF480000100148FFF719BF00BF6B
:102AA000280000100148FFF713BF00BF0800001006
:102AB0002DE9F043274B06461546884693E8070064
:102AC00085B004AB03E9070040F60A33ADF80030E7
:102AD0000C238DF80230204A730102EB0309D4580D
:102AE00004AB334403220021012013F8107CFDF7CE
:102AF000A5FFC9F804000120FEF789F8C9F808000D
:102B0000384600F093F86C23A361144A144B9045A7
:102B100088BF98462823B5FBF8F25208C8215343D2
:102B2000B3FBF1F323613C235A430023B2FBF1F2E0
:102B30006261A36263622362E3604023236004ABAB
:102B400003EB8606384656F80C1C05B0BDE8F0438A
:102B500000F090B830B400000800001040420F00B0
:102B6000A086010013B5049C019400240094044C39
:102B700041F0010104EB4010FFF736FE02B010BD3A
:102B8000080000101FB500238DF80F3001230093BB
:102B90000DF10F03FFF7E6FF9DF80F0005B05DF89C
:102BA00004FBFFFF13B5049CCDE90034044C002363
:102BB00001F0FE0104EB4010FFF716FE02B010BD5D
:102BC000080000101FB5002200920DF10F038DF8D0
:102BD0000F20FFF7E7FF05B05DF804FB1FB58DF888
:102BE0000F30012300930DF10F03FFF7DBFF05B05A
:102BF0005DF804FBFEE7FFFF08B5FFF70FFA084B8F
:102C0000084A1B78103BDBB252F823309847064B3A
:102C100000221A601B68BDE80840FFF713BA00BF26
:102C200004ED00E068000010D0040010242809D84A
:102C3000054B064A185CD2F8C410012383400B43AD
:102C4000C2F8C430704700BFA0B4000000C00F40FD
:102C500024289FBF054B064AD3F8C430105C9ABFA6
:102C600023FA00F000F001000020704700C00F4080
:102C7000A0B40000074B43F8201043B2002B08DB40
:102C8000012200F01F0002FA00F05B09024A42F83C
:102C9000230070476800001000E100E073B54FF0BA
:102CA000FF33B1F5805F019336D21D4C2369DE07F7
:102CB00034D41C4B1D69ED0730D41B4D0326AE6088
:102CC0002E611A4D1D6002B301AE5E6041F00046F8
:102CD000DE6041F20F061E61DAB1206041F08061D2
:102CE00040F68112E16065602261114A516A41F04B
:102CF00003015162D868C0F30B000028FAD1536A6F
:102D000023F00303536202B070BD586041F00846DF
:102D1000DEE701AA2260E3E70120F4E70220F2E700
:102D200000010820200108200000082008C00A40F7
:102D300000C00A4010B50446FDF770FA4FF47A73EC
:102D4000B0FBF3F00223B0FBF3F2A24202D8034A35
:102D5000136110BD0233DBB2F5E700BF00C00A40CB
:102D600010B504462420FFF761FF0B4B07221A60C1
:102D700002225A602046FFF7DDFF1A20FFF756FFB8
:102D8000064B01221A631A6BD207FCD5044A0023B2
:102D9000936042F8183C10BD00C00A4000000820B3
:102DA00020010820034B9860DA68D206FCD49868AA
:102DB000C0B2704700C00A400122FFF76FBF002277
:102DC000FFF76CBF02689368C3F34203022B73B52D
:102DD000064623D0062B21D0012B34D100248DF8B8
:102DE00003400194102501AA0DF103017068FEF75C
:102DF0002FF948B133689DF803201A70019B002B0E
:102E000018BF0124013DEED10CB3124B4FF080529C
:102E10001A60BFF34F8FBFF36F8F18E00024019447
:102E200033681A7DD207EFD51B788DF8033001AADD
:102E300000230DF10301B068FDF7FCFE019B002BA0
:102E400018BF0124ECE7137DDBB20193019B02B0B4
:102E500070BD00BF04ED00E00148FFF7B3BF00BF45
:102E6000300100100148FFF7ADBF00BF2401001082
:102E70000148FFF7A7BF00BF180100100148FFF786
:102E8000A1BF00BF0C010010134B70B515460646DC
:102E9000185C0C462D01FFF7C9FEB4FBF5F307EEF5
:102EA000903AF8EE677AB6EE007A77EE877A0C20E1
:102EB000FCEEE77A7043094A17EE903A12589BB23B
:102EC00080211173190ADBB211711370102382F87B
:102ED00028300723137370BDD8B400000C01001014
:102EE000074B10B50446185CFFF7B2FE38B10C2052
:102EF0006043044B1B58187B003018BF012010BDE5
:102F0000D8B400000C010010044A0C2303FB00207D
:102F10004068003018BF0120704700BF0C0100104E
:102F20002DE9F041054688461646FFF7D9FF0746CA
:102F300018B900273846BDE8F081154C0C2303FB77
:102F400005439A6822B9B8F1000F01D0C3F8088090
:102F50000C2303FB05435A680AB906B15E600C26D0
:102F60006E43A3199A68002AE3D05B68002BE0D077
:102F7000084B53F82510084B585DFFF77BFEA3590B
:102F800041221A7206221A7207225A60D2E700BF43
:102F90000C010010C8B40000D8B4000038B50C23F0
:102FA0004343074A0D46D458FFF79AFF30B1237DBB
:102FB0009A06FCD52570237D9B06FCD538BD00BF45
:102FC0000C01001070B5044615460E46FEF7DCFEF7
:102FD0000F4B0C2202FB0434A468B4B1022814D1B4
:102FE0006B1C09D04FF47A70A5FB00014FF47A7284
:102FF000002301F0C7FB05462A4631462046FDF76F
:10300000C9FE003018BF012070BD0020FCE700BFE2
:103010000C0100102DE9F84306460F46124DFEF74D
:10302000B3FE0C2404FB065381463046D3F80880D7
:10303000FFF756FFA0B1B9F1020F0AD1B8F1000FA6
:1030400007D0394630464FF0FF32BDE8F843FFF76E
:10305000B9BF74432B591A7DD207FCD51B783B703E
:103060000020BDE8F88300BF0C010010F7B51F4D2C
:103070008DF8071007461646FEF786FE0C2303FB65
:1030800007535C6864B302282DD1711C09D04FF43A
:103090007A70A6FB00014FF47A72002301F072FBF4
:1030A0000646002332460DF107012046FDF7ECFCF1
:1030B000041C18BF0124FDF70DFA0C2078432B18CF
:1030C0002D582A7D520609D500220DF107015868B6
:1030D000FDF7BEFF10B19DF807302B70FDF71CFA0D
:1030E000204603B0F0BD0024FAE700BF0C01001039
:1030F0002DE9F84F06461446884610461B49DFF86E
:103100007C90DFF87CA0DFF87CB0FEF7ECFFB368C2
:1031100021464046984735680DB9BDE8F88F6F687D
:10312000384602F0FEFF32288CBF514649463B46E6
:103130002A682046FEF7D7FF59462046FFF7FEF8DB
:103140000B4907462046FFF7F9F807B918B10949B6
:103150002046FFF732F808492046FFF72EF8B368FB
:10316000214640469847ED68D6E700BFDCB4000032
:1031700023B50000DDB6000022B5000038B5000020
:1031800025B5000044B5000030B504294FF0000516
:1031900038BF04210560C0E90112C36030BD11B120
:1031A0000368CB60016070472DE9F0411446054685
:1031B0000F4610464249FFF705F942492046FFF7FE
:1031C00042F8002833D03F492046FFF71EF828B1C7
:1031D000224639462846FFF78BFF68E0202120462B
:1031E000FFF7BAF8DFF8F0802E680EB92E6810E00D
:1031F000424631682046FFF73DF8002838D1F6688E
:10320000F3E76A6831682046FFF709F800282FD1F4
:10321000F668002EF5D131462B4A2046FEF7A3FF73
:10322000AB68214638469847AB6825493DE02E6893
:10323000DFF8A4800EB92E680EE0424631682046C1
:10324000FFF718F8B8B9F668F4E76A6831682046FD
:10325000FEF7E5FF78B9F668002EF6D131461B4A35
:103260002046FEF780FFAB68214638469847AFE717
:10327000AB687168D6E720212046FFF76DF8B36888
:10328000AA6821463846984788B1114A002120464D
:10329000FEF769FFAB682146384698470D497268CA
:1032A0002046FEF720FFAB68214638469847E9687C
:1032B00021B1AB683846BDE8F0411847BDE8F08160
:1032C00022B5000046B5000079B50000A2B50000A7
:1032D0004BB500005CB5000078BD000010B54C1E79
:1032E00014F8010F00B910BD02F066FDF8E7FFFF0A
:1032F00070B5A0B006461B4A80216846FEF728FF3D
:103300000446304622460021FFF74EFF2046FEF7D6
:10331000D9FE2046FEF7D0FF0028F2D101F078FC5C
:10332000C5B2082D16D12046FEF7B7FE60B10121C7
:103330002046FEF7F2FF284602F03EFD202002F074
:103340003BFD284602F038FD2046FEF7ACFE002883
:10335000DFD0D6E7284602F02FFD29462046FEF7AB
:1033600048FFF1E746B5000030B589B004AD284606
:10337000164B174A174C0421FFF706FF95E80F007C
:1033800084E80F0020461449FFF709FF204613493F
:10339000FFF705FF20461249FFF701FF20461149BC
:1033A000FFF7FDFE20461049FFF7F9FE0F4B029391
:1033B0000F4B0193032300934FF4007223460D49F2
:1033C0000D48FEF735F809B030BD00BFD3B5000099
:1033D000DD320000D40400107C0100104C0100100C
:1033E0003C0100106C0100105C010010E40C0010A6
:1033F000E404001026B60000F13200002DE9F0438D
:10340000E7B00DF198084FF4807281460E464046B1
:10341000002101F04BFC802106A8FEF71BFE05AF42
:1034200001233B6005460024009704AB03AA204912
:103430004846CDE90344FEF763FE012831D93B68D5
:1034400000939DF810209DF80C1043460220FFF7D2
:1034500089FB8146E8B1039A1649DFF86490284653
:10346000FEF741FE29462046B0473B68A34202D8FA
:1034700067B0BDE8F083049A18F804300093224442
:1034800049462846FEF72FFE29460020B047013462
:10349000EBE709492846FEF744FE29464846B0476F
:1034A000E6E706492846FEF73CFE29462046F6E7B1
:1034B0006DB700007AB70000ABB70000D8B70000C6
:1034C00094B700002DE9F043E7B000240DF198080F
:1034D0004FF4807281460F4640462146CDE90344B1
:1034E00001F0E4FB802106A8FEF7B4FD04AB06461C
:1034F00003AA29494846FEF703FE022844D12021A9
:103500004846FEF729FF20214846FEF725FF05948F
:1035100005A94846FEF72EFF0546D0B9009443465C
:103520009DF810209DF80C100220FFF73BFB814610
:1035300010B3039B1949DFF8709022463046FEF71E
:10354000D2FD31462846B847AC4207D167B0BDE846
:10355000F083059B08F804300134D9E7049A18F881
:10356000053000932A4449463046FEF7BCFD3146FB
:103570000020B8470135E7E709493046FEF7D1FD9D
:1035800031464846B847E1E706493046FEF7C9FDEF
:1035900031462046F6E700BF18B8000022B8000008
:1035A00059B8000087B8000042B80000F8B50D46D1
:1035B00028460E491646FEF746FE0D4904462846A3
:1035C000FEF741FE202107462846FEF7C5FE2CB136
:1035D00031462846FFF712FF0020F8BD27B13146DB
:1035E0002846FFF76FFFF7E70120F6E762B7000014
:1035F00067B700000123024A1A600020704700BF2D
:10360000EFBEADDE2DE9F04F89B0084604AF0D46A0
:103610009146FEF755FD041E04DDFEF7C9FC204669
:10362000FEF72CF9DAB00024FC6001F097F80DF1F8
:10363000100B786007F10C020A215846FEF758FB80
:10364000224A386022492846FEF74DFD2946204689
:10365000C847A0465E464FF0000A20E07369434524
:103660001AD1B269FB68144423B16421B3FBF1F3AE
:10367000B2FBF3F3317BCDE90232338C9B00CDE911
:103680000083144B726853F8213013492846FEF723
:103690002AFD29460020C8470AF1010A24363B6862
:1036A0005345DBD108F10108B8F10A0FD2D17B688C
:1036B0000A491A1B2846FEF716FD29460020C8476E
:1036C00000201437BD46BDE8F08F00BF52B900009E
:1036D00057B90000D0B9000082B900009FB90000BE
:1036E00010B507480C4600234FF0FF320068FDF785
:1036F000CBF92146034802F0FFFA002010BD00BFBD
:1037000020140010D9B8000070B50C4620461649A8
:103710001646FEF798FDA8B120212046FEF71CFEB4
:103720002046FEF7CFF8054640B9104A2946204604
:10373000FEF719FD21462846B04701E0FEF75EF985
:10374000002070BD0A492046FEF77DFD054648B1C0
:1037500020212046FEF700FE2046FEF7B3F8FDF7D5
:1037600001FFEDE7034AE1E7F9B8000001B9000005
:1037700022B9000029B9000042884378007843EA62
:10378000022340EA0320704710B5024410F8013BC1
:1037900011F8014B9042A3EB040301D0002BF5D0AC
:1037A000184610BD02684AB1134613F8011B1F29C1
:1037B0000BD93A29F9D1911C8B4202D04FF0FF303E
:1037C00070471278302AF9D103600020704770B535
:1037D00000F13806426B044601233146407800F080
:1037E0005BFA054688B9616BA36A226AE070CB1A5E
:1037F000934208D2A378022B05D10A440123314613
:10380000607800F049FA284670BD0125FBE738B51D
:10381000436B8B4204460D4619D0C3788BB9012304
:103820002A4604F13801607800F022FA002818BF17
:103830004FF0FF35034665630CBF0346012318466E
:1038400038BDFFF7C4FF03460028F8D1E7E700239F
:10385000F5E7FFFF38B50023C3704FF0FF33436334
:103860000546FFF7D4FF044618BB95F8372295F8B4
:10387000363243EA02234AF6552293421BD195F889
:103880003830EB2B03D01833DBB2012B15D80322D1
:103890000B4905F16E00FFF777FF40B1052209499A
:1038A00005F18A00FFF770FF002818BF02242046A8
:1038B00038BD0424FBE70324F9E70224F7E700BF3F
:1038C000E4B90000E8B900002DE9F043002385B019
:1038D0000B600F461546FFF765FF061EC0F23981E3
:1038E000A44B53F82640002C00F03581206900F0ED
:1038F0009EF9002800F031813C60237805F0FE0538
:103900006BB1607800F0AFF9C10708D41DB110F0B9
:10391000040500D00A25284605B0BDE8F083002341
:10392000F0B22370607000F090F9C20700F11781C7
:103930000DB14307EED400212046FFF78BFF02288C
:1039400040F0EE806F4604F5FF7104F23E263D46DE
:1039500011F8040C10B10846FFF70EFF10318E422B
:1039600045F8040BF4D1002557F8046B002E00F045
:10397000CE8031462046FFF76DFF012800F2C88057
:1039800094F8442094F8433043EA0223B3F5007FCF
:1039900040F0CA8094F84F3094F84E5055EA032511
:1039A00004D104F15C00FFF7E7FE054694F84810E7
:1039B00025624B1E012BA17000F2B68094F8459051
:1039C0001FFA89F36381002B00F0AE8009F1FF3309
:1039D00013EA090F40F0A88094F84A3094F849702F
:1039E00047EA03273FB21FFA87F818F00F0FA4F831
:1039F000088040F0998094F84C3094F84B0050EADD
:103A0000032003D104F15800FFF7B6FE94F84720D5
:103A100094F8463053EA022300F0868005FB01FC4F
:103A200003EB1812624490427ED3801A4845B0FBE3
:103A3000F9F179D35048814276D84FF6F57081423A
:103A400040F28F804FF00309023133443244B9F120
:103A5000030FE1616662A362226369D194F8632077
:103A600094F8623043EA02231F433FB2002F5BD138
:103A700004F16400FFF780FEE062890001F2FF11AB
:103A8000B5EB512F50D34FF0FF33C4E90533B9F1F3
:103A9000030F4FF0800323712FD194F8692094F81D
:103AA000683043EA0223012B27D1711C2046FFF71F
:103AB000AEFE10BB94F8372294F83632207143EAF8
:103AC00002234AF65522934217D104F13800FFF73A
:103AD00053FE2A4B984210D104F50770FFF74CFEB5
:103AE000274B984209D104F50870FFF745FEA06105
:103AF00004F50970FFF740FE6061224A84F80090E7
:103B0000138801339BB21380E380002503E7032071
:103B10000135042D7FF428AF042805D10125FAE6EC
:103B20000428FBD0012801D90D25F4E6002627E75B
:103B3000B8F1000FF8D06344B9F1020FE3624FEA25
:103B400041031BBF5B1801F00101194601EB530152
:103B500094E70B25DFE60C25DDE60F25DBE60325E4
:103B6000D9E640F6F57949458CBF4FF002094FF090
:103B7000010969E7400D0010F5FFFF0F5252614146
:103B800072724161440D001040B1A1F10B03012B91
:103B900004D90F2902D0006900F052B87047FFFF26
:103BA000F0B585B0CDE9001003A814460391FFF7E6
:103BB000F9FD051E28DB154F57F825604EB1306919
:103BC00000F030F818B90224204605B0F0BD0023FB
:103BD0003370019979B9019B47F82530002CF3D057
:103BE00001A900226846FFF76FFE044601460198CE
:103BF000FFF7CAFFE8E7002301F8103BE8B200F046
:103C000007F80028E7D1DEE70B24DDE7400D0010C0
:103C100010B501200C46FCF7FAFF2060003018BFF9
:103C2000012010BD08B5FDF761FA012008BD08B5F7
:103C300040F6B831FDF74CF9431E5842584108BDD3
:103C400000231A461946FCF71FBF10B5044600F0C2
:103C500069FB34B900F0FAF8044600F07DFB204619
:103C600010BD0424F9E708B900F08EB904207047AC
:103C7000F8B507460C4615461E4600F053FB4FB9F3
:103C80002046F2B2294600F087F9044600F064FBB2
:103C90002046F8BD0424F9E7F8B507460C4615465A
:103CA0001E4600F03FFB4FB92046F2B2294600F015
:103CB000B9F9044600F050FB2046F8BD0424F9E7AA
:103CC00038B500F099FB00F5FA75FF20FFF76AF8A8
:103CD000FF20FFF767F8FF28044603D000F08CFBB5
:103CE0008542F5D8204638BD08B5FEF70BFCFFF736
:103CF000E7FFFEF70FFC034A137843F0010313704C
:103D000008BD00BF8C01001038B505460C46FFF712
:103D1000D7FFFF2821D12046FFF744F8FD2C1ED005
:103D2000AC1C05F2022514F8020CFFF73BF8023434
:103D300014F8030CFFF736F8AC42F4D1FF20FFF77C
:103D400031F8FF20FFF72EF8FF20FFF72BF800F0E7
:103D50001F00431F5842584138BD0020FCE7012096
:103D6000FAE737B5020604460D4607D5002177204D
:103D7000FFF7F7FF012831D804F07F04FEF7CAFBF4
:103D8000FEF7C0FBFFF79CFFFF282BD1402C27D06C
:103D9000482C0CBF872301232A0E8DF801202A0C02
:103DA0008DF8022006212A0A68468DF800408DF819
:103DB00003208DF804508DF80530FEF7FDFF4C2CE4
:103DC00002D1FF20FEF7EEFF0A24FF20FEF7EAFFF4
:103DD000030603D5013C14F0FF04F6D103B030BD57
:103DE0009523D9E7FF20F9E770B5054600F004FBFD
:103DF00000F16406FF20FEF7D5FF044600F0FCFA50
:103E0000864201D3FF2CF5D0FE2C0CD14FF400716B
:103E10002846FEF7D4FFFF20FEF7C4FFFF20FEF781
:103E2000C1FF012070BD0020FCE7FFFF38B5064D43
:103E30002C78E4B2FEF776FB18B104F0FD042C7088
:103E400038BD44F00304FAE78C0100102DE9F3417A
:103E5000FFF7ECFF4A4B1A7812F0020F1E4604D00F
:103E60001878C0B202B0BDE8F081C820FEF762FF4A
:103E70000A25FF20013DFEF795FF15F0FF05F8D15B
:103E8000FEF740FB29464020FFF76BFF0128044660
:103E900071D100F0B1FA4FF4D57100F57A7748206E
:103EA000FFF75FFF012848D101ADA8460424FF2099
:103EB000FEF778FF013C14F0FF0408F8010BF6D17F
:103EC0009DF80630012B56D19DF80730AA2B52D110
:103ED00000F092FA874206D94FF08041E920FFF7BF
:103EE00040FF0028F4D100F087FA874243D900212F
:103EF0007A20FFF736FF00283DD10424FF20FEF78B
:103F000051FF013C14F0FF0405F8010BF6D19DF8B8
:103F1000043013F0400F14BF0C240424194B1C7000
:103F2000FEF7F8FA4CB3337845F6C05003F0FE03C1
:103F30003370FEF7FFFE307893E72946E920FFF75C
:103F400010FF022836BFE9254125022400F054FA6B
:103F5000874205D900212846FFF703FF0028F5D145
:103F600000F04AFA874206D84FF400715020FFF75C
:103F7000F8FE0028D2D00024D0E7FFF7B5FEDAE73C
:103F80008C010010460D001008B5FFF74FFF014BE4
:103F9000187808BD8C01001070B5144605460E4611
:103FA000FFF744FF002C35D01C4B1B78DA0733D4C5
:103FB000FEF7A8FA1A4B1B781B0758BF7602012C94
:103FC000314611D15120FFF7CCFE38B94FF40071C2
:103FD0002846FFF709FFB0FA80F46409FEF79AFA61
:103FE000201C18BF012070BD5220FFF7BAFE002828
:103FF000F4D14FF400712846FFF7F6FE28B1013CDA
:1040000014F0FF0405F50075F3D100214C20FFF7F3
:10401000A8FEE3E70420E6E70320E4E78C010010B4
:10402000460D001070B5144605460E46FFF7FEFE1D
:10403000002C41D0234B1A78D0073FD41B78590766
:104040003ED4FEF75FFA204B1B781A0758BF760262
:10405000012C11D131465820FFF783FE50BBFE21C1
:104060002846FFF751FEB0FA80F46409FEF752FAD1
:10407000201C18BF012070BD13F0060F03D021468D
:10408000D720FFF76EFE31465920FFF76AFE002861
:10409000ECD1FC212846FFF737FE28B1013C14F093
:1040A000FF0405F50075F4D1FD210020FFF72CFE7B
:1040B0000028DBD10124D9E70420DCE70320DAE77C
:1040C0000220D8E78C010010460D001008B5064606
:1040D00002F027F800240546A54200DCFEE7315D2A
:1040E0000020FEF75BFF0134F6E7FFFF02280CD942
:1040F000074B1B685A68824207D09A68824204D0F4
:10410000DB681B1A5842584170470120704700BFB6
:1041100090010010F8B504460E461546FFF7E6FF7D
:1041200048B3164B1B68DB68A34210D0A31E5C4249
:104130005C41FDF729FE07460020FEF7E5FE022F51
:1041400017D1B0B1ACB9A54203DC2846F8BD0124B3
:10415000EFE7315D4FF0FF320020FEF787FF0134BB
:10416000F1E7315D0020FEF719FF0134A542F8DCCC
:10417000EBE70024FAE70248FFF7A8FF90010010E0
:1041800020BA000008B5FFF7B1FF18B10020FEF714
:1041900041FF08BD0148FFF799FF00BFEEB90000DD
:1041A00008B52A22192338210220FEF717FD0D2217
:1041B00038210220FEF7E6FCA0F12A0358425841BC
:1041C00008BDFFF7EDBFF8B504460D4600F0FEF858
:1041D000061941EB0507FDF7D7FD02280CD1002396
:1041E0004FF47A72AB4208BFA24205D2204629465C
:1041F00000F0C8FAFDF742FB00F0E8F8B94208BF4A
:10420000B042F9D3F8BD4FF47A73A0FB0301FFF776
:10421000DABFFFFF30B585B0FEF7F4F8FEF78CF992
:10422000ADF80800FEF79AF9ADF80A00FEF7A8F914
:10423000ADF80C00FEF7B6F90024ADF80E0004AAA4
:1042400004F0030302EB4303013433F8080CFEF7D8
:1042500067FA3220FFF7D7FF202CF0D145F6C05087
:10426000FEF77EFD002223492348FFF799FC234BEC
:104270001868002319460222406801F037FEFBF758
:10428000D1FF002501464FF416420020FEF7FCFD49
:1042900000951B4B1B4A01212046FCF785FB1A4B5E
:1042A00000950446194A01218020FCF77DFB224637
:1042B00001462846FEF734FE154A16491648174DA2
:1042C00001F01AFDFBF7AEFF154902460220FEF78A
:1042D000EFFB0224E1B20220FEF774FC18B1214684
:1042E000284601F009FD0234B4F5807FF2D105B013
:1042F00030BD00BF24B50000B80D001090010010C3
:10430000680D0010470D001070100010F00F001025
:1043100053BA000064BA0000B5BA0000D2BA000077
:10432000801A060010B50A4C236823B909490120F8
:10433000FCF758FC2060FDF727FD022806D1206815
:104340004FF0FF31BDE81040FCF7C2BD10BD00BF0B
:10435000C0100010C410001010B5FDF715FD0228A4
:1043600008D1054800231A4619460068BDE81040E8
:10437000FCF78ABB10BD00BFC0100010074A08B58B
:1043800013680021013308461360FEF725FA002167
:104390000846BDE80840FEF70DBA00BF1411001032
:1043A00008B5074A0749B0FBF1F100200139FEF7D3
:1043B000CBF90021044A0846BDE80840FEF7E8B9F9
:1043C0007D43000040420F000087930370B5084E04
:1043D0000020FEF7F9F9054600203468FEF7F4F9ED
:1043E0008542F5D8034B0021E3FB040170BD00BFFB
:1043F000141100100087930308B5FFF7E7FF4FF48F
:104400007A72002300F0BEF908BD70B50546084673
:104410000C4601F086FE2618B44205D128460A2132
:10442000BDE87040FEF7BABD14F8011B2846FEF740
:10443000B5FDF1E708B502220A210020FEF7DCF8FD
:1044400002220B210020FEF7D7F8074A0749022075
:10445000FEF72EFB064B08221A70064B07221A7035
:10446000054B02221A7008BD00D8B805E87A010091
:1044700016140010141400101514001073B5022443
:104480000E4615460346009404227C212046FEF782
:1044900089FB3346009403227C212046FEF782FBF1
:1044A00000942B4622467C212046FEF77BFB02B07F
:1044B00070BDFF2211461046FFF7E0BF1FB58DF813
:1044C0000F00022000900DF10F038022C421FEF79F
:1044D00069FB05B05DF804FB08B50120FFF7EEFFAE
:1044E0003220BDE80840FDF7C9B9FFFF044B18783A
:1044F00040F0040240F00C001A70FFF7DFBF00BF6D
:104500001414001013B5224C4CF25030FDF7B6F9DC
:10451000207840F02000FFF7D1FF41F29410FDF722
:10452000ADF9207840F02000FFF7C8FF9620FDF796
:10453000A5F9207840F02000FFF7C0FF207840F078
:104540002000FFF7BBFFFFF7D1FFFFF7C5FF114BBF
:10455000187840F00400FFF7B1FF022400231A4648
:1045600000947C212046FEF7FDFA0094FF230822E8
:104570007C212046FEF7F6FA0094202301227C21BC
:104580002046FEF7EFFA02B0BDE81040FFF791BFFA
:1045900016140010151400102DE9F74304460C20E2
:1045A000FFF78CFF2820FFF789FF4FF4FA70FDF723
:1045B00065F9204601F0B5FD002604EB00083546FC
:1045C0004FF00209444502D103B0BDE8F08314F86E
:1045D000017B0A21384601F09AFD28B1C020FFF77F
:1045E0006DFF01260025EDE7102D04D11EB9C02076
:1045F000FFF764FF0126CDF800903B464022C4211E
:1046000002200135FEF7CEFADCE7FFFF08B5FFF721
:1046100011FFFFF777FF0248FFF7BEFFFEE700BF7D
:10462000F9BA0000044B1B5C0B70044B5A68782AE3
:1046300018BF5B68012070471811001000000A4085
:10464000064B1954064B5A68782A04D05868B0387B
:1046500018BF012070470020704700BF18110010DC
:1046600000000A4037B500240125104801F026FC5F
:104670002346CDE900544FF480620D490D48FCF704
:104680000DFF4FF400722346CDE900540A490B4850
:10469000FCF704FF0A4B0B481B68D96800F0B0FA1E
:1046A000FCF7A2FF4FF0FF3003B030BDFFBA0000AF
:1046B00007BB00000D46000026B60000693300006D
:1046C000900100100BBB00000C460020044908B507
:1046D000FFF79BFE21460020FFF797FEFEE700BF95
:1046E00051BC000008B502490020FFF78EFEFEE72E
:1046F00017BC0000024B0022C3F8C02030BF704737
:1047000000C00F4008B50C4600200A49FFF77DFEA7
:1047100009490020FFF779FE08490020FFF775FEE0
:1047200007490020FFF771FE21460020FFF76DFECC
:10473000FEE700BF1FBB000071BB0000B4BB000060
:10474000E8BB0000034B0360034B0B606423136062
:10475000704700BFB01300102012001008B5FFF71B
:1047600035FE024B1B68C01A08BD00BF18120010AE
:1047700008B5FFF72BFE024BC3E9000108BD00BFDF
:104780001812001053B94AB9002908BF00281CBFED
:104790004FF0FF314FF0FF3000F074B9ADF1080C6D
:1047A0006DE904CE00F006F8DDF804E0DDE902234F
:1047B00004B070472DE9F047089E04468846002B58
:1047C00040F085808A42154648D9B2FA82F24AB151
:1047D000C2F1200701FA02F320FA07F7954047EAF1
:1047E000030894404FEA154E230CB8FBFEF71FFA5E
:1047F00085FC0EFB178843EA084307FB0CF199423E
:1048000009D9EB1807F1FF3080F0E380994240F2BC
:10481000E080023F2B445B1AA4B2B3FBFEF00EFB18
:10482000103344EA034400FB0CFCA44509D92C19BD
:1048300000F1FF3380F0CB80A44540F2C8800238FD
:104840002C4440EA0740A4EB0C0400271EB1D440DE
:104850000023C6E900433946BDE8F087002A53D05B
:10486000B2FA82F2002A40F0B680491B4FEA154E98
:104870001FFA85F80127B1FBFEFC230C0EFB1C116F
:1048800043EA014308FB0CF1994207D9EB180CF1FC
:10489000FF3002D2994200F2EC808446591AA3B24A
:1048A000B1FBFEF00EFB101443EA044408FB00F8D1
:1048B000A04507D92C1900F1FF3302D2A04500F220
:1048C000DC801846A4EB080440EA0C40BEE78B42AB
:1048D00008D9002E78D00027C6E9000138463946AD
:1048E000BDE8F087B3FA83F77FB98B4202D38242E7
:1048F00000F2BD80841A61EB030301209846002E6C
:10490000A9D0C6E90048A6E7FFDEC7F12005BB40F5
:1049100022FA05FC4CEA030C01FA07F420FA05F828
:1049200021FA05F34FEA1C4E48EA0404B3FBFEF9F2
:10493000210C0EFB19331FFA8CF841EA034309FBE3
:1049400008FA9A4502FA07F200FA07F10BD91CEBB4
:10495000030309F1FF3080F088809A4540F285809A
:10496000A9F102096344A3EB0A03A4B2B3FBFEF06E
:104970000EFB103344EA034400FB08F8A04508D9B5
:104980001CEB040400F1FF336BD2A04569D9023857
:10499000644440EA0940A4EB0804A0FB02894C45AA
:1049A000C6464B4654D351D0002E69D0B1EB0E020F
:1049B00064EB030404FA05F522FA07F3FC401D43F7
:1049C000C6E90054002746E73746304643E7184615
:1049D00037E707461FE7C2F1200320FA03F79540A7
:1049E00001FA02F021FA03F34FEA154E3843010CA5
:1049F000B3FBFEF71FFA85F80EFB173341EA0341BC
:104A000007FB08F38B4204FA02F407D9691807F18F
:104A1000FF3C28D28B4226D9023F2944CB1A81B2CF
:104A2000B3FBFEF00EFB103341EA034100FB08F339
:104A30008B4207D9691800F1FF3C10D28B420ED986
:104A400002382944C91A40EA074714E74145ABD266
:104A5000B8EB020E69EB0C0201381346A4E760467E
:104A6000F0E7184695E76746D8E781467BE7384682
:104A700045E7ACF1020C2B4410E702382C4421E747
:104A80003746E8E6704700BF0A22002102F018BA54
:104A90000EB403B5014603AB054853F8042B006878
:104AA000019300F0DDF902B05DF804EB03B070474C
:104AB0009001001070B50E461446054618B1836982
:104AC0000BB903F09FFA144B9C421AD16C68636EC9
:104AD000D80705D4A389990502D4A06D00F0ABF8DE
:104AE00022462846314601F01FF9636EDA07054673
:104AF00005D4A3899B0502D4A06D00F09DF828463B
:104B000070BD064B9C4201D1AC68E0E7044B9C426F
:104B100008BFEC68DBE700BF40BE000060BE0000DD
:104B200020BE0000024B0A4601461868FFF7C2BFCC
:104B30009001001070B50E461446054618B1836901
:104B40000BB903F05FFA2B4B9C421ED16C68636E6D
:104B5000DA0705D4A3899B0502D4A06D00F06BF899
:104B6000A38918071BD52369CBB1013E16F8011F95
:104B700039BB656E15F0010539D1A389990502D4B9
:104B8000A06D00F059F8284670BD1B4B9C4201D126
:104B9000AC68DCE7194B9C4208BFEC68D7E72146BC
:104BA000284602F051FA0028DFD0636EDA0705D4F8
:104BB000A3899B0502D4A06D00F03EF84FF0FF35AD
:104BC000E1E7A368013B002BA36004DAA2699342EA
:104BD00006DB0A2904D023685A1C22601970C5E735
:104BE0002246284602F0DEF90130BFD1DDE70D464E
:104BF000C9E700BF40BE000060BE000020BE00004C
:104C0000024B0A4601461868FFF794BF9001001056
:104C1000074B10B51C6824B1A36913B9204603F0F3
:104C2000F1F961682046BDE8104003F0CDBD00BF3A
:104C300090010010704770477047FFFF024B01461C
:104C4000186800F089B800BF90010010024B0146BF
:104C5000186800F033B800BF900100100A44914278
:104C600000F1FF3300D1704710B511F8014B03F884
:104C7000014F9142F9D110BD884210B501EB0203FA
:104C800002D983421C4607D8421E994208D011F827
:104C9000014B02F8014FF8E783189A1A9A4200D1A3
:104CA00010BD14F8011D03F8011DF7E70244034687
:104CB000934200D1704703F8011BF9E738B5054668
:104CC000002945D051F8043C0C1F002BB8BFE41854
:104CD00003F086FE1F4A1368104633B96360146000
:104CE0002846BDE8384003F081BEA3420CD92168B4
:104CF0006218934204BF1A685B68636004BF52186D
:104D000022600460ECE713465A680AB1A242FAD95D
:104D100019685818A0420BD12068014458188242E3
:104D20001960DDD1106852685A6001441960D7E7F4
:104D300002D90C232B60D3E7206821188A4204BFD4
:104D400011685268626004BF091821605C60C7E79F
:104D500038BD00BF0C140010F8B5CD1C25F00305BC
:104D600008350C2D38BF0C25002D064601DBA94265
:104D700003D90C2333600020F8BD03F031FE214934
:104D80000A6814469CB9204F3B6823B92146304637
:104D900001F09CF838602946304601F097F8431C32
:104DA00023D10C233360304603F020FEE3E7236871
:104DB0005B1B17D40B2B03D923601C44256004E034
:104DC0006368A2420CBF0B605360304603F00EFED6
:104DD00004F10B00231D20F00700C21ACCD01B1ACF
:104DE000A350C9E722466468CCE7C41C24F003043E
:104DF000A042E3D0211A304601F068F80130DDD13D
:104E0000CFE700BF0C140010101400109368013B92
:104E1000002B10B4936008DA9469A34201DB0A29DD
:104E200003D15DF8044B02F0BDB81368581C106044
:104E3000197008465DF8044B7047F8B506460F46F2
:104E40001446D518AC4201D1002007E03A4614F8C8
:104E5000011B3046FFF7DAFF431CF3D1F8BDFFFF1B
:104E60002DE9F04F0D469DB014461E46074618B179
:104E700083690BB903F0C6F8854B9D421BD17D6851
:104E80006B6ED90705D4AB899A0502D4A86DFFF7DC
:104E9000D2FEAB891B0701D52B69EBB929463846F1
:104EA00002F0D2F8C0B16B6ED8070ED54FF0FF30CC
:104EB0001DB0BDE8F08F774B9D4201D1BD68DFE7A3
:104EC000754B9D4208BFFD68DAE7AB899905EDD4C3
:104ED000A86DFFF7B1FEE9E70023099320238DF8C1
:104EE0002930DFF8B891039630238DF82A304FF03F
:104EF000010A23461E4613F8012B0AB1252AF9D1CF
:104F0000B6EB040B0BD05B46224629463846FFF72A
:104F100094FF013000F0A380099B5B440993337830
:104F2000002B00F09C8000234FF0FF32CDE90523D9
:104F30000136049307938DF853301A9334460522B3
:104F400014F8011B554803F0FBFC049BC0B9DA06BA
:104F500044BF20228DF85320180744BF2B228DF820
:104F6000532032782A2A13D0079A344600200A2682
:104F7000214611F8013B303B092B4BD970B914E0A5
:104F8000A0EB09000AFA00F0184304902646D5E782
:104F9000039A111D12680391002A01DB079204E0B5
:104FA000524243F002030792049323782E2B0CD134
:104FB00063782A2B33D1039B1A1D1B680392002BA5
:104FC000B8BF4FF0FF3302340593354E21780322EA
:104FD000304603F0B5FC38B14023801B03FA00F0E3
:104FE000049B03430134049314F8011B2D488DF8EE
:104FF0002810062203F0A4FC00283FD02A4B13BB44
:10500000039B073323F0070308330393099B4344AF
:1050100009936EE706FB023201200C46A8E7002345
:105020000134059319460A26204610F8012B303A20
:10503000092A03D9002BC8D00591C6E706FB012138
:1050400001230446F0E703AB00932A46174B04A95B
:10505000384600F0BDF8B0F1FF3F8046D6D16B6E08
:10506000D90705D4AB899A0502D4A86DFFF7E4FDF2
:10507000AB895B063FF51AAF099819E703AB0093BC
:105080002A460A4B04A9384600F042FBE3E700BF7A
:1050900040BE000060BE000020BE000074BD0000E5
:1050A0007ABD00007EBD0000D15100003B4E0000E3
:1050B0002DE9FF4755EC104B002D0E469146194641
:1050C000DDF830A04FF0000203DA05F100431D4681
:1050D0002D220D9F0A7027F02007462F04D0452F60
:1050E00000D10136022100E0032103AB019302ABA2
:1050F00000933246534645EC104B02F09DF8472F83
:10510000804602D119F0010F22D0462F08EB060984
:1051100011D198F80030302B0AD10022002320460C
:10512000294605F06FFB18B9C6F10106CAF8006000
:10513000DAF800309944002200232046294605F081
:1051400061FB08B1CDF80C903022039B4B4508D38E
:10515000039B0E9AA3EB08034046136004B0BDE81E
:10516000F087591C03911A70EFE7F7B50029BABF11
:1051700049422D232B2309290270437021DD0DF1B3
:1051800007031F460A2691FBF6F206FB1214303481
:10519000632903F1FF3503F8014C0ADC303205F8CE
:1051A000012C023B821CBB42144605D3201A03B0DB
:1051B000F0BD2B461146E6E713F8011B02F8011B70
:1051C000F1E7302319448370041DC170EEE7FFFF3F
:1051D0002DE9F04F8DB00C46DDF8588016461F467D
:1051E000054603F031FB03680693184600F099FF6B
:1051F00000230A93D8F800300790073323F0070301
:1052000003F1080294F818A0D4F800B0C8F8002000
:10521000D3E90023C4E9122394ED127B8DED047BC6
:10522000DDE9048323F000494FF0FF32A64B4046EE
:10523000494605F019FB70BB4FF0FF32A24B4046C8
:10524000494605F0F3FA30BB00220023DDE90401F2
:1052500005F0E2FA10B12D2384F843309B4A9C4BB1
:10526000BAF1470F94BF9046984603232BF00402EF
:10527000236122604FF00009009733460BAA2146B4
:10528000284600F0CFF9013040F08C804FF0FF301D
:105290000DB0BDE8F08FDDE904231046194605F096
:1052A000E3FA40B1059B8B4A002BBCBF2D2384F849
:1052B0004330894BD4E763685A1C0AF0DF093ED1BA
:1052C00006236360002303930AAB4BF48062CDE9AD
:1052D00001A309AB0093616822600DF123039DEDEA
:1052E000040B2846FFF7E4FEB9F1470F8046099901
:1052F00008D1C81C02DB6368994241DDAAF1020AA9
:105300005FFA8AFABAF1650F20D80139524604F1E2
:1053100050000991FFF729FF0A9A1318012A8146C4
:10532000236102DC2268D20701D5013323619DF895
:105330002330002BA0D02D2384F843309CE7B9F113
:10534000470FBFD1002BBDD10123BAE7BAF1660FD9
:1053500018D1002963680BDD216113B92268D007D9
:1053600002D501330B442361A1654FF00009DEE74C
:1053700013B92268D20701D50233F4E70123F2E71B
:105380004FF0670A0A9B994205DB23682161D80721
:10539000EAD54B1CE7E70029D4BFC1F10202012284
:1053A0001344E0E723685A0507D42369424631468F
:1053B0002846B84701302BD168E7BAF1650F40F2B3
:1053C000DC8000220023D4E9120105F01BFA00283A
:1053D00033D00123414A31462846B84701303FF4D3
:1053E00055AFDDE909239A4202DB2368D8070FD5C0
:1053F000DDE9062331462846B84701303FF446AF81
:105400004FF0000804F11A090A9B013B434509DCEF
:1054100023689B0700F10181E0680B9B9842B8BFAD
:10542000184635E701234A4631462846B847013039
:105430003FF42CAF08F10108E6E7099B002B2BDCB9
:105440000123264A31462846B84701303FF41EAFB3
:10545000DDE90923134302D12368D907D8D5DDE953
:10546000062331462846B84701303FF40FAF4FF0CE
:10547000000904F11A0A099B5B424B4501DC0A9BB7
:1054800094E70123524631462846B84701303FF49D
:10549000FDAE09F10109EEE70A9AA36D9A42A8BF91
:1054A0001A46002A914607DD1346314642462846F1
:1054B000B84701303FF4EAAE04F11A034FF0000B95
:1054C00029EAE979049315E0FFFFEF7F85BD00002D
:1054D00089BD00008DBD000091BD00003EAF000001
:1054E0000123049A31462846B84701303FF4CEAE36
:1054F0000BF1010BD4F858A0AAEB09035B45EFDCD4
:10550000DDE909239A421BDB2368DA0718D4DDE9B9
:10551000092392451CDBA3EB0A09B9F1000F08DD52
:105520004B4608EB0A0231462846B84701303FF4A3
:10553000ADAE4FF0000829EAE97904F11A0A14E047
:10554000DDE9062331462846B8470130DFD19DE624
:10555000A3EB0209E1E70123524631462846B8474A
:1055600001303FF493AE08F10108DDE909239B1AED
:10557000A3EB09034345EEDC4AE70A9A012A01DC62
:10558000DB0737D50123424631462846B84701306C
:105590003FF47CAEDDE9062331462846B8470130AA
:1055A0003FF474AE00220023D4E9120105F02AF979
:1055B000D8B90A9B08F10102013B31462846B84799
:1055C00001300ED162E60123524631462846B847E3
:1055D00001303FF45BAE08F101080A9B013B4345F3
:1055E000F1DC4B4604F15002E1E64FF0000804F113
:1055F0001A0AF2E701234246DFE701234A46314611
:105600002846B84701303FF441AE08F10108E3688D
:105610000B9A9B1A4345F0DCFEE64FF0000804F1BC
:105620001909F4E72DE9F04791461F468A680B698E
:10563000DDF820809342B8BF1346C9F8003091F8D6
:10564000432006460C4612B10133C9F800302368E6
:10565000990642BFD9F800300233C9F800302568F6
:1056600015F0060507D104F1190AE368D9F80020FE
:105670009B1AAB4228DC94F843302268003318BFF1
:10568000012392062DD404F1430239463046C04727
:10569000013020D02368E568D9F8002003F0060324
:1056A000042B08BFAD1AA36822690CBF25EAE57573
:1056B00000259342C4BF9B1AED184FF000091A341D
:1056C0004D451AD1002008E00123524639463046A4
:1056D000C047013003D14FF0FF30BDE8F0870135FE
:1056E000C3E7E1185A1C302081F84300224494F8A3
:1056F000451082F843100233C5E70123224639469C
:105700003046C0470130E6D009F10109D8E7FFFF74
:105710002DE9F04306460C4601F14300097E85B0B1
:105720006E29984617460C9B00F0BA8024D863294E
:1057300039D00AD8002900F0C380582900F09180A0
:1057400004F1420584F8421035E0642901D069294A
:10575000F6D125681A6815F0800F02F104012CD0EB
:1057600012681960002A03DA2D23524284F843306C
:10577000DFF8BCC10A233FE0732900F0A58008D8F8
:105780006F2921D07029DBD1226842F020022260EB
:1057900003E0752918D07829D2D1782284F84520E1
:1057A000DFF890C161E01A68111D1960136884F870
:1057B000423004F14205012393E01268196015F0AC
:1057C000400F18BF12B2CDE7D4F800C01A681CF021
:1057D000800F02F104051D6001D0126803E01CF087
:1057E000400FFAD01288DFF848C16F290CBF082398
:1057F0000A23002184F843106568A560002DA2BF2C
:10580000216821F0040121600AB9002D46D0054627
:10581000B2FBF3F103FB112E93421CF80EE005F8E6
:1058200001ED39D9082B0BD12368DA0708D5236994
:1058300062689A42DEBF302305F8013C05F1FF356E
:10584000401B2061CDF800803B4603AA214630462C
:10585000FFF7E8FE013049D14FF0FF3005B0BDE859
:10586000F083DFF8CCC084F845101D68216855F836
:10587000042B1D600D060BD5CD0744BF41F0200160
:1058800021601AB9236823F0200323601023B0E7B6
:105890004B0648BF92B2EFE70A46B9E70546C1E7B3
:1058A0001A68D4F800C06169151D1D601CF0800FD6
:1058B000136801D0196003E01CF0400FFAD0198082
:1058C000002323610546BDE71A68111D196015689C
:1058D00062680021284603F033F808B1401B60607D
:1058E00063682361002384F84330ABE723692A46C9
:1058F00039463046C0470130AED023689B0713D4E9
:10590000E068039B9842B8BF1846A7E701234A46C0
:1059100039463046C04701309ED00135E368039ACE
:105920009B1AAB42F2DCEBE7002504F11909F5E71D
:1059300095BD0000A6BD00002DE9F04F87B01746C9
:1059400003938B685A1EB2F5AE7F83BF6FF4AE75BA
:105950005B190293002386BF40F25D138B600293B4
:105960000B688B46002543F4F0634BF81C3BCDE9F4
:10597000045581460C465E46AA46A8460195A26893
:1059800082B13B681B78492B75D04FD8392B41D851
:10599000312B80F087802D2B00F08F8017D82B2B98
:1059A00000F08B80B8F1000F03D0236823F48073DC
:1059B00023600AF1FF3ABAF1010F00F2DD805E4583
:1059C00000F2CF800125284607B0BDE8F08F2E2BCE
:1059D00000F09380302BE5D12168C80562D5029B89
:1059E00021F08001216008F101081BB1013B013267
:1059F0000293A260A368013BA36023690133236182
:105A00007B68013B002B7B6040F3A2803B68013345
:105A10003B60B4E7452B7AD0462B64D0412BC1D1F3
:105A2000BAF1010FBED14FF0020A43E0652B6ED0F0
:105A30001AD8542B5CD013D84E2BB3D1BAF1000F27
:105A400042D1B8F1000F42D1226802F4E061B1F511
:105A5000E06F3CD122F4F06222604FF0010A29E0AD
:105A6000592B1BD0612BDAE76E2BE7D012D8662BAF
:105A700039D0692B96D195BBB8F1000F95D122682A
:105A800002F4E061B1F5E06F93D122F4F06222609C
:105A900001250FE0742B2BD0792B83D1072D81D1D9
:105AA000082507E01AEB050F7FF47CAF226822F48B
:105AB000C072226006F8013B9CE7226810067FF561
:105AC00071AF22F08002F4E7BAF1020F3DD0012D50
:105AD00002D0042D7FF466AF0135EDB2EAE7032D65
