:1000000000000110E500000075010000590100002A
:100010007501000075010000750100007501000008
:100020007501000075010000750100001553000006
:100030007501000075010000195300001D530000F8
:10004000B14D0000B14D0000B14D0000B14D0000B8
:10005000B14D0000B14D0000B14D0000B14D0000A8
:10006000B14D0000B14D0000B14D0000B14D000098
:10007000B14D0000B14D0000B14D0000B14D000088
:10008000B14D0000B14D0000B14D0000B14D000078
:10009000B14D0000B14D0000B14D0000B14D000068
:1000A000B14D0000B14D0000B14D0000B14D000058
:1000B000B14D0000B14D0000B14D0000B14D000048
:1000C000B14D0000B14D0000B14D0000B14D000038
:1000D000B14D0000B14D0000B14D0000B14D000028
:1000E000B14D000008B500F02DF900F049F900F01D
:1000F00051F900F09BF800F095F801F041FE01F095
:1001000079FD00F0BFF840B141F28734002501F0DD
:1001100063FE8D4208BF8442F9D202F0F2F918B9A9
:100120000849094808F09CF90649084808F098F978
:1001300001F0F4F8064B07481B68D96807F014F97A
:10014000FEE700BFC0D10000CCD10000F9D1000013
:100150009C03001011D200001EF0040F0CBFEFF33F
:100160000880EFF309808169004A1047D10100003F
:100170007047FFFF38B50F4C0F4B10481D782368B0
:10018000D96807F0F1F823680D49D8682A4607F0C6
:1001900073F80F2D236807D80A4A0B4952F8252017
:1001A000D86807F069F8FEE7D968084807F0DCF876
:1001B000F9E700BF9C03001004ED00E04CD2000002
:1001C00066D2000058D30000A0D20000BED20000CA
:1001D00010B5044600F04AF8236883606368C36082
:1001E000A3680361E3684361236943626369013B78
:1001F000C361A3698361E3690362BFF34F8F05495C
:10020000054BCA6802F4E0621343CB60BFF34F8F23
:1002100000BFFDE700ED00E00400FA05004870476C
:1002200000D8B8050048704700D8B8050E4B072223
:10023000C3F88420AA210122C3F88020C3F88C10BF
:100240005521C3F88C10C3F8A821D3F88820520593
:10025000FBD51A6822F4704242F480421A6040F2E0
:100260000112C3F80421704700C00F400248034A3E
:10027000034BC0E90023704700000020EFBEADDE55
:100280001041522138B5224C224B22689A423DD16E
:100290006268214B9A4239D1204D21482B68D96898
:1002A00007F062F82B68A2691E49D86806F0E4FFDF
:1002B0002B68E2691C49D86806F0DEFF2B68226AC9
:1002C0001A49D86806F0D8FF2B68A2681849D86880
:1002D00006F0D2FF2B68E2681649D86806F0CCFF1A
:1002E0002B6822691449D86806F0C6FF2B6862693A
:1002F0001249D86806F0C0FF2B681148D96807F08A
:1003000033F801200023C4E9003338BD0020F9E7A9
:1003100000000020EFBEADDE104152219C03001012
:1003200098D30000EBD30000FAD3000009D40000FA
:1003300018D4000027D4000036D4000045D40000B3
:1003400054D40000094A0A4B0A498B4205D30A4B90
:100350000A4A0021934205D3704712F8010B03F8B3
:10036000010BF2E703F8011BF4E700BF44ED0000C6
:10037000000000107005001070050010C02700106C
:10038000034AD2F8883043F47003C2F888307047CB
:1003900000ED00E0044800232021C2180133292B7E
:1003A00082F80013F9D1704700E100E00E4A1368AB
:1003B00010B50E4C1918A142116002D30C4CA14289
:1003C0000BD313600B4A0C4913681844884208D3B6
:1003D0000A49884205D2106001E0002BF2D018468D
:1003E00010BD0023FBE700BF000000102800002024
:1003F0000080002004000010C02700100000011041
:10040000094B43F8202031B9084B01215A6981403A
:10041000114359617047012904D1044B1A69814085
:1004200011431961704700BF7005001080800240C1
:1004300038B50C4A00231C460120556800FA03F128
:100440000D420DD19568294218BF1C460133202B5F
:10045000F3D122460449002001F0C7FC204638BDF4
:100460001C46F3E78080024034D50000054902466F
:100470000123C86893400343CB600020024901F088
:10048000B4BC00BF8080024028D5000010B5FFF743
:10049000CFFF054B044653F8203098472046BDE86F
:1004A0001040FFF7E3BF00BF7005001038B50C4CDB
:1004B000054606F06FF92378607843EA002004F0DF
:1004C00019FA284606F066F92378607843EA002096
:1004D00004F01EFA2846BDE8384006F05BB900BFBC
:1004E000502700104B4B10B51A780446587842EA52
:1004F000002000295BD004F0FDF914F00103464B05
:100500001A78587842EA002054D004F0F3F9C4F382
:100510004002424B002A50D01A78587842EA002014
:1005200004F0E8F9C4F380023D4B002A4CD01A785D
:10053000587842EA002004F0DDF9C4F3C002394BD8
:10054000002A48D01A78587842EA002004F0D2F9FC
:10055000C4F30012344B002A44D01A78587842EA87
:10056000002004F0C7F9C4F34012304B002A40D0F9
:100570001A78587842EA002004F0BCF9C4F38012DB
:100580002B4B002A3CD01A78587842EA002004F01D
:10059000B1F9284B1A785878E40942EA002036D09D
:1005A00004F0A8F90A20BDE81040FFF77FBF04F06F
:1005B000AFF9A2E704F0ACF9A9E71A78587842EA53
:1005C000002004F0A5F9ADE71A78587842EA002037
:1005D00004F09EF9B1E71A78587842EA002004F056
:1005E00097F9B5E71A78587842EA002004F090F9B4
:1005F000B9E71A78587842EA002004F089F9BDE793
:100600001A78587842EA002004F082F9C1E704F031
:100610007FF9C7E7562700104C2700105827001015
:100620005E270010542700104E2700105A27001094
:100630005C2700105227001008B50021022004F0AA
:1006400037F93F4B00B21870C0F3072058700521EE
:10065000022004F02DF93B4B00B21870C0F30720C4
:1006600058701021002004F023F9374B00B21870A5
:10067000C0F3072058700721022004F019F9334B0A
:1006800000B21870C0F3072058701621002004F043
:100690000FF92F4B00B218700021C0F307205870DB
:1006A000084604F005F92B4B00B21870C0F3072080
:1006B00058700121022004F0FBF8274B00B218709B
:1006C000C0F3072058700421022004F0F1F8234BF6
:1006D00000B21870C0F3072058700621022004F001
:1006E000E7F81F4B00B21870C0F3072058700821BC
:1006F000022004F0DDF81B4B00B21870C0F3072095
:10070000587000213020FFF7EDFE00213020FFF768
:10071000E9FE00213020FFF7E5FE00213820FFF739
:10072000E1FE00210620FFF7DDFE00210E20FFF78D
:10073000D9FE00210120BDE80840FFF7D3BE00BF6D
:1007400050270010562700104C2700105827001083
:100750005E270010542700104E2700105A27001063
:100760005C270010522700100121FFF7BBBE70B5B7
:10077000064608F080F800240546AC4200DB70BD58
:10078000305DFFF7F1FF0134F7E700210120FFF7AB
:10079000A9BEFFFF10B50446FFF7F7FF0021802038
:1007A000FFF7A0FE2046FFF7E2FF0648FFF7DFFF56
:1007B000A8200021FFF796FE04F18000BDE810405C
:1007C000FFF7D5BF3FD50000F8B5141E07461E46FB
:1007D0002CDB8C422ADCFFF7D8FFE50100218020CA
:1007E000FFF780FE7819FFF7C2FF1148FFF7BFFF40
:1007F000104B1149186822463346C06806F03CFD8C
:10080000B44202D10D48FFF7B2FF0021A820FFF744
:1008100069FE05F1800038440134FFF7A8FFB442B7
:1008200004D10648BDE8F840FFF7A1BFF8BD00BFFE
:100830003FD500009C03001041D500005FD50000AB
:100840002DE9F0432848294D294FADF2446D07F0BA
:10085000E9FE2E46384607F0E5FE4FF0FF3202A9CA
:10086000286805F023FA0028F4D00023012202A909
:100870000DF58360019303F059F888BBDFF87880A9
:10088000DFF87890DDF82C24DDF824349A421ED06D
:100890004FF40072002186A806F0BCFD01AB4FF4B6
:1008A000007206A90DF5836003F026F9044698B995
:1008B00003464FF0FF3206A9D9F8000005F070F8A2
:1008C000224602A9306805F0F1F90028DAD00DF5CA
:1008D000836003F020FABDE7404607F0A3FED1E7AE
:1008E000044807F09FFEF2E726D6000078270010A4
:1008F000D5D60000F4D60000DED600008827001010
:100900002DE9F0471C4EDFF874A0ADF5007DB04630
:100910004FF0FF326946DAF8000005F0C7F9002809
:10092000F6D033787078DFF8589043EA002003F06F
:10093000EFFF2027002499F8003099F8010043EADE
:10094000002003F0C3FF0028F5D065010134BD424B
:100950000CDB102C07F12007EDD198F8003098F847
:10096000010043EA002003F0C5FFD1E71DF80500B0
:1009700004F09CFA0135EAE7A02700108827001050
:10098000AE270010184C19482368194DD968DFF8B4
:10099000748080B506F0E8FC164F23682A78D86882
:1009A000414606F069FC4FF47A71386805F01CFA8C
:1009B00060B12368104ED9682B785BB90F4806F0F8
:1009C000D3FC012330682B7005F0A4FF0A2005F04A
:1009D000E1FEE2E70A4806F0C7FC002330682B700E
:1009E00005F04CFDF2E700BF9C0300104ED700005D
:1009F0009C160010902700109C2700106AD700005A
:100A00007BD700005FD7000008B50549002001F042
:100A1000ECF9044B00211868BDE8084005F0F4B873
:100A200027D700008027001008B50549002001F0F5
:100A3000DCF9044B00211868BDE8084005F0E4B873
:100A400027D700007C27001008B50549002001F0D9
:100A5000CCF9044B00211868BDE8084005F0D4B873
:100A600027D700006427001008B50549002001F0D1
:100A7000BCF9044B00211868BDE8084005F0C4B873
:100A800027D70000A427001008B50549002001F071
:100A9000ACF9044B00211868BDE8084005F0B4B873
:100AA00027D7000098270010044B1B5C0B70044BE9
:100AB0005A68782A18BF5B68012070479E1600109C
:100AC00000000A40064B1954064B5A68782A04D095
:100AD0005868B03818BF012070470020704700BF29
:100AE0009E16001000000A402DE9F0418CB0164916
:100AF000684603F024F918BB144DDFF85C8005F15B
:100B000016071249684603F068F9B0B9AB7DA3B186
:100B10002B7ADB06F5D44146384607F0FCFE002868
:100B2000EFD00B4E0B4834687F2200EBC4103946DF
:100B3000013407F0DDFE3460E3E7684603F03EF978
:100B40000CB0BDE8F08100BF8AD70000F8050010A6
:100B500098160010980600108CD70000F8B51A4CB3
:100B60001A4E25787DB11A4B1A481B68D96806F0D1
:100B7000FBFB194800231A461946006804F010FFD1
:100B8000002323700DE0377877B1144814490068CA
:100B90002B464FF0FF3204F003FF01232370114B6B
:100BA0001D6000233370F8BD094B0A481B68D968E3
:100BB00006F0DAFB08483B463A463946006804F03E
:100BC000EFFE0123DDE700BF9D1600100A000010B4
:100BD0009C0300100FD7000090270010782700100A
:100BE000980600100C020010254A70B51578D5B192
:100BF000244B1B6843B91370234B24480122BDE8E2
:100C000070401A70FFF7C6BD012B02D1204A137045
:100C100070BD022B03D11F4B01221A70F8E7032B82
:100C2000F6D11D4BF8E7184B1B78002BF0D01B4B6F
:100C3000144C1B681A4E22681A49D868326006F0B4
:100C40001BFB3368226811480821FFF7BDFD164BD6
:100C50001A7822B11D70154B186805F00FFC20683A
:100C60000A4901EBC011124800234FF0FF3200681F
:100C700004F096FE0F4B01221A700F4B0022CCE7B6
:100C800009000010F40500109006001098060010EE
:100C9000F2050010F1050010F00500109C03001093
:100CA0000C02001036D700009C1600109C27001084
:100CB000782700109D1600100A000010144A10B585
:100CC0001478BCB1134B197829B100221A70124B59
:100CD00001221A6010BD114B1A781AB11970022244
:100CE0000D4BF6E70E4B19780029F3D01A700A4B1A
:100CF0000322EEE70B4B19780029EBD001210A48BB
:100D00001C701170FFF746FD034B1C60E2E700BF4B
:100D100009000010F2050010F4050010F1050010A4
:100D2000F0050010900600100B0000102DE9F047B0
:100D3000214E224C8146884630684FF47A7117461E
:100D400005F052F84FF47A7004F084F825462378C1
:100D5000607843EA002003F0B9FD0028F7D0184C72
:100D60002378607843EA002003F0D2FD022004F0EB
:100D70009DF8484604F09AF8404604F097F8384643
:100D800004F094F82B78687843EA002003F09EFD85
:100D90000028F7D02378607843EA002003F0AAFD0A
:100DA00041F2707004F056F8002330681A46194674
:100DB000BDE8F04704F0F4BD6C270010AE2700102A
:100DC0008C270010374B1B7870B5002B4BD0364B5F
:100DD000364D1B78364C3BBB2B7873B1354B93F9B2
:100DE000001011F17A0F2CD0103149B21970324B2A
:100DF00002201A78FFF79AFF23E0237823BB2F4CB9
:100E00002368032B4CD02E4B2E481B68D96806F064
:100E1000ABFA22682C48013222604FF0FF330421E4
:100E2000BDE87040FFF7D0BC284B1A7832B1103AB9
:100E3000D2B211460B201A70FFF778FF2B78002BE7
:100E4000CCD12378002B2BD01B4B1A78F62A27D035
:100E50001032D2B21A70174B022093F90010BDE87D
:100E60007040FFF763BF1A4B1B78CBB1134C23685C
:100E7000082B15D0124E17483368174DD96806F065
:100E800073FA226830682B681449C068013206F092
:100E9000F3F922682B681248013222600821BFE76B
:100EA00070BD00BF09000010F2050010F105001030
:100EB000F00500101002001008000010F4050010EA
:100EC0009C030010F6D500000B000010110200106A
:100ED000900600100BD600000C02001041D5000057
:100EE000980600104A4B1B782DE9F041002B5CD08E
:100EF000484B494C1B78494D002B2FD12378B3B177
:100F0000474C94F9002012F16A0F35D0454B464901
:100F10001B68103A52B2D868227006F0ADF9434B04
:100F200094F900101A780220FFF700FF24E02B78D4
:100F30002BBB3F4C2368002B68D03A4B3D481B68C5
:100F4000D96806F011FA22683B48013A22604FF056
:100F5000FF330421BDE8F041FFF736BC374B1A7868
:100F6000FF2A06D01032D2B211460B201A70FFF7BA
:100F7000DDFE2378002BC3D12B78002B46D02B4CE1
:100F80002278062A42D0274B2D491B68103AD2B24C
:100F9000D868227006F070F9214B227893F900107E
:100FA0000220BDE8F041FFF7C1BE264B1B78002BA5
:100FB0002CD01F4C1B4E23681F4FEBB133682248C7
:100FC000D968224D06F0D0F9226830682B68204994
:100FD000C068013206F050F922682B681D48013ABA
:100FE00008212260FFF7F0FB226833681A49D868AD
:100FF00007EBC21206F040F9226833681649D86838
:1010000007EBC212BDE8F04106F036B9BDE8F08149
:1010100009000010F2050010F1050010F0050010A5
:10102000100200109C030010A5D50000080000105D
:10103000F4050010C7D500000B00001011020010CD
:10104000B7D5000090060010DED500000C0200109D
:1010500041D500009806001047D600002D4C08B579
:10106000FFF7EAFA236823B92B48FFF793FB012324
:1010700023602A4D2A4C2B4E28684FF47A7104F0D5
:10108000B3FE38B123682848D96806F06DF9FFF738
:1010900029FFF1E74FF47A71306804F0A5FE38B10A
:1010A00023682248D96806F05FF9FFF78BFEE3E773
:1010B0001F4B4FF47A71186804F096FE38B123681C
:1010C0001C48D96806F050F9FFF748FDD4E71A4BE1
:1010D0004FF47A71186804F087FE38B12368174816
:1010E000D96806F041F9FFF77FFDC5E7144B4FF4CF
:1010F0007A71186804F078FE2368D96828B111481D
:1011000006F032F9FFF7DAFDB6E70F4806F02CF9E2
:10111000B2E700BF940600100B00001080270010FB
:101120009C0300107C27001062D5000069D50000E8
:101130006427001072D500009827001081D50000A8
:10114000A42700108CD5000095D500002DE9F041B2
:10115000264E274C4FF47A710746306804F044FE5F
:101160004FF47A7003F076FE25462378607843EAE0
:10117000002003F0ABFB0028F7D01E4C23786078EA
:1011800043EA002003F0C4FB032003F08FFE38463F
:1011900003F08CFEFF2003F089FE80462B786878F0
:1011A00043EA002003F092FB0028F7D0FF2003F071
:1011B0007DFE07462B78687843EA002003F086FB23
:1011C0000028F7D02378607843EA002003F092FBF0
:1011D00041F2707003F03EFE00231A461946306853
:1011E00004F0DEFB47EA0820BDE8F0816C27001020
:1011F000AE2700108C27001000222DE9F0410121BC
:10120000104603F0FFFADFF81081394F394E3A4D9E
:101210003A4C00B288F800000022C0F3072088F89A
:1012200001000721104603F0EDFA00B238700022E9
:10123000C0F3072078700921104603F0E3FA00B2EA
:1012400030700022C0F3072070700A21104603F0AE
:10125000D9FA00B200222870C0F307201921687063
:10126000104603F0CFFA00B22070C0F3072098F8C0
:101270000030607098F8010043EA002003F0E4FABF
:101280003B78787843EA002003F0DEFA3378707810
:1012900043EA002003F0D8FA2B78687843EA00206C
:1012A00003F0D2FA2378607843EA002003F0CCFA06
:1012B00001210846124AFFF7A3F8124A012107202C
:1012C000FFF79EF8104A01210920FFF799F80F4A0D
:1012D00001210A20FFF794F8012119200C4AFFF799
:1012E0008FF80C492620BDE8F04103F09FBD00BFF8
:1012F00072270010AC27001068270010A2270010EA
:10130000090A0000290A0000490A0000690A0000D1
:10131000890A00008D040000A82700102DE9F7437A
:1013200003220021012004F015FBD04BD04D1860A2
:1013300003220021012004F00DFBCE4BCE4E18609D
:1013400003220021012004F005FBCC4BCC4F186098
:1013500003220021012004F0FDFACA4B0322186089
:101360000021012004F0F6FAC74B03220021186087
:10137000012004F0EFFAC54B1860012004F0D3FB04
:10138000C34B1860C34807F04DF9C34807F04AF94A
:10139000FFF7AAFB002433689C42C0F0C5810024FB
:1013A000012645F6C05003F0EDFD2346CDE900646B
:1013B0004FF40072B949BA48DFF84893B94DBA4FB3
:1013C000DFF8448304F0F6FF22461021304604F093
:1013D000C1FAB64B224618604FF40071304604F053
:1013E000B9FAB34B022218600F21204603F00AFA23
:1013F000B04B00B21870C0F30720587002221121C0
:10140000204603F0FFF9AC4B00B21870C0F3072080
:10141000587002221221204603F0F4F9A74B00B2C3
:1014200002211870C0F3072022465870084603F0C6
:10143000E9F900B2C0F3072389F80000C0B240EA1E
:10144000032089F8013003F021FA224606212046C4
:1014500003F0D8F900B2C0F307232870C0B240EA05
:1014600003206B7003F012FA22460821204603F095
:10147000C9F9934A00B2C0F307231070C0B240EA22
:101480000320537003F0E0F922461A21204603F0AE
:10149000B9F900B2C0F307233870C0B240EA0320A4
:1014A0007B7003F0F3F932461F21304603F0AAF9AE
:1014B00000B2C0F3072388F80000C0B240EA03205E
:1014C00088F8013003F0E2F92B78687843EA0020CD
:1014D00003F010FA3B78787843EA002003F00AFA28
:1014E00098F8003098F8010043EA002003F002FA6F
:1014F00099F8003099F8010043EA002003F008FA57
:10150000022000F071FB4FF47A7003F0BBFCFF2067
:1015100003F0CCFC99F8003099F8010043EA002070
:1015200003F0E8F9322000F05FFB224620468821D4
:10153000FFF7FCFB062211460220FFF7F7FB98F8A5
:10154000003098F8010043EA002003F0D3F93B781B
:10155000787843EA002003F0CDF92B786878594D6C
:1015600043EA002003F0C6F92046FFF7EFFD0746E7
:101570003046FFF7EBFD80460320FFF7E7FD2B68C1
:1015800051490246D86805F077FE2B684F49D86864
:101590003A4605F071FE102248212046FFF7C6FBAF
:1015A0002046FFF7D3FD2246602181460320FFF746
:1015B000BDFB0320FFF7CAFD074641F2707003F040
:1015C00049FCFFF719FE0A2000F00EFB404B414991
:1015D0004148CDE900634FF48062234604F0EAFEFF
:1015E00002230093019423464FF480623B493C4818
:1015F00004F0E0FE2B683549D8684A4605F03CFE09
:101600002B683849D868424605F036FE2B682E49CB
:10161000D8683A4605F030FE2B683348D96803266F
:1016200005F0A2FE2346019400964FF480622F49F4
:101630002F4804F0BFFE23464FF48062CDE90064DA
:101640002C492D4804F0B6FE2B682C48D96805F0CB
:101650008BFE202211460B20FFF768FB0B20FFF7C3
:1016600075FD2B6826490246D8684FE07C2700109C
:1016700098060010802700109816001064270010AC
:101680003DD6000098270010A427001090270010D6
:101690006C27001021D6000029D600004BD6000090
:1016A000D12000008C270010A02700107827001000
:1016B0008827001070270010AA2700106A27001042
:1016C000AE2700109C0300104FD600005BD6000030
:1016D0009C27001066D60000410800006DD600006F
:1016E0000109000074D6000081D600008BD60000EE
:1016F0005D1000009CD6000085090000A9D60000FE
:10170000B3D50000742700106027001005F0B4FD69
:101710002B680948D96805F027FE04F0F1FE4FF068
:10172000FF3003B0BDE8F08301342A462146384635
:1017300006F096FE80352EE6C1D600000C4600204D
:10174000044908B500F073FB2146002000F06FFB50
:10175000FEE700BFC3D8000008B50249002000F032
:1017600066FBFEE789D80000024B0022C3F8C020C8
:1017700030BF704700C00F4008B50C4600200A4932
:1017800000F055FB0949002000F051FB08490020FA
:1017900000F04DFB0749002000F049FB21460020E6
:1017A00000F045FBFEE700BF91D70000E3D7000043
:1017B00026D800005AD80000034B0360034B0B608F
:1017C00064231360704700BF38190010A817001079
:1017D00008B500F0EBFA024B1B68C01A08BD00BF49
:1017E000A017001008B500F0E1FA024BC3E90001B0
:1017F00008BD00BFA017001038B50D46044658B10B
:1018000003290BD90A46002105F004FE23462A0AC3
:1018100003F8022B65701C46204638BD0024FBE708
:1018200010F8023C10F8010C40EA0320033880B2A3
:10183000704708B5FFF7F4FF013080B208BD08B566
:1018400010B107F018F880B208BD10B50446FFF7D4
:10185000F6FF02462046FFF7E3FF824234BF002036
:10186000012010BD05F004BD00230370704710B5C2
:101870000446FFF7DEFF13460A460146204607F0FE
:1018800001FF20EAE07080B210BD0EB403B503AAD8
:1018900052F8041B0192FFF7EAFF02B05DF804EB77
:1018A00003B070470EB403B503AA52F8041B0192AB
:1018B00007F01AFF0028CCBF80B2002002B05DF80C
:1018C00004EB03B0704738B505460C46084671B1C5
:1018D00006F0D1FF01462846FFF7A2FF89B28142F8
:1018E000024605D82146284607F002F8012038BDF7
:1018F0000020FCE738B51546FFF77EFF044610B11F
:101900002946FFF7E0FF204638BD2DE9F0410546A6
:101910000F4614460AB3FFF792FFB84206461CD39F
:10192000204606F0A8FF32188046284692B2FFF7FC
:1019300077FF824211D8C7F101023D44324492B28E
:10194000294605EB080005F04BFD42462146284696
:1019500006F0CEFF0120BDE8F0810020FBE770B566
:1019600006460C46A9B1FFF76AFF0546204606F079
:1019700082FF82B2A918304689B2FFF751FF884230
:1019800007D3013292B22146701905F01BFD0120E8
:1019900070BD0020FCE707B500238DF8041001A9F5
:1019A0008DF80530FFF7DBFF03B05DF804FB08B5E9
:1019B00029B106F037FFB0FA80F0400908BD0846AB
:1019C000FCE770B5064615460C4661B1FFF737FFD8
:1019D000A84208D32A462146304606F077FFB0FADF
:1019E00080F0400970BD0020FCE770B505460C464C
:1019F00081B1FFF724FF0646204606F03CFF8642F1
:101A0000024607D32146284606F03EFFB0FA80F092
:101A1000400970BD0020FCE72DE9F041074614465F
:101A20000D46C9B1C2B1FFF70AFF8046284606F04D
:101A300022FF804506460FD302462946384606F067
:101A400045FF48B9B85D237883421ABFB0FA80F0E9
:101A500040090120BDE8F0810020FBE710B50446F5
:101A6000FFF7EDFE40B1013880B2205C0D2804D0B4
:101A7000A0F10A035842584110BD0120FCE770B59F
:101A80000C4605461646FFF7DAFEA04211D9011BA7
:101A9000B142C4F101030A461844A8BF3246801A75
:101AA00014FA82F1294482B2281905F099FC012028
:101AB00070BD0020FCE70A460021FFF7E0BF38B503
:101AC0000C460546FFF7BBFEA04224BF001B81B2B7
:101AD0002246284638BF0021BDE83840FFF7CFBF77
:101AE00010B5044606F017FF031E1FBF1B1B9BB259
:101AF000002201200CBF0020E25410BD10B50446A6
:101B000006F0ACFE38B1011B0131204689B2BDE8B8
:101B10001040FFF7D0BF10BD70B50646054611480E
:101B20000C462B4613F8011BC9B10A5C520714D5A9
:101B300024B1284605F09CFB20600124094A29466F
:101B400015F8013B13B19B5C5B07F8D4891B89B284
:101B50003046FFF7B0FF204670BD1D46E1E70C465A
:101B6000ECE700BFF3E90000F8B506460C46C9B142
:101B7000FFF765FE0546204606F07DFE6B1E3344EA
:101B80002044013E0021B34202D02246824201D1CC
:101B9000012008E012F8015B1F78AF42F6D103F88C
:101BA0000119F0E70846F8BDF8B504460D4600F007
:101BB000FDF8061941EB050705F072F802280CD173
:101BC00000234FF47A72AB4208BFA24205D22046EE
:101BD000294605F0CBF904F0DDFD00F0E7F8B94245
:101BE00008BFB042F9D3F8BD4FF47A73A0FB0301EC
:101BF000FFF7DABF30B585B002F00AFD02F0A2FDB2
:101C0000ADF8080002F0B0FDADF80A0002F0BEFD2C
:101C1000ADF80C0002F0CCFD0024ADF80E0004AAD3
:101C200004F0030302EB4303013433F8080C02F021
:101C30007DFE3220FFF7D8FF202CF0D145F6C050B2
:101C400003F0A0F900222349234801F037FE234B7B
:101C50001868002319460222406806F0FBFCFEF7D4
:101C6000E1FA002501464FF41642002003F01EFA67
:101C700000951B4B1B4A0121204603F021FE1A4B05
:101C800000950446194A0121802003F019FE2246DE
:101C90000146284603F056FA154A16491648174DCC
:101CA00006F0DEFBFEF7BEFA15490246022002F0FE
:101CB000A9FF0224E1B2022003F060F818B1214626
:101CC000284606F0CDFB0234B4F5807FF2D105B092
:101CD00030BD00BFCED90000041A00109C030010D4
:101CE000B419001094190010BC1C00103C1C00100A
:101CF000E0D80000F1D8000042D900005FD9000010
:101D0000801A060010B50A4C236823B9094901203E
:101D100003F0F4FE206004F0C3FF022806D120681F
:101D20004FF0FF31BDE8104004F05EB810BD00BFB9
:101D30000C1D0010101D001010B504F0B1FF02289A
:101D400008D1054800231A4619460068BDE810402E
:101D500003F026BE10BD00BF0C1D0010074A08B5D9
:101D60001368002101330846136002F03BFE002196
:101D70000846BDE8084002F023BE00BF601D001009
:101D800008B5074A0749B0FBF1F10020013902F01C
:101D9000E1FD0021044A0846BDE8084002F0FEBD0E
:101DA0005D1D000040420F000087930370B5084E90
:101DB000002002F00FFE05460020346802F00AFE03
:101DC0008542F5D8034B0021E3FB040170BD00BF41
:101DD000601D00100087930308B5FFF7E7FF4FF47D
:101DE0007A72002305F0C2F808BD0EB42DE9F04167
:101DF000A3B029AB02AD53F8042B01938021804698
:101E0000284607F03FFC0646284606F034FD00242D
:101E10000746BC4205DB304623B0BDE8F04103B0C5
:101E20007047295D404603F0CBF90134F1E770B506
:101E3000054608460C4606F01EFD2618B44205D19C
:101E400028460A21BDE8704003F0BAB914F8011B16
:101E5000284603F0B5F9F1E72DE9F84F0646144698
:101E6000884610461B49DFF87C90DFF87CA0DFF83D
:101E70007CB0FFF70AFDB3682146404698473568B5
:101E80000DB9BDE8F88F6F68384606F0F4FC3228CB
:101E90008CBF514649463B462A682046FFF7F5FC71
:101EA00059462046FFF71CFE0B4907462046FFF720
:101EB00017FE07B918B109492046FFF750FD084938
:101EC0002046FFF74CFDB368214640469847ED6831
:101ED000D6E700BF86D90000CDD9000083DB000023
:101EE000CCD90000E2D90000CFD90000EED9000023
:101EF00030B504294FF0000538BF04210560C0E962
:101F00000112C36030BD11B10368CB60016070473E
:101F10002DE9F041144605460F4610464249FFF7A9
:101F200023FE42492046FFF760FD002833D03F4999
:101F30002046FFF73CFD28B1224639462846FFF7E8
:101F40008BFF68E020212046FFF7D8FDDFF8F08006
:101F50002E680EB92E6810E0424631682046FFF721
:101F60005BFD002838D1F668F3E76A6831682046DF
:101F7000FFF727FD00282FD1F668002EF5D1314656
:101F80002B4A2046FFF7C1FCAB68214638469847EC
:101F9000AB6825493DE02E68DFF8A4800EB92E68B5
:101FA0000EE0424631682046FFF736FDB8B9F668C4
:101FB000F4E76A6831682046FFF703FD78B9F668F0
:101FC000002EF6D131461B4A2046FFF79EFCAB6837
:101FD000214638469847AFE7AB687168D6E72021BD
:101FE0002046FFF78BFDB368AA682146384698471C
:101FF00088B1114A00212046FFF787FCAB682146D3
:10200000384698470D4972682046FFF73EFCAB689A
:10201000214638469847E96821B1AB683846BDE8A3
:10202000F0411847BDE8F081CCD90000F0D900009C
:1020300023DA00004CDA0000F5D9000006DA0000CF
:10204000FCEA000010B54C1E14F8010F00B910BDD9
:1020500006F066FAF8E7FFFF70B5A0B006461B4A27
:1020600080216846FFF746FC0446304622460021A0
:10207000FFF74EFF2046FFF7F7FB2046FFF7EEFC89
:102080000028F2D105F078F9C5B2082D16D1204606
:10209000FFF7D5FB60B101212046FFF710FD284670
:1020A00006F03EFA202006F03BFA284606F038FA01
:1020B0002046FFF7CAFB0028DFD0D6E7284606F007
:1020C0002FFA29462046FFF766FCF1E7F0D9000019
:1020D00030B589B004AD2846164B174A174C042179
:1020E000FFF706FF95E80F0084E80F00204614492B
:1020F000FFF709FF20461349FFF705FF2046124965
:10210000FFF701FF20461149FFF7FDFE2046104969
:10211000FFF7F9FE0F4B02930F4B0193032300933C
:102120004FF4007223460D490D4804F00DF909B033
:1021300030BD00BF7DDA000045200000641D0010A6
:102140005402001024020010140200104402001077
:102150003402001074250010741D00104BD60000CE
:10216000592000002DE9F043E7B00DF198084FF435
:10217000807281460E464046002105F04BF98021D1
:1021800006A8FFF739FB05AF01233B600546002495
:10219000009704AB03AA20494846CDE90344FFF762
:1021A00081FB012831D93B6800939DF810209DF8F0
:1021B0000C104346022002F07FFD8146E8B1039AED
:1021C0001649DFF864902846FFF75FFB2946204652
:1021D000B0473B68A34202D867B0BDE8F083049AD9
:1021E00018F804300093224449462846FFF74DFB77
:1021F00029460020B0470134EBE709492846FFF79C
:1022000062FB29464846B047E6E706492846FFF7FD
:102210005AFB29462046F6E70EDC00001BDC0000D6
:102220004CDC000079DC000035DC00002DE9F043D7
:10223000E7B000240DF198084FF4807281460F46F4
:1022400040462146CDE9034405F0E4F8802106A884
:10225000FFF7D2FA04AB064603AA29494846FFF71E
:1022600021FB022844D120214846FFF747FC2021CA
:102270004846FFF743FC059405A94846FFF74CFC88
:102280000546D0B9009443469DF810209DF80C10E7
:10229000022002F04BFD814610B3039B1949DFF881
:1022A000709022463046FFF7F0FA31462846B8478C
:1022B000AC4207D167B0BDE8F083059B08F8043055
:1022C0000134D9E7049A18F8053000932A444946A6
:1022D0003046FFF7DAFA31460020B8470135E7E724
:1022E00009493046FFF7EFFA31464846B847E1E77B
:1022F00006493046FFF7E7FA31462046F6E700BFC9
:10230000B9DC0000C3DC0000FADC000028DD0000BE
:10231000E3DC0000F8B50D4628460E491646FFF7E7
:1023200064FB0D4904462846FFF75FFB2021074662
:102330002846FFF7E3FB2CB131462846FFF712FF92
:102340000020F8BD27B131462846FFF76FFFF7E7B9
:102350000120F6E7EFD6000008DC00000123024A66
:102360001A600020704700BFEFBEADDE2DE9F04FD0
:1023700089B0084604AF0D469146FFF773FA041E74
:1023800004DD04F0A1FD204604F004FADAB00024D4
:10239000FC60FFF71DFA0DF1100B786007F10C02DD
:1023A0000A21584604F030FC224A38602249284667
:1023B000FFF76BFA29462046C847A0465E464FF015
:1023C000000A20E0736943451AD1B269FB681444DE
:1023D00023B16421B3FBF1F3B2FBF3F3317BCDE91D
:1023E0000232338C9B00CDE90083144B726853F8A2
:1023F000213013492846FFF748FA29460020C847EC
:102400000AF1010A24363B685345DBD108F1010883
:10241000B8F10A0FD2D17B680A491A1B2846FFF788
:1024200034FA29460020C84700201437BD46BDE8CD
:10243000F08F00BFF3DD0000F8DD000074DE000067
:1024400023DE000040DE000010B507480C460023E4
:102450004FF0FF32006803F0A3FA2146034805F06D
:10246000FFFF002010BD00BF782700107ADD0000BC
:1024700070B50C46204616491646FFF7B6FAA8B1C5
:1024800020212046FFF73AFB204604F0A7F9054635
:1024900040B9104A29462046FFF737FA2146284618
:1024A000B04701E004F036FA002070BD0A4920462A
:1024B000FFF79BFA054648B120212046FFF71EFB97
:1024C000204604F08BF903F0D9FFEDE7034AE1E77A
:1024D0009ADD0000A2DD0000C3DD0000CADD0000BF
:1024E00008B52A2219233821022002F053FC0D22BC
:1024F0003821022002F00AFCA0F12A035842584178
:1025000008BDFFF7EDBF08B5064606F0B4F9002494
:102510000546A54200DCFEE7315D002002F050FEDA
:102520000134F6E702280CD9074B1B685A6882422F
:1025300007D09A68824204D0DB681B1A584258417F
:1025400070470120704700BF9C030010F8B5044697
:102550000E461546FFF7E6FF48B3164B1B68DB68CF
:10256000A34210D0A31E5C425C4104F099FB0746D5
:10257000002002F0DBFD022F17D1B0B1ACB9A542AB
:1025800003DC2846F8BD0124EFE7315D4FF0FF3250
:10259000002002F07DFE0134F1E7315D002002F001
:1025A0000FFE0134A542F8DCEBE70024FAE702480D
:1025B000FFF7A9FF9C030010BADE000008B5FFF783
:1025C000B1FF18B1002002F037FE08BD0148FFF747
:1025D0009AFF00BF88DE000042884378007843EA13
:1025E000022340EA032070470B0A017043700B0C72
:1025F000090E8370C170704710B5024410F8013B9A
:1026000011F8014B9042A3EB040301D0002BF5D04D
:10261000184610BDC3690239023B8B4283BF438910
:10262000006B01FB030000207047024600F10B0124
:102630000020C30143EA500312F8010B50FA83F360
:102640008A42D8B2F5D1704702684AB1134613F8EE
:10265000011B1F290BD93A29F9D1911C8B4202D0B9
:102660004FF0FF3070471278302AF9D10360002014
:10267000704701380A4411F8013B00F8013F9142CC
:10268000F9D17047CA7E8B7E032843EA022301BF3B
:10269000487D0A7D42EA002243EA02431846704719
:1026A000C2F307238A76CB760378032B01BF120C83
:1026B0000A75120A4A75704770B500F13806426B08
:1026C000044601233146407801F073FC054688B981
:1026D000616BA36A226AE070CB1A934208D2A37896
:1026E000022B05D10A4401233146607801F061FCD8
:1026F000284670BD0125FBE738B5436B8B42044685
:102700000D4619D0C3788BB901232A4604F138014C
:10271000607801F03AFC002818BF4FF0FF350346FF
:1027200065630CBF03460123184638BDFFF7C4FF9D
:1027300003460028F8D1E7E70023F5E738B5002382
:10274000C3704FF0FF3343630546FFF7D5FF0446E0
:1027500018BB95F8372295F8363243EA02234AF639
:10276000552293421BD195F83830EB2B03D0183308
:10277000DBB2012B15D803220B4905F16E00FFF7E0
:102780003BFF40B10522094905F18A00FFF734FFFC
:10279000002818BF0224204638BD0424FBE7032488
:1027A000F9E70224F7E700BF7ADF00007EDF0000D0
:1027B0002DE9F043002385B00B600F461546FFF767
:1027C00043FF061EC0F23981A44B53F82640002C6B
:1027D00000F03581206901F03CFB002800F03181D8
:1027E0003C60237805F0FE056BB1607801F0C8FB12
:1027F000C10708D41DB110F0040500D00A252846F1
:1028000005B0BDE8F0830023F0B22370607001F0E2
:10281000A9FBC20700F117810DB14307EED40021D7
:102820002046FFF78BFF022840F0EE806F4604F54C
:10283000FF7104F23E263D4611F8040C10B1084623
:10284000FFF7CAFE10318E4245F8040BF4D1002583
:1028500057F8046B002E00F0CE8031462046FFF77B
:102860006DFF012800F2C88094F8442094F84330AA
:1028700043EA0223B3F5007F40F0CA8094F84F305A
:1028800094F84E5055EA032504D104F15C00FFF79B
:10289000A3FE054694F8481025624B1E012BA1703B
:1028A00000F2B68094F845901FFA89F36381002BFB
:1028B00000F0AE8009F1FF3313EA090F40F0A88061
:1028C00094F84A3094F8497047EA03273FB21FFA58
:1028D00087F818F00F0FA4F8088040F0998094F85A
:1028E0004C3094F84B0050EA032003D104F1580017
:1028F000FFF772FE94F8472094F8463053EA02231B
:1029000000F0868005FB01FC03EB18126244904244
:102910007ED3801A4845B0FBF9F179D35048814203
:1029200076D84FF6F570814240F28F804FF0030960
:10293000023133443244B9F1030FE1616662A362AC
:10294000226369D194F8632094F8623043EA022349
:102950001F433FB2002F5BD104F16400FFF73CFE40
:10296000E062890001F2FF11B5EB512F50D34FF017
:10297000FF33C4E90533B9F1030F4FF0800323712E
:102980002FD194F8692094F8683043EA0223012B90
:1029900027D1711C2046FFF7AFFE10BB94F83722F9
:1029A00094F83632207143EA02234AF655229342C4
:1029B00017D104F13800FFF70FFE2A4B984210D1CF
:1029C00004F50770FFF708FE274B984209D104F57C
:1029D0000870FFF701FEA06104F50970FFF7FCFD28
:1029E0006061224A84F80090138801339BB21380FF
:1029F000E380002503E703200135042D7FF428AF91
:102A0000042805D10125FAE60428FBD0012801D9C4
:102A10000D25F4E6002627E7B8F1000FF8D063444F
:102A2000B9F1020FE3624FEA41031BBF5B1801F0EB
:102A30000101194601EB530194E70B25DFE60C2554
:102A4000DDE60F25DBE60325D9E640F6F5794945B5
:102A50008CBF4FF002094FF0010969E7D025001043
:102A6000F5FFFF0F5252614172724161D42500108F
:102A700001292DE9F04705460C46174672D9C3696E
:102A80008B426FD90378022B3FD0032B50D0012B00
:102A900068D101EB5108816A01EB5821FFF72CFE48
:102AA000064638BB05F1380908F1010AC8F30808E1
:102AB00014F001041FBF19F8083003F00F023B01A6
:102AC00003F0F00314BF1343FBB209F80830A96AFE
:102AD0000123EB7001EB5A212846FFF70DFE064655
:102AE00040B9CAF3080A44B1C7F3071709F80A70D6
:102AF0000123EB703046BDE8F08719F80A30C7F3C0
:102B0000032723F00F031F43F0E7816A01EB142131
:102B1000FFF7F2FD06460028ECD1640005F138030A
:102B200004F4FF741A191F55C7F307275770DFE71E
:102B3000816A01EBD411FFF7DFFD06460028D9D1E9
:102B4000A40005F1380304F4FE741C442046FFF78A
:102B500043FD27F0704700F0704139432046FFF7EE
:102B600043FDC5E70226C5E70129F8B505460C4631
:102B700052D9C36999424FD20378022B29D0032B33
:102B800038D0012B48D101EB5106816A01EB562167
:102B9000FFF7B2FD10B14FF0FF30F8BD771CA96A06
:102BA000C6F308062E4401EB5721284696F83860F4
:102BB000FFF7A2FD0028EED1C7F308073D44E30765
:102BC00095F8380046EA00204CBF0009C0F30B001E
:102BD000E3E7816A01EB1421FFF78EFD0028DAD1CB
:102BE0006400383504F4FF742B19285D5B7840EAE3
:102BF0000320D2E7816A01EBD411FFF77DFD0028A5
:102C0000C9D1A40005F1380004F4FE742044FFF794
:102C1000E3FC20F07040C0E70120BEE7B1F5001FE3
:102C2000F8B506460D4601D30220F8BDCA06FBD111
:102C3000826804683161CAB92378022B01D9E36A3A
:102C40009BB92389B3EB551FEED9E36AB361B3692E
:102C50007261002BE8D003EB55233834C5F3080527
:102C60002C44B361F4610020DFE71A4667897F02D4
:102C7000BD42114604D22046FFF7CCFCB061E6E726
:102C80003068FFF771FF431C024606D00128CBD9FC
:102C9000E3698342C8D9ED1BEAE70120C5E72DE9C6
:102CA000F041804605680F4649B96E69C6B1EB69C7
:102CB000B34298BF0126AB69A3B9002406E02846B9
:102CC000FFF752FF0128044603D801242046BDE83F
:102CD000F081421C51D0EB698342F7D83E46EAE7C7
:102CE0000126E8E7BE4215D1EB69D8F80000741C54
:102CF000A34298BF02242146FFF736FF0128E4D003
:102D0000431C3AD0D8B16B69012B03D9EA699342CD
:102D100038BF1E463446EB690134A34202D8012E67
:102D2000CBD902242146D8F80000FFF71DFF40B19F
:102D30000128CAD0013020D0B442ECD1BDE7002C2C
:102D4000E8D04FF0FF3221462846FFF791FE90B9B8
:102D500057B9D5E90632023A93426C6110D92B7902
:102D600043F001032B71B1E7224639462846FFF7AD
:102D70007FFE0028EDD00128A7D14FF0FF34A5E752
:102D8000013BAB61EBE7F8B50D46012D0746114657
:102D900004682BD9E369AB4228D92AB14FF0FF323E
:102DA0002046FFF765FE30B929463868FFF7DCFE9C
:102DB000064608B90020F8BD012817D0431C17D0DB
:102DC000002229462046FFF753FE0028F3D1D4E91C
:102DD0000632911E8B4205D20133A361237943F061
:102DE00001032371B2423546DED8E3E70220E2E771
:102DF0000120E0E740B1A1F10B03012B04D90F2919
:102E000002D0006901F02EB8704738B50D4604466F
:102E1000F0B10368DBB11A78B2B18188DA889142E7
:102E200012D1186901F015F8034698B12368587853
:102E300001F0A6F810F0010002D124682C6038BD22
:102E400000212068FFF7D6FF09200024F6E71C4682
:102E50000920F3E70F201C46F0E72DE9F047002694
:102E6000D0F800A08E75836980460C46002B00F0D8
:102E70009080C36A01336BD1D8F81C1000224D1E1C
:102E800010462E2615F8013F202B00F101000CD032
:102E9000052B08BFE523092804D10B2A9EBFA718DC
:102EA00001327E72A71801327B720B28EAD1A31877
:102EB00000205872A37D002B5AD1002A4FD004F174
:102EC000090010F8012B002A4CD092B2A2F1410562
:102ED000192D07D8082B0E7B8CBF102508252E42F4
:102EE00018BF203202730133EBE7B9F1000F05D1AF
:102EF00000F520539BB2B3F5006F12D340F2B51129
:102F000040EA094000F0B4FFFF28C7F1800518D956
:102F1000012D20D9E319020A9A75D87502231F449E
:102F2000002002368146DAF80C30985B0028DCD1AC
:102F30003D46B9F1000F18BF002525440023AB75AD
:102F40009AE750B1002DF4D0E31998750123E6E714
:102F5000B1463746E7E70025EBE70546E9E73F23BB
:102F6000A3750123234400229A750B7B03B9637276
:102F7000CB7A237201F11C00FFF72EFB2060CA7D83
:102F80008B7D43EA0223E3804A7E0B7E43EA0223E1
:102F9000A380BDE8F087F8B5C37804460D46C3B9F1
:102FA00029462046FFF736FB04F1380607466063E2
:102FB00004F50E723346002103F8011B9342FBD146
:102FC000002563899D420AD36089401B18BF0120F8
:102FD000F8BDFFF771FB0028E2D00120F8E70123DC
:102FE0007A193146607800F0E4FF0028ECD1013511
:102FF000E7E72DE9F843076905682037B7F5001FB3
:1030000024BF0023836183690446894673B1C7F3F3
:103010000808B8F1000F39D141690133836139B92A
:103020002B89B3EB571F31D80023A36104200BE099
:103030006B89013B13EA572328D12846FFF794FDFB
:103040000128064602D80220BDE8F883421C01D1BF
:103050000120F9E7EB69834212D8B9F1000FE3D000
:1030600061692046FFF71BFE0646A8B10128EAD099
:10307000431CEDD001462846FFF78DFF0028E7D11D
:10308000666131462846FFF7C5FAA06138354544E8
:103090002761E5610020D7E70720D5E72DE9F04F4C
:1030A000002185B00446D0F80080FFF7B7FD8146C7
:1030B000002840F08C804FF0FF334FF0FF0AE362AE
:1030C00057460093A1694046FFF716FB814600284A
:1030D0007DD1E5692E78002E7DD0EA7AE52E02F0CA
:1030E0003F03A37103D0100704D50F2B04D0009B1E
:1030F000E36252E00F2B57D194F82B30590642D49B
:10310000720648D5236995F80DA0E36206F0BF0664
:103110006B7B534541D1EA7EAB7E53EA02233CD11F
:103120002F78D8F80CB007F03F077B1E0D275F43C0
:103130002A4B012113F8012BA81815F802904078AA
:1031400049EA002959B37F2F039326D8484600F057
:10315000C3FE7A1C02903BF81700019200F0BCFEFF
:103160000299814219D1019A039B494617461C4A8C
:103170009A42DFD12B785B0603D511B13BF81730AB
:103180005BB9013EF7B200212046FFF732FF8146CE
:10319000002897D01BE0B742BAD0FF27F3E74FF6DD
:1031A000FF729145E3D0F8E727B92846FFF73DFACB
:1031B00050450CD094F82B9019F0010997D10B22AF
:1031C00004F120012846FFF717FA00288FD148465E
:1031D00005B0BDE8F08F4FF00409F8E76DDF00009F
:1031E0007ADF00002DE9F84FFF26076805463446D0
:1031F0004FF004094FF6FF78A96919B9B9F1000F2A
:103200006FD05FE03846FFF777FA8146002859D142
:10321000E8690378002B6DD0C27AE52B02F03F02FB
:10322000AA7154D02E2B52D022F0200108294ED062
:103230000F2A51D15A0648D503F0BF042B69467BAB
:10324000EB62437BB34242D1C27E837E43EA0223D8
:103250001BB2002B3BD10278F968DFF8A0E022F026
:103260004002013A4FF00D0C0CFB02FC4FF001093B
:103270001EF801AB00EB0A0292F801B010F80A2028
:1032800042EA0B22B9F1000F23D0BCF17F0F1ED808
:1032900021F81C2091460CF1010C01330D2BE7D1D4
:1032A00003785B0605D5BCF17F0F10D8002321F809
:1032B0001C30013CE4B200212846FFF79AFE81460B
:1032C000002899D00023AB610DE0A342B9D0FF24C0
:1032D000F1E74245E1D0FAE744B9FFF7A6F9B04279
:1032E00004D14FF000094846BDE8F88F4FF0FF3396
:1032F000EB62F8E74FF00409E4E700BF6DDF000080
:103300002DE9F04F85B00368019306468A4611F80F
:10331000013B2F2BFAD05C2BF8D00021B1609AF83A
:1033200000301F2B00F2CD808023304686F82B30F2
:1033300005B0BDE8F04FFFF771BC7F2807D8924A6F
:1033400012F8013B1BB19842FAD106204EE0802DC5
:10335000FBD02BF815000135B7E033F8022D202AF9
:1033600002D02E2A40F0D480013DCEE00246D7E0C4
:10337000C84505D2AB4249D1B9F10B0F3ED102E0AD
:10338000B9F10B0F35D144F003044FF00B0996F857
:103390002030E52B04BF052386F82030B9F1080F53
:1033A00004BFBF00FFB207F00C030C2B03D007F0E3
:1033B0000303032B01D144F00204A50707D4F80747
:1033C00048BF44F01004790748BF44F0080486F869
:1033D0002B403046FFF762FE96F82B3000285FD076
:1033E000042803D113F0040F08BF052005B0BDE881
:1033F000F08FAB4202D044F00304C8D8BF00FFB244
:103400002B464FF00B094FF00808B9E07F2812D97E
:1034100044F0020240F2B5110393029200F028FD3D
:1034200010F0800FDDE902230FD000F07F00574934
:10343000085C144628B1564911F8012BF2B18242BA
:10344000FAD144F003045F2011E0FF28F1D909F11B
:10345000FF31884503D344F00304C84690E006EBEF
:103460000801040A81F8204008F10108144606EB1F
:10347000080208F1010882F8200081E0A0F1410271
:1034800092B2192A02D847F00207F0E7A0F16102D0
:1034900092B2192A9EBF203847F0010780B2E6E7B2
:1034A0005A07A3D4B379DB066CD5019B03F138012D
:1034B0003369C3F308031944019B1878FFF7E2F856
:1034C000B0603368D3F80CB000251AF8010B68B16E
:1034D00040F2B51100F0ECFC00283FF436AF1F2895
:1034E00004D92F2802D05C287FF427AF52461378E6
:1034F0002F2B924602F10102F9D05C2BF7D0202845
:1035000034BF042400240BEB4503002D7FF425AFCA
:1035100000220BEB45032BF81520002D3FF415AFCF
:103520003BF81210202902F101003FF41FAF0AB945
:103530002E2901D144F0030433F8021D2E2901D0B5
:10354000013DF9D106F1200306F12B01202003F8FB
:10355000010B9942FBD14FF000084FF00809474694
:103560003BF81200531C00283FF411AF202805D06F
:103570002E287FF4FDAEAB423FF4FEAE44F00304D0
:103580001A46EDE7052031E784DF0000EDDE00009C
:103590008DDF000070B5C3780446002B45D1237839
:1035A000032B39D12379012B36D104F1380604F5E8
:1035B0000E723346002503F8015B9342FBD155237D
:1035C00084F83632AA2384F83732522341227221FA
:1035D00084F8383084F83930612384F83A3084F83C
:1035E0003B2084F81E2284F81F3284F81C1284F8D1
:1035F0001D1204F50870A169FEF7F6FF616904F574
:103600000970FEF7F1FF626A60780132626301239C
:10361000314600F0CEFC257100221146607800F0A2
:10362000DCFC003018BF012003E0FFF745F800285C
:10363000B5D070BD2DE9F04F90F82B4014F0A004E8
:1036400089B0054640F08F800668F26832F8143081
:10365000002B66D105F120070C22394605A8FFF79B
:1036600008F89DF81F30DB0740F186804023DFF823
:10367000448285F82B304FF0010A0B2205A9384609
:10368000D6F80C90FEF7F5FFBAF1050F5AD9A9F15B
:103690000201534631F8022F002A44D10DF11300E4
:1036A000072203F00F0C0CF13001392988BF0CF10F
:1036B00037010F2B00F8011902F1FF324FEA131105
:1036C00042D808AB13447E2103F8141C05F11F01F6
:1036D00008460023934206D010F801CFBCF1200F1A
:1036E00003F1010E32D1072A9CBF08A8801803F10C
:1036F000010396BF10F8140C20200132072BC85488
:10370000F1D92846FFF7CAFC814678BB0AF1010AC5
:10371000BAF1640FB1D14FF00709484609B0BDE8CE
:10372000F08F013492E7102002F0010C0CEB430300
:1037300013F4803F18BF83EA080301384FEA5202AE
:10374000F2D1A7E75346A9E70B46AAE77346C1E7BC
:10375000804601212846FFF74CFC814610B3B9F1A1
:10376000040FD8D0D9E74FF00609D6E70428D4D102
:103770009DF81F3085F82B309DF81F30D5F800A03C
:103780009B0748BF0C344FF00001284649BF0D236A
:103790000124B4FBF3F40134FFF740FA814600281A
:1037A000DDD18046A9695046FEF7A6FF8146002874
:1037B000D5D1EB691B78E52B01D0002BC8D108F1DE
:1037C00001084445C5D1013C55D029692846A1EBE3
:1037D0004411FFF723FA814600289ED13846FEF7B0
:1037E00024FF4FF6FF780190A9693046FEF784FF69
:1037F0008146002891D1EB69019AD6F80CE05A7302
:10380000E1B24FF00F024FF00D0CDA72DFF8A8A012
:1038100018734A1E0CFB02F29876D876844640450F
:103820001AF8019B18BF3EF8120003F8090003EBD9
:10383000090B0CF1010C18BF01324FEA10290028C6
:1038400008BF4046BCF10D0F8BF80190E7D1404511
:1038500002D03EF812200AB941F04001197001234C
:10386000F37000212846FFF7C4FB814600287FF44F
:1038700054AF013CB8D1A9693046FEF73DFF8146FF
:1038800000287FF44AAFEB69014603F1200203F8F8
:10389000011B9342FBD10B223946E869FEF7E9FE92
:1038A00095F82B30EA6903F0180313730123F370C2
:1038B00033E700BF211001006DDF0000F0B585B0D7
:1038C000CDE9001003A814460391FEF7BDFE051EC6
:1038D00028DB154F57F825604EB1306900F0B4FA77
:1038E00018B90224204605B0F0BD002333700199B9
:1038F00079B9019B47F82530002CF3D001A90022AB
:103900006846FEF755FF044601460198FFF772FA34
:10391000E8E7002301F8103BE8B200F08BFA00283A
:10392000E7D1DEE70B24DDE7D02500102DE9F041DB
:10393000D0B0174601910446002800F0DB8002F069
:103940003F052A4602A901A8FEF732FF06460028D5
:103950004BD1029B019903930FAADA6003A8FFF7EA
:10396000CFFC20B99DF93730002BB8BF062017F0E7
:103970001C0F00F09F80002842D0042835D103A8F6
:10398000FFF758FE88BB45F00805029BDDF828804C
:1039900018784146FEF776FE074600F030FB0146F8
:1039A00008F10E00FEF720FE0A9B02982022DA7230
:1039B0000A990022FEF774FE0A9B00221A775A77B2
:1039C0009A77DA77029B0121D97017B3394603A899
:1039D000D3F83480FFF7D7F938B941460298FEF79B
:1039E0008BFE029B013F5F6198B100232360064676
:1039F00031460298FFF7FEF9304650B0BDE8F0813D
:103A00009DF8123013F0110F5ED178076CD439078E
:103A1000BBD4DDF808800A9FD8F83430236267628F
:103A200098F800002907394648BF45F04005FEF7E1
:103A300029FEA06007F11C00FEF7CEFDB8F80630A5
:103A4000A38004F128070023E060C4F800802574F7
:103A50006374E361636104F50A713A4602F8013B5D
:103A60009142FBD1AA06C3D5E568002DC0D0B8F8B5
:103A70000A80A16865614FEA4828A84526D300203E
:103A8000A1610028B1D1C5F30803002BB0D0DDF847
:103A900008804046FEF7BEFD50B300EB5522E261C0
:103AA0000123394698F8010000F06FFA00289FD0F2
:103AB00001209AE7002898D19DF81230DA0615D433
:103AC000BF07A6D5D807A4D507208EE72068FFF743
:103AD0004BF801280146A5EB080503D9431CCCD1BE
:103AE0000120CDE70220CBE708207EE704207CE719
:103AF00002207AE709267FE72DE9F04F9B4685B043
:103B000000238946CBF8003003A904461646FFF788
:103B10007CF9054608B9657C25B129460398FFF76D
:103B200069F908E0257C15F0010508D10721039803
:103B3000FFF760F90725284605B0BDE8F08FE36878
:103B40006769DF1BB74204F1280328BF374600939B
:103B50002FB939460398FFF74DF93D46EBE7626907
:103B6000C2F30803002B76D1039B5B89013B13EA68
:103B7000522313D12AB9A068012809D802256574F7
:103B8000CBE7A16920680193FEF7EEFF019BF3E705
:103B9000421C02D101216174C0E7A061DDF80CA0D4
:103BA000A16901935046FEF735FD019B20B902251E
:103BB000657429465046B2E7B7F5007F03EB00086D
:103BC0002BD37E0ABAF80A209AF80100991991427B
:103BD00088BFD61A33464246494600F0D6F9002837
:103BE000D8D194F91030002B0BDAE069A0EB080073
:103BF000B04206D24FF40072009909EB4020FEF764
:103C000038FD7602DBF800303344CBF800306369CE
:103C1000BF1BB1441E4466619AE7E269424518D071
:103C200094F91030002B0BDA012300999AF8010067
:103C300000F0BFF90028ADD1237C03F07F0323748B
:103C40000398009940780123424600F09EF900282D
:103C5000A0D1C4F81C806169009BC1F30801C1F5C3
:103C60000076BE4228BF3E46324619444846FEF71B
:103C700000FDC7E7F7B501A90446FFF7C6F80546FA
:103C8000002843D1237C13F040053FD01B0614D5F8
:103C90000198E2694078012304F1280100F089F9D4
:103CA00038B101210198FFF7A5F80125284603B096
:103CB000F0BD237C03F07F03237400F0A0F9216A98
:103CC00007460198FEF718FD0546F8B9666AF37ACB
:103CD00043F02003F372A26820683146FEF7E0FC4F
:103CE000E16806F11C00FEF77FFC394606F116007C
:103CF000FEF77AFC0198B5740123F574C370FFF7E1
:103D000049FC237C23F0400305462374294601988F
:103D1000FFF770F8CAE737B50546FFF7ABFF044673
:103D200050B901A92846FFF770F8044620B9286069
:103D300001460198FFF75EF8204603B030BD30B56C
:103D4000C5B005460191002833D0002202A901A880
:103D5000FEF72EFD044690B9029B2B6003AADA60A1
:103D600001992846FFF7CCFA044620BB95F92B3081
:103D7000029C002B0BDBAB79DB0603D4052400236C
:103D80002B600FE02078E969FEF77CFCA860E388EF
:103D9000AB8000212846FEF741FF04280446EDD001
:103DA0000028ECD121460298FFF724F8204645B0C0
:103DB00030BD0924FAE70428E0D0E0E737B501A9CF
:103DC0000546FFF722F8044620B92860014601980D
:103DD000FFF710F8204603B030BDF0B5C3B00E4673
:103DE00069460546FFF711F8044628B95EB9014651
:103DF0002846FEF713FF044600982146FEF7FAFF17
:103E0000204643B0F0BD009B01AADA602846FFF7C8
:103E1000E9F910F0FB070446EED131462846FFF7DA
:103E20001CF839462846FFF7E4F8042814BF044676
:103E30000024E1E710B501200C4601F074FE20607B
:103E4000003018BF012010BD08B502F0DBF80120DA
:103E500008BD08B540F6B83101F0C6FF431E584210
:103E6000584108BD00231A46194601F099BDFFFFCD
:103E70007F2810B501D880B210BDB0F5803F13D2B5
:103E800040F2B51399420FD10849002231F8024B94
:103E9000844293B203D103F18000C0B2ECE7013257
:103EA000802AF3D11346F6E70020E5E742E200005E
:103EB0007F280DD940F2B513994208D1FF2806D8C2
:103EC00000F10040034B803833F8100070470020A9
:103ED000704700BF42E20000B0F5803FF0B521D24C
:103EE0001E4A1F4983B2B0F5805F28BF0A46141DE1
:103EF00034F8042C2146A2B1934212D334F8025C68
:103F00002E0AEDB2AF18B84222DA082E09D8DFE83F
:103F100006F0050A10121416181A1C00801A34F83C
:103F200010301846F0BD981A00F001001B1A9BB221
:103F3000F7E7103BFBE7203BF9E7303BF7E71A3B9D
:103F4000F5E70833F3E7503BF1E7A3F5E353EEE77A
:103F50000434002ECCD101EB4502C8E794DF000009
:103F600086E1000010B50446FDF7CCFE34B900F040
:103F70000FF90446FDF7E0FE204610BD0424F9E7E2
:103F800008B900F0A3B904207047F8B507460C46FD
:103F900015461E46FDF7B6FE4FB92046F2B2294639
:103FA00000F09CF90446FDF7C7FE2046F8BD042446
:103FB000F9E7F8B507460C4615461E46FDF7A2FE82
:103FC0004FB92046F2B2294600F0CEF90446FDF77B
:103FD000B3FE2046F8BD0424F9E770B506460C464A
:103FE0001546FDF78FFE46B92046294600F010FA27
:103FF0000446FDF7A1FE204670BD0424F9E7002029
:10400000704738B5FDF7E8FE00F5FA75FF2000F0BF
:10401000DBFFFF2000F0D8FFFF28044603D0FDF7A8
:10402000DBFE8542F5D8204638BDFFFF08B500F01D
:104030006FFBFFF7E6FF00F073FB034A137843F0D2
:104040000103137008BD00BF6402001038B50546B7
:104050000C46FFF7D6FFFF2821D1204600F0B4FF21
:10406000FD2C1ED0AC1C05F2022514F8020C00F049
:10407000ABFF023414F8030C00F0A6FFAC42F4D1FD
:10408000FF2000F0A1FFFF2000F09EFFFF2000F0C6
:104090009BFF00F01F00431F5842584138BD0020CD
:1040A000FCE70120FAE737B5020604460D4607D5BE
:1040B00000217720FFF7F7FF012831D804F07F04B3
:1040C00000F02EFB00F024FBFFF79BFFFF282BD115
:1040D000402C27D0482C0CBF872301232A0E8DF8B3
:1040E00001202A0C8DF8022006212A0A68468DF844
:1040F00000408DF803208DF804508DF8053000F055
:104100006DFF4C2C02D1FF2000F05EFF0A24FF203F
:1041100000F05AFF030603D5013C14F0FF04F6D16A
:1041200003B030BD9523D9E7FF20F9E770B5054608
:10413000FDF752FE00F16406FF2000F045FF044643
:10414000FDF74AFE864201D3FF2CF5D0FE2C0CD1A0
:104150004FF40071284600F044FFFF2000F034FFC8
:10416000FF2000F031FF012070BD0020FCE7FFFFC1
:1041700038B5064D2C78E4B200F0DAFA18B104F044
:10418000FD042C7038BD44F00304FAE7640200100B
:104190002DE9F341FFF7ECFF4A4B1A7812F0020FBA
:1041A0001E4604D01878C0B202B0BDE8F081C82025
:1041B00000F0D2FE0A25FF20013D00F005FF15F0BA
:1041C000FF05F8D100F0A4FA29464020FFF76BFF65
:1041D0000128044671D1FDF7FFFD4FF4D57100F5BC
:1041E0007A774820FFF75FFF012848D101ADA84644
:1041F0000424FF2000F0E8FE013C14F0FF0408F85E
:10420000010BF6D19DF80630012B56D19DF80730F1
:10421000AA2B52D1FDF7E0FD874206D94FF080412D
:10422000E920FFF740FF0028F4D1FDF7D5FD8742D4
:1042300043D900217A20FFF736FF00283DD104241E
:10424000FF2000F0C1FE013C14F0FF0405F8010B53
:10425000F6D19DF8043013F0400F14BF0C24042451
:10426000194B1C7000F05CFA4CB3337845F6C05023
:1042700003F0FE03337000F06FFE307893E72946B9
:10428000E920FFF710FF022836BFE9254125022467
:10429000FDF7A2FD874205D900212846FFF703FF5D
:1042A0000028F5D1FDF798FD874206D84FF400713C
:1042B0005020FFF7F8FE0028D2D00024D0E7FFF707
:1042C000B5FEDAE764020010D625001008B5FFF746
:1042D0004FFF014B187808BD6402001070B51446FA
:1042E00005460E46FFF744FF002C35D01C4B1B78CB
:1042F000DA0733D400F00CFA1A4B1B781B0758BFAF
:104300007602012C314611D15120FFF7CCFE38B98D
:104310004FF400712846FFF709FFB0FA80F46409F2
:1043200000F0FEF9201C18BF012070BD5220FFF7DD
:10433000BAFE0028F4D14FF400712846FFF7F6FECC
:1043400028B1013C14F0FF0405F50075F3D10021FC
:104350004C20FFF7A8FEE3E70420E6E70320E4E7AC
:1043600064020010D625001070B5144605460E46AE
:10437000FFF7FEFE002C41D0234B1A78D0073FD424
:104380001B7859073ED400F0C3F9204B1B781A075D
:1043900058BF7602012C11D131465820FFF783FE19
:1043A00050BBFE212846FFF751FEB0FA80F46409A5
:1043B00000F0B6F9201C18BF012070BD13F0060FE5
:1043C00003D02146D720FFF76EFE31465920FFF774
:1043D0006AFE0028ECD1FC212846FFF737FE28B101
:1043E000013C14F0FF0405F50075F4D1FD21002017
:1043F000FFF72CFE0028DBD10124D9E70420DCE7FD
:104400000320DAE70220D8E764020010D625001066
:104410007FB506460D46FFF7ABFE052E15D12C786D
:10442000012C10D02CB1022C0AD00424204604B058
:1044300070BD00F07DF90028F8D0FFF7F7FDF5E733
:1044400000F076F968700024F0E76F4B1C7814F0E8
:10445000010440F0D7800E2E00F2D280DFE806F093
:1044600008134E52D0D0D0D0D0D09DA1B0B3C4004C
:1044700000F04EF9FFF7C5FDB0F1FF0418BF0124AD
:1044800000F04EF9D2E700214920FFF70CFE044668
:1044900008B10124F4E710216846FFF747FE002821
:1044A000F7D09DF800309DF808109B09012B9DF86E
:1044B000093006D15A1C02EB012292B292022A6004
:1044C000DEE79DF807209DF80A00920002EB9112AA
:1044D0009DF80610890201F4406101320A449DF8FA
:1044E00005105B0001F00F0101EBD01103F0060392
:1044F0000B44073B02FA03F32B60C1E74FF4007350
:104500002B80BDE7414E317811F004011CD0002111
:10451000CD20FFF7C8FD0028BBD1FF2000F054FDDF
:1045200010216846FFF702FE0028B2D03024FF2099
:10453000013C00F049FD14F0FF04F8D19DF80A3069
:104540001A0910239340D7E74920FFF7ACFD044632
:1045500000289ED110216846FFF7E8FD002898D07A
:1045600032789DF80A309DF80B1092070AD55B004F
:104570009DF80D2003F07E0303EBD1139209013364
:10458000013ADFE7CA0002F01802C3F3840302EB2A
:104590005112013302FB0333AEE71C4B1B782B7027
:1045A0006EE700214920FFF77EFD00287FF471AF00
:1045B00010212846FFF7BAFDB0FA80F464095FE7DE
:1045C00000214A20EFE700217A20FFF76CFD044626
:1045D00000287FF45EAF2E1DFF2000F0F5FC05F8EB
:1045E000010BAE42F8D14BE70021CD20FFF75BFD78
:1045F00000287FF44EAFFF2000F0E6FC4021D8E712
:1046000004243DE7032411E764020010D6250010BE
:1046100007B501220221002000F0F4F80122032155
:10462000002000F0EFF804220021012000F0EAF859
:1046300001210422084600F0E5F804221146012079
:1046400000F0E0F80821012000F032F92B4B4FF484
:1046500080729A610921012000F00AF902220A21E0
:10466000002000F0CFF802220B21ADF8000000205E
:1046700000F0C8F8ADF80400009800F0D2F80198F6
:1046800000F0CFF80321022000F012F91C4B00B219
:104690001870C0F3072058701A21012000F008F9A3
:1046A000184B00B21870C0F3072058701821012071
:1046B00000F0FEF8144B00B21870C0F307205870D9
:1046C0001221012000F0F4F8104B00B21870C0F372
:1046D000072058700A21012000F0CAF80F2101209C
:1046E00000F0C6F81E21002000F0C2F81D210020B5
:1046F00003B05DF804EB00F0BBB800BF20800920D8
:10470000DD250010DB250010D9250010D72500106D
:10471000024B4FF48072DA61704700BF208009209D
:10472000024B4FF480729A61704700BF20800920CD
:10473000034B586980F40070C0F34020704700BFFD
:1047400020800920074B82B01B88ADF804309DF80B
:104750000430002063F307009DF8053063F30F2059
:1047600002B07047D7250010074B82B01B88ADF808
:1047700004309DF80430002063F307009DF80530F5
:1047800063F30F2002B07047D9250010074B82B0A9
:104790001B88ADF804309DF80430002063F3070057
:1047A0009DF8053063F30F2002B07047DB25001041
:1047B000074B82B01B88ADF804309DF80430002010
:1047C00063F307009DF8053063F30F2002B07047D4
:1047D000DD25001082B0C3B2ADF80400C0F307209D
:1047E000800000EBC31000F1804000F5303001F094
:1047F0000701036823F0070303600368194301609E
:1048000002B0704737B58DF801108DF800000446EE
:104810000D4600981146FFF7DDFF44EA052003B07E
:1048200030BD82B0C3B2ADF80400C0F307208000F1
:1048300000EBC31000F1804000F53030036843F412
:104840008063036002B0704782B0084BADF804008B
:10485000C0B2012253F820109DF805000B68824079
:1048600023EA02030B6002B0704700BF44E300007C
:1048700037B58DF800008DF80110044600980D46FC
:10488000FFF7E2FF44EA052003B030BD82B0074BDA
:10489000ADF80400C0B253F820209DF8050011685F
:1048A000012383400B43136002B0704744E30000D0
:1048B00037B58DF800008DF80110044600980D46BC
:1048C000FFF7E4FF44EA052003B030BD82B0084B97
:1048D000ADF80400C0B29DF8051053F820305A69B5
:1048E00001238B40134214BF0120002002B0704707
:1048F00044E30000C2B2054BC0F3072053F8222066
:10490000012382B08340936102B0704744E300000A
:10491000C2B2054BC0F3072053F82220012382B016
:104920008340D36102B0704744E3000007B5ADF89F
:1049300004000198FFF7CAFF28B1019803B05DF8A1
:1049400004EBFFF7E5BF019803B05DF804EBFFF758
:10495000D1BFFFFF2DE9F0410F4C04EBC003064629
:104960001D7928460F46904600F03CFA54F8364030
:1049700000233F2263604146A360284622606361B2
:10498000A361E3612362636200F050FA0123E760F0
:104990006360BDE8F08100BF5CE30000074B53F8A3
:1049A000303030B501205C6901EB4105A84020435F
:1049B0005861183343F8212030BD00BF5CE300008C
:1049C000034B53F83020012303FA01F111607047C3
:1049D0005CE30000024B53F830309868704700BF2A
:1049E0005CE30000024B53F830309960704700BF21
:1049F0005CE300002DE9F041044617461E46884658
:104A000002F04EF900210546606801F0EDF900233F
:104A10002373069B6361079BA361236884F80D8061
:104A20002022022DA77326611A600BD140F6B831FF
:104A3000606801F0D9F918B1207BB0FA80F0400924
:104A4000BDE8F0810021606801F0CEF90028F9D0BE
:104A5000F2E7FFFF13B504686268502A034600F0CE
:104A6000AB801FD8182A6AD00FD8082A5CD0102A29
:104A700060D062681A732022A2611022226008228C
:104A8000A2612268D206FCD465E0382A00F0A28038
:104A9000402A00F08880282AEBD1427BD2076ED5CD
:104AA00020233FE0A02A3CD014D8602A20D0802ABE
:104AB00026D0582ADDD10269A168117000228261D6
:104AC0002022A261102222600822A2612268D1065F
:104AD000FCD440E0B82A03D0C02A22D0A82AC8D1EA
:104AE000587F421C5A7704F10801FBF7DDFF0DE007
:104AF000042222600822A2610122027702B010BDC6
:104B0000027F32B100220277A26842770823A361B4
:104B1000F4E7407F421C5A77A168C9B2FBF7D2FF85
:104B2000F4E704232360F1E7437B03F0FE03A36073
:104B3000A261E3E7437B43F00103A360E6E78069FA
:104B40002021A1610822C0B9A16110212160A261C8
:104B50002268D106FCD400225868019201A901F014
:104B600053F8019B002BC9D01C4B4FF080521A60A8
:104B7000BFF34F8FBFF36F8FC0E79B7BD7E782698F
:104B80004AB92022A261102222600822A261226872
:104B9000D006FCD4DFE74169013A11F8010BA060AF
:104BA00059619A61B2E783692022012BA2614FF01B
:104BB0000403B7D8A361A9E70269A168117002696B
:104BC000013202618269013A012A82614FF00403D5
:104BD000A8D1EFE762680273BDE700BF04ED00E013
:104BE0000148FFF737BF00BFA80200100148FFF7D8
:104BF00031BF00BF880200100148FFF72BBF00BF84
:104C0000680200102DE9F043274B064615468846FA
:104C100093E8070085B004AB03E9070040F60A33C8
:104C2000ADF800300C238DF80230204A730102EBFE
:104C30000309D45804AB334403220021012013F8A4
:104C4000107C00F087FEC9F80400012000F06BFF23
:104C5000C9F80800384600F0C5F86C23A361144A6F
:104C6000144B904588BF98462823B5FBF8F25208AC
:104C7000C8215343B3FBF1F323613C235A43002380
:104C8000B2FBF1F26261A36263622362E3604023DC
:104C9000236004AB03EB8606384656F80C1C05B0BF
:104CA000BDE8F04300F0C2B87CE3000068020010E9
:104CB00040420F00A08601002DE9F3410F469046C7
:104CC0001D4623B90025284602B0BDE8F0810E4CF0
:104CD00004EB40144FF0FF31A06801F085F8002884
:104CE000F0D00026089B019342462B4647F0010175
:104CF00000962046FFF77EFE334605463246314693
:104D0000A06800F04DFEDEE7680200101FB500232A
:104D10008DF80F30012300930DF10F03FFF7CCFF47
:104D20009DF80F0005B05DF804FBFFFFF7B50E46D8
:104D300017461D461BB90025284603B0F0BD0E4C92
:104D400004EB40144FF0FF31A06801F04DF800284B
:104D5000F1D0089B3A46CDE9005306F0FE0100234E
:104D60002046FFF747FE002305461A461946A0686D
:104D700000F016FEE0E700BF680200101FB5002239
:104D800000920DF10F038DF80F20FFF7CFFF05B054
:104D90005DF804FB1FB58DF80F30012300930DF172
:104DA0000F03FFF7C3FF05B05DF804FBFEE7FFFF4D
:104DB00008B502F0BFF8084B084A1B78103BDBB27D
:104DC00052F823309847064B00221A601B68BDE852
:104DD000084002F0C3B800BF04ED00E0C8020010B4
:104DE000E0250010242809D8054B064A185CD2F8A3
:104DF000C410012383400B43C2F8C430704700BF86
:104E000088E3000000C00F4024289FBF054B064ADE
:104E1000D3F8C430105C9ABF23FA00F000F0010010
:104E20000020704700C00F4088E30000074B43F8A4
:104E3000201043B2002B08DB012200F01F0002FA11
:104E400000F05B09024A42F823007047C8020010D4
:104E500000E100E010B50446FBF7E4F94FF47A7383
:104E6000B0FBF3F00223B0FBF3F2A24202D8044AF3
:104E7000136110BDB3F5807FF9D00233F3E700BFB3
:104E80000080084010B504460E20FFF7ABFF064B2C
:104E900007221A605A6842F0020220465A60BDE8B2
:104EA0001040FFF7D7BF00BF00800840034B986059
:104EB000DA68D206FCD49868C0B270470080084017
:104EC00073B54FF0FF33B1F5805F019336D21D4CBF
:104ED0002369DE0734D41C4B1D69ED0730D41B4D0C
:104EE0000326AE602E611A4D1D6002B301AE5E60F6
:104EF00041F00046DE6041F20F061E61DAB120602B
:104F000041F0806140F68112E16065602261114AE2
:104F1000516A41F003015162D868C0F30B000028C8
:104F2000FAD1536A23F00303536202B070BD586094
:104F300041F00846DEE701AA2260E3E70120F4E73A
:104F40000220F2E7000108202001082000000820CC
:104F500008C00A4000C00A4010B50446FBF75EF9DD
:104F60004FF47A73B0FBF3F00223B0FBF3F2A242EA
:104F700002D8034A136110BD0233DBB2F5E700BF6C
:104F800000C00A4010B504462420FFF72BFF0B4B4E
:104F900007221A6002225A602046FFF7DDFF1A201E
:104FA000FFF720FF064B01221A631A6BD207FCD5CC
:104FB000044A0023936042F8183C10BD00C00A4028
:104FC0000000082020010820034B9860DA68D20610
:104FD000FCD49868C0B2704700C00A400122FFF7B5
:104FE0006FBF0022FFF76CBF02689368C3F34203F0
:104FF000022B73B5064623D0062B21D0012B34D1CA
:1050000000248DF803400194102501AA0DF103013D
:10501000706800F0A9FF48B133689DF803201A704A
:10502000019B002B18BF0124013DEED10CB3124BA4
:105030004FF080521A60BFF34F8FBFF36F8F18E0AD
:105040000024019433681A7DD207EFD51B788DF8C0
:10505000033001AA00230DF10301B06800F076FDD2
:10506000019B002B18BF0124ECE7137DDBB20193F9
:10507000019B02B070BD00BF04ED00E00148FFF7E6
:10508000B3BF00BF900300100148FFF7ADBF00BFE2
:10509000840300100148FFF7A7BF00BF780300108A
:1050A0000148FFF7A1BF00BF6C030010134B70B5A0
:1050B00015460646185C0C462D01FFF793FEB4FB1F
:1050C000F5F307EE903AF8EE677AB6EE007A77EEEF
:1050D000877A0C20FCEEE77A7043094A17EE903A83
:1050E00012589BB280211173190ADBB2117113702F
:1050F000102382F828300723137370BDC0E300002B
:105100006C030010074B10B50446185CFFF77CFEDB
:1051100038B10C206043044B1B58187B003018BF7B
:10512000012010BDC0E300006C030010044A0C23F2
:1051300003FB00204068003018BF0120704700BF0B
:105140006C0300102DE9F041054688461646FFF72E
:10515000D9FF074618B900273846BDE8F081154C3D
:105160000C2303FB05439A6822B9B8F1000F01D064
:10517000C3F808800C2303FB05435A680AB906B13B
:105180005E600C266E43A3199A68002AE3D05B6820
:10519000002BE0D0084B53F82510084B585DFFF763
:1051A00045FEA35941221A7206221A7207225A603A
:1051B000D2E700BF6C030010B0E30000C0E30000C2
:1051C00038B50C234343074A0D46D458FFF79AFFDE
:1051D00030B1237D9A06FCD52570237D9B06FCD536
:1051E00038BD00BF6C03001070B5044615460E466E
:1051F00001F056FD0F4B0C2202FB0434A468B4B13D
:10520000022814D16B1C09D04FF47A70A5FB000161
:105210004FF47A72002301F0A9FE05462A46314672
:10522000204600F043FD003018BF012070BD002073
:10523000FCE700BF6C0300102DE9F84306460F465B
:10524000124D01F02DFD0C2404FB0653814630461F
:10525000D3F80880FFF756FFA0B1B9F1020F0AD1C9
:10526000B8F1000F07D0394630464FF0FF32BDE8A5
:10527000F843FFF7B9BF74432B591A7DD207FCD509
:105280001B783B700020BDE8F88300BF6C03001062
:10529000F7B51F4D8DF807100746164601F000FDC3
:1052A0000C2303FB07535C6864B302282DD1711CE7
:1052B00009D04FF47A70A6FB00014FF47A720023F4
:1052C00001F054FE0646002332460DF10701204648
:1052D00000F066FB041C18BF012400F0A3F80C20AA
:1052E00078432B182D582A7D520609D500220DF13E
:1052F0000701586800F038FE10B19DF807302B7098
:1053000000F0B2F8204603B0F0BD0024FAE700BF79
:105310006C03001000F074B800F0BAB800F0EAB8FE
:1053200010B5044601F026F9204602F03BF8044689
:1053300001F0BAF90CB9FCF70FFA204610BD10B510
:10534000044640B101F016F9204602F033F8BDE8FA
:10535000104001F0A9B910BD08480068006880F34A
:1053600008884FF0000080F3148862B661B6BFF37E
:105370004F8FBFF36F8F00DF00BF000008ED00E02C
:10538000DFF80C00016841F4700101607047000013
:1053900088ED00E007B5002301930B4B1B68013338
:1053A00004D00A49EF20FCF7E7F9FEE74FF01803B5
:1053B00083F31188BFF36F8FBFF34F8F019B002BD7
:1053C000FCD003B05DF804FBEC250010C4E3000042
:1053D0004FF0807340F8043C074B40F80C3C21F040
:1053E00001016FF0020340F8081C40F8202C40F83F
:1053F000243C4438704700BF95530000FFFFFFFF77
:10540000074B19680868B0E8F04F80F30988BFF3CC
:105410006F8F4FF0000080F311887047AFF300806A
:10542000F025001008B54FF0180383F31188BFF37F
:105430006F8FBFF34F8F094A13680133012B13603D
:105440000AD1074B1B6813F0FF0F05D0054940F246
:10545000AB10FCF791F9FEE708BD00BFEC2500108A
:1054600004ED00E0DEE30000074A08B513682BB93D
:1054700006494FF4D970FCF77FF9FEE7013B136052
:105480000BB983F3118808BDEC25001013E400006C
:10549000EFF30980BFF36F8F154B1A681EF0100FE2
:1054A00008BF20ED108A20E9F04F10602DE90900B7
:1054B0004FF0180080F31188BFF34F8FBFF36F8F49
:1054C00001F0CAF94FF0000080F3118809BC196897
:1054D0000868B0E8F04F1EF0100F08BFB0EC108A5B
:1054E00080F30988BFF36F8F704700BFAFF3008070
:1054F000F025001008B54FF0180383F31188BFF3AF
:105500006F8FBFF34F8F01F03DF818B1034B4FF091
:1055100080521A60002383F3118808BD04ED00E077
:1055200010B5084A084C002323601360FAF776FE92
:105530004FF47A73B0FBF3F0044B01381860072383
:10554000236010BD18E000E010E000E014E000E08F
:10555000334B344A13B51968914205D132494FF49F
:105560009A70FCF709F9FEE71A68304B9A4205D1A8
:105570002F4940F23510FCF7FFF8FEE72D4B1A7863
:10558000D2B20192FF221A701B782B4ADBB28DF83F
:1055900003309DF8033003F018031370274A0723E4
:1055A000136000219DF80300000603F1FF3409D4C5
:1055B00011B1022B13600ED0214940F25D10FCF7AF
:1055C000DBF8FEE79DF803305B00DBB28DF80330BB
:1055D00001212346E6E74FF400731360019B154A4F
:1055E000DBB21370174B1A6842F478021A601A681B
:1055F00042F078421A60FFF793FF134B00241C60BF
:10560000FFF7BEFE114A136843F040431360FFF7F3
:10561000A3FE01F021F9FFF7BDFE204602B010BD48
:1056200000ED00E071C20F4191E4000070C20F4133
:10563000B4E4000000E400E0E4250010E8250010D8
:10564000D7E4000020ED00E0EC25001034EF00E08E
:1056500008B5EFF305830F2B0BD90D4A9B5C0D4A60
:1056600012789A4205D90C4940F2FE20FCF784F8E2
:10567000FEE70A4B0A4A1B68126803F4E063934290
:1056800005D9084940F20E30FCF776F8FEE708BD70
:10569000F0E300E0E425001025E400000CED00E05C
:1056A000E82500104FE4000000F108034FF0FF323E
:1056B0004360C0E9022303610023036070470023B5
:1056C0000361704743684B609A688A609A685160CA
:1056D0009960036808610133036070470A68531CCE
:1056E00030B50AD103695A684A6091608B6059608D
:1056F000036808610133036030BD00F108035C6892
:1057000025689542EFD82346F9E7D0E901120369ED
:105710008A6051605968814208BF5A600022026164
:105720001A68013A1A601868704710B50446FFF706
:1057300079FEA46BFFF798FEB4FA84F0400910BD1F
:10574000F8B51546026C866B044652B9076847BB2C
:10575000806801F007FBA76005460136A66328466E
:10576000F8BD65B9406801F02DFE6368226C1344F2
:10577000A26863609342F0D323686360EDE7C0687A
:1057800001F020FE236CE26821685B421A448A42E1
:10579000E2603EBFA2689B18E360022D01D116B102
:1057A000013E0025D9E73546D7E7034610B41A6C09
:1057B000084662B1D9689C681144A142D96024BFEF
:1057C0001968D960D9685DF8044B01F0FBBD5DF83C
:1057D000044B704770B50446FFF724FE94F845501B
:1057E00004F124066DB2002D14DCFF2384F845304B
:1057F000FFF73AFEFFF716FE94F8445004F1100646
:105800006DB2002D12DCFF2384F84430BDE87040F7
:10581000FFF72ABE636A002BE7D0304601F0FCF8A0
:1058200008B101F07FF9013D6DB2DCE72369002B7F
:10583000E9D0304601F0F0F808B101F073F9013D0C
:105840006DB2DEE738B50D46044628B91A4940F274
:105850000310FBF791FFFEE7FFF7E4FDD4E90F30FB
:10586000226862604343D1181B1A1344A160E360AD
:105870000021FF23A16384F8443084F8453095B9B2
:10588000236963B104F1100001F0C6F838B10B4B85
:105890004FF080521A60BFF34F8FBFF36F8FFFF747
:1058A000E3FD012038BD04F11000FFF7FDFE04F117
:1058B0002400FFF7F9FEF2E7DDE5000004ED00E06B
:1058C00013B51C4628B91E494FF49D70FBF754FFD1
:1058D000FEE72BB91B494FF49F70FBF74DFFFEE726
:1058E00032B161B918494FF4A170FBF745FFFEE7EB
:1058F00029B1164940F24310FBF73EFFFEE7502363
:105900000193019B502B05D0114940F24B10FBF73E
:1059100033FFFEE7002908BF2246019B22600123D6
:10592000C4E90F0184F8463019462046FFF78AFF84
:105930009DF8103084F84C30204602B010BD00BFF6
:105940001AE500003CE5000052E500008AE5000091
:10595000C2E50000F8B50D461746064628B90F49BE
:105960004FF4BB70FBF708FFFEE748435030FFF7EA
:10597000D7FC044670B1002380F8463065B100F1D1
:1059800050032360C4E90F6501212046FFF75AFF49
:1059900084F84C702046F8BD0346F2E71AE5000093
:1059A0002DE9FF47884601921F46044628B94E4913
:1059B00040F2F120FBF7E0FEFEE739B9036C2BB1B2
:1059C0004A4940F2F220FBF7D7FEFEE7022F08D14A
:1059D000E36B012B05D0464940F2F320FBF7CCFEE8
:1059E000FEE701F05DF9064638B9019B33B1414944
:1059F00040F2F620FBF7C0FEFEE700264FF000095C
:105A0000DFF8F4A037E0019D1DB9FFF72DFD002060
:105A100050E016B902A801F03FF8FFF725FD00F0AD
:105A2000A9FDFFF7FFFC94F84430FF2B08BF84F872
:105A3000449094F84530FF2B08BF84F84590FFF759
:105A400013FD01A902A801F033F8002846D1FFF7A1
:105A5000E9FCA26BE36B9A422FD1FFF705FD019998
:105A600004F1100000F0C0FF2046FFF7B3FE00F085
:105A70001BFE50B30126FFF7D5FCA26BE36B9A42E5
:105A800001D3022FBFD13A4641462046FFF758FEC8
:105A9000636A1BB104F1240000F0BEFF38B1164B5D
:105AA0004FF080521A60BFF34F8FBFF36F8FFFF735
:105AB000DBFC012004B0BDE8F087FFF7D5FC2046F1
:105AC000FFF788FE00F0F0FDD4E74FF08053CAF8EE
:105AD0000030BFF34F8FBFF36F8FCBE72046FFF748
